:020000040800F2
:10000000700C0020210200080B160008E7130008FE
:100010000916000827030008B119000800000000B5
:10002000000000000000000000000000890100083E
:100030007104000800000000CD01000899160008B6
:100040003B0200083B0200083B0200083B0200089C
:100050003B0200083B0200083B0200083B0200088C
:100060003B0200083B0200083B0200083B0200087C
:100070003B0200083B0200083B0200083B0200086C
:100080003B0200083B0200083B0200083B0200085C
:100090003B0200083B0200083B0200083B0200084C
:1000A0003B0200083B0200083B0200083B0200083C
:1000B0003B020008111700081D1700083B0200084A
:1000C0003B0200083B0200083B0200083B0200081C
:1000D0003B0200083B0200083B0200083B0200080C
:1000E0003B0200083B0200083B02000800F002F857
:1000F00000F03AF80AA090E8000C82448344AAF188
:100100000107DA4501D100F02FF8AFF2090EBAE885
:100110000F0013F0010F18BFFB1A43F0010318473B
:100120009C210000BC210000103A24BF78C878C18F
:10013000FAD8520724BF30C830C144BF04680C60ED
:10014000704700000023002400250026103A28BF35
:1001500078C1FBD8520728BF30C148BF0B60704739
:100160001FB51FBD10B510BD00F0A4F81146FFF774
:10017000F7FF01F079FC00F0C2F803B4FFF7F2FFDB
:1001800003BC00F0C9F80000224B19680868B0E809
:10019000F00F80F30988BFF36F8F4FF0000080F3FA
:1001A00011884EF00D0E70470000000006480068F0
:1001B000006880F3088862B661B6BFF34F8FBFF363
:1001C0006F8F00DF00BF00BF08ED00E0EFF3098094
:1001D000BFF36F8F0F4B1A6820E9F00F106008B55E
:1001E0004FF0500080F31188BFF34F8FBFF36F8F34
:1001F00001F07AFC4FF0000080F31188BDE8084060
:1002000019680868B0E8F00F80F30988BFF36F8FB2
:10021000704700BF24000020EFF305807047000006
:100220000948804709480047FEE7FEE7FEE7FEE78A
:10023000FEE7FEE7FEE7FEE7FEE7FEE704480549C6
:10024000054A064B704700000F170008ED00000834
:1002500070060020700C002070080020700800203C
:100260004FF0000200B5134694469646203922BF4F
:10027000A0E80C50A0E80C50B1F12001BFF4F7AF9A
:10028000090728BFA0E80C5048BF0CC05DF804EB7C
:10029000890028BF40F8042B08BF704748BF20F8EA
:1002A000022B11F0804F18BF00F8012B70477047E8
:1002B00070477047754600F02BF8AE46050069465A
:1002C000534620F00700854618B020B5FFF7B6FF6B
:1002D000BDE820404FF000064FF000074FF0000847
:1002E0004FF0000B21F00701AC46ACE8C009ACE8C8
:1002F000C009ACE8C009ACE8C0098D46704710B52C
:100300000446AFF300802046BDE81040FFF735BF3C
:10031000004870470C06002001491820ABBEFEE7DC
:10032000260002007047FEE710B5044600F040F8D2
:100330002046BDE8104000F06BB810B50C4600F048
:1003400037F82046BDE8104000F062B810B5002034
:1003500000F02EF8BDE81040002000F059B8000071
:1003600010B5124CB4F9020001F050F9B4F90410C0
:10037000012908D002290BD099B1B4F90800BDE8D1
:100380001040FFF7D1BFB4F908100844643904E005
:10039000B4F908201118A2F16400BDE81040FFF77D
:1003A000CCBFBDE81040FFF7D1BF0000180000200F
:1003B00070B51649134D144E0C6800280FDDA0428D
:1003C00000DC044601221021284600F0EEF900224C
:1003D0002021284600F0E9F93068C46370BD64420A
:1003E000A04200DB044600221021284600F0DDF97F
:1003F00001222021284600F0D8F931686042C86304
:1004000070BD0000000801407000002000000020C6
:1004100070B51649134D144E0C6800280FDDA0422C
:1004200000DC044601221146284600F0BEF90022F5
:100430000221284600F0B9F93068046470BD6442B6
:10044000A04200DB044600220121284600F0ADF95D
:1004500001220221284600F0A8F9316860420864B0
:1004600070BD000000080140700000200000002066
:10047000704772B6FEE7000005484FF47A710088B5
:100480004843044909684A6A104400224A62704796
:1004900004000020000100202DE9F041204C4FF025
:1004A000000847461D4E01220221204600F07DF93A
:1004B000142000F065F800220221204600F075F9B2
:1004C00025152946204600F06BF90028F9D015497A
:1004D00000200968486214490880124800F004FDB1
:1004E0002946204600F05CF90128F9D00D4800F0BB
:1004F00027FDFFF7C1FF01F015FD0C4901F01CFCC1
:100500000446394601F022FE3146204601F01EFD28
:1005100021464046BDE8F04101F0A0BB0000C842C2
:10052000000C01400001002004000020000068428F
:1005300030B51149002009688BB2104909688AB2A8
:100540005FF00C0123FA01F404F00104A1F10C05A1
:10055000AC400443491CE0B21029F3DB5FF0090111
:1005600022FA01F303F001034C1FA3400343491C8B
:10057000D8B20D29F4DB30BD080C01400808014059
:1005800070B54FF0E02300215D690B4A0B4C1268F7
:10059000B2FBF4F49A69444398699042FCD002D2C9
:1005A000A2EB000202E0A5EB000632441144024631
:1005B000A142F1D370BD00006000002040420F0056
:1005C0002DE9F84FDFF8B8910024A9F1040B234678
:1005D0000F2709F1040AABF1040EC9E00125A5407B
:1005E0002A40AA427DD1674ED1F804C0ACEB060880
:1005F000B44532D014DCBCF1030F3AD009DCBCF1B5
:10060000000F2AD0BCF1010F1CD0BCF1020F31D178
:100610001DE0BCF1110F17D0BCF1120F2AD119E067
:10062000B8F5881F19D006DCB8F5803F15D0B8F5AD
:10063000801F1FD111E0B8F5001F0ED0B8F5041FC0
:1006400018D10AE0CB6815E0CB681B1D12E0CB681F
:1006500008330FE0CB680C330CE08B682BB1012B17
:100660004FF0080303D0456104E0042302E0056174
:1006700000E00023FF2A01D8064601E000F104064D
:100680004FEA840501D9A5F12005D6F8008007FAC4
:1006900005FC28EA0C0803FA05F548EA0508C6F83F
:1006A00000804D68ED0062D5374DAE6946F0010619
:1006B000AE61AD6924F0030605F001050095334DE8
:1006C00006EB050CDCF80850A607360F07FA06F80B
:1006D00025EA0805DFF8B880404503D14FF000084F
:1006E00017E044E0DFF8AC80404502D14FF001084C
:1006F0000FE0DFF8A480404502D14FF0020808E087
:10070000DFF89880404502D14FF0030801E04FF038
:10071000040808FA06F848EA0508CCF808804D688D
:10072000D9F80060ED024D4601D5164300E096432E
:100730002E604D68DAF80060AD02554601D51643CB
:1007400000E096432E604D68DBF80060AD035D4627
:1007500001D5164300E096432E604D68DEF8006038
:10076000ED03754601D5164300E096432E60641CE8
:100770000D682A46E5407FF431AFBDE8F88F0000F0
:100780000804014000001110001002400000014068
:1007900000080140000C014000100140001401401D
:1007A0008068084000D0012070470AB1016170479D
:1007B0000904FBE7014880687047000064000020DE
:1007C000024881680278114481607047640000200B
:1007D000074810B5016841F010010160032000F0E6
:1007E0007BF80F2000F006F800F024F8002010BD80
:1007F0000020024070B50D4D04464FF47A71287800
:10080000B1FBF0F00A490968B1FBF0F000F0C2FA60
:1008100048B9102C07D200222146501E00F03CF8A7
:1008200000206C6070BD012070BD000064000020DD
:10083000600000200F4808B5816941F00101816125
:10084000816901F001010091C16941F08051C161EC
:10085000C069002200F0805000900F21901E00F02F
:100860001BF80548416821F0E06141F000714160EA
:1008700008BD00000010024000000140002809DB14
:1008800000F01F02012191404009800000F1E020AA
:10089000C0F8001170470000F0B40E4B1B680C4606
:1008A000C3F30223C3F10705042D00D90425191D44
:1008B000072901D2002300E0DB1E012606FA05F11C
:1008C000491E214099409E40761E16403143F0BC9F
:1008D00001F06FB80CED00E0064900F0070208686F
:1008E0004FF6FF03184040EA0220034A1043086015
:1008F000704700000CED00E00000FA052DE9F0471C
:100900000F46050061D0434E306800F00700B84242
:1009100009D2306820F0070038433060306800F0BA
:100920000700B84251D128683B4C810712D54007D7
:1009300003D5606840F4E06060602878000703D564
:10094000606840F4605060606068A96820F0F00062
:10095000084360602878C00728D06868012810D054
:100960002168022810D0890700292EDA616821F059
:10097000030101436160FFF71DFF804641F28839A2
:100980000DE021688903EFE78901EDE7FFF712FF2A
:10099000A0EB0801494502D90320BDE8F087606853
:1009A000696800F00C00B0EB810FEFD1306800F007
:1009B0000700B8420BD9306820F007003843306098
:1009C000306800F00700B84201D00120E5E7287840
:1009D000400705D56068E96820F4E060084360607E
:1009E0002878000706D56068296920F4605040EA3D
:1009F000C100606000F018F86168084AC1F3031193
:100A0000515CC8400649086006480068FFF7F2FEDE
:100A10000020C2E700200240001002409A22000895
:100A200060000020680000200E4A51680E4801F066
:100A30000C03042B11D0082B0FD10C48C1F38343B6
:100A4000C903C05C0AD55168084AC1F34041921EEF
:100A5000515C054A5043B0FBF1F0704704494843EC
:100A6000704700000010024000127A00AC2200081B
:100A700000093D002DE9F84F040070D02078C04DEA
:100A8000C00749D06868C0F38100012807D06868B2
:100A9000C0F38100022809D16868C00306D5286820
:100AA000800339D560680028E7D035E06068B0F58C
:100AB000803F0BD010B1B0F5A02F11D0286820F4E2
:100AC00080302860286820F4802002E0286840F404
:100AD00080302860606890B1FFF76CFE06460AE03F
:100AE000286840F480202860F0E700BFFFF762FE2E
:100AF000801B642873D828688003F7D50CE0FFF7C3
:100B000059FE064605E000BFFFF754FE801B64282F
:100B1000F0D828688003F7D420789A4E80074FF0E9
:100B200001094FF0000839D5686810F00C0F07D0A4
:100B30006868C0F38100022809D16868C00306D440
:100B40002868800714D52069012808D110E02069A1
:100B5000B0B1C6F80090FFF72DFE074605E00AE1A8
:100B6000FFF728FEC01B0228C4D828688007F7D5E5
:100B70002868616920F0F80040EAC10028600DE0B3
:100B8000C6F80080FFF716FE074604E0FFF712FEE6
:100B9000C01B022823D828688007F7D420780007D4
:100BA0002CD57948A169D9B1C0F80090FFF702FEB1
:100BB000074604E0FFF7FEFDC01B02280FD8686A55
:100BC0008007F7D571484FF4FA510068B0FBF1F097
:100BD000009000BF0098411E0091FAD20EE080E024
:100BE000C0F80080FFF7E6FD074604E0FFF7E2FDEE
:100BF000C01B022875D8686A8007F7D420784007A0
:100C000060D5E8690027C00008D4E86940F080504A
:100C1000E861E869012700F0805000905C480168B5
:100C2000C90513D40168834641F480710160FFF760
:100C3000C1FD824606E000BFFFF7BCFDA0EB0A0045
:100C400064284ED8DBF80000C005F5D5E06801281F
:100C50000AD008B1052813D0286A20F001002862C4
:100C6000286A20F0040002E0286A40F001002862AF
:100C7000E06841F2883B98B1FFF79CFD82460BE0AB
:100C8000286A40F004002862EEE700BFFFF792FDFB
:100C9000A0EB0A0159455AD8286A8007F6D50CE01E
:100CA000FFF788FD824605E0FFF784FDA0EB0A010F
:100CB00059454CD8286A8007F6D41FB1E86920F05E
:100CC0008050E861E06988B36968C1F38101022955
:100CD00044D00228C6F8608004D0FFF76BFD0446BC
:100CE00038E034E0FFF766FD074604E0FFF762FDF9
:100CF000C01B02282BD828688001F7D4206AB0F5E1
:100D0000803F05D16868A16820F40030084368601E
:100D1000D4E908010843696821F474110843686044
:100D2000C6F86090FFF746FD044606E025E000BFE8
:100D3000FFF740FD001B022809D828688001F7D57D
:100D40001BE000BFFFF736FD001B022802D903207D
:100D5000BDE8F88F28688001F4D40EE00128F7D0B0
:100D60006868226A00F48031914204D1616A00F41B
:100D70007010884201D00120EAE70020E8E7000077
:100D80000010024000004242800442426000002005
:100D90000070004010B5401EB0F1807F01D30120EB
:100DA00010BD4FF0E02460610F21601700F001FEDC
:100DB0000020A06107202061002010BD704770470F
:100DC00070B590F83C20012A26D0012480F83C40E0
:100DD000022280F83D2003685A689D6822F0700660
:100DE0000A6832435A600D4B02689A4208D0B2F149
:100DF000804F05D00A4B9A4202D00A4B9A4204D146
:100E0000496825F080031943916080F83D40002136
:100E100080F83C10084670BD022070BD002C0140D7
:100E2000000400400008004010B5040003D094F80E
:100E30003D0010B107E0012010BD002084F83C0007
:100E4000204600F01FF8022084F83D00211D206894
:100E500000F06AFC012084F8460084F83E0084F823
:100E60003F0084F8400084F8410084F8420084F890
:100E7000430084F8440084F8450084F83D000020D5
:100E800010BD000008B5154A0168154891420ED101
:100E9000C16941F00201C161C069002200F0020095
:100EA000009006211D20FFF7F7FC1D2010E00D4AE1
:100EB000914211D1C16941F00401C161C0690022B0
:100EC00000F00400009005211E20FFF7E5FC1E2025
:100ED000BDE80840FFF7D2BC08BD00000004004098
:100EE000001002400008004090F83D10012901D098
:100EF00001207047022180F83D100168CA6842F065
:100F00000102CA6000680B49884208D0B0F1804FE6
:100F100005D00949884202D00849884204D1816835
:100F200001F00701062903D0016841F001010160C9
:100F300000207047002C01400004004000080040E1
:100F40000168CA6822F00102CA6001680A6A41F2B7
:100F500011131A4207D10A6A9B101A4203D10A6878
:100F600022F001020A60012180F83D100020704744
:100F700070B5044690F83C000025012817D00126E2
:100F800084F83C60022084F83D002068826822F0EA
:100F9000770222F47F4282600868502838D00DDC46
:100FA00020284FD005DC90B3102811D14AE0022050
:100FB00070BD302846D040280AD13BE060282FD0B1
:100FC00070280DD0B0F5805F03D0B0F5005F12D06F
:100FD000012584F83D60002084F83C00284670BD5F
:100FE000CB68D1E90121206800F0E7FB2068816827
:100FF00041F0770109E0CB68D1E90121206800F0D8
:10100000DCFB2068816841F480418160E1E719E000
:10101000CA684968206800F085FC5021206806E015
:10102000CA684968206800F08EFC6021206800F0E2
:10103000CEFBCEE7CA684968206800F073FC402107
:101040002068F4E7226801461046F0E770472DE972
:10105000F04104460068C66805694FF00007A9071B
:1010600013D5B10711D5F91E016101202077206841
:1010700080698007204602D0FFF7E8FF04E000F017
:10108000A3F8204600F046F92777680716D57007C1
:1010900014D521686FF004000861022020772068D1
:1010A000806910F4407F204602D0FFF7CFFF04E0B4
:1010B00000F08AF8204600F02DF92777280715D58B
:1010C000300713D521686FF00800086104202077ED
:1010D0002068C0698007204602D0FFF7B7FF04E010
:1010E00000F072F8204600F015F92777E80616D5CB
:1010F000F00614D521686FF01000086108202077F1
:101100002068C06910F4407F204602D0FFF79EFFA0
:1011100004E000F059F8204600F0FCF82777E807D3
:1011200008D0F00706D021686FF001000861204662
:1011300000F040F9280608D5300606D521686FF082
:10114000800008612046FFF739FE680608D5700662
:1011500006D521686FF040000861204600F042F992
:10116000A8060AD5B00608D521686FF020000861EE
:101170002046BDE8F041FFF722BEBDE8F081000047
:1011800000B585B0002100910191029103910068A2
:10119000B0F1804F11D10A48816941F004018161A9
:1011A0008069694600F0040004900C200090022041
:1011B000019003900348FFF703FA05B000BD00005B
:1011C0000010024000080140704770B5044690F8D6
:1011D0003C0000260D4601280FD0012084F83C0079
:1011E0006AB1042A1DD0082A2FD00C2A3FD001262C
:1011F000002084F83C00304670BD022070BD20689D
:1012000000F0EEFA2068816941F0080181612068F0
:10121000816921F004018161206881692A69114393
:1012200011E0206800F004FB2068816941F400614E
:1012300081612068816921F4806181612068816910
:101240002A6941EA02218161D2E7206800F01CFB93
:101250002068C16941F00801C1612068C16921F0BD
:101260000401C1612068C1692A69114311E0206845
:1012700000F036FB2068C16941F40061C16120685B
:10128000C16921F48061C1612068C1692A6941EAAC
:101290000221C161ACE710B5040003D094F83D0011
:1012A00010B107E0012010BD002084F83C0020466A
:1012B00000F01EF8022084F83D00211D206800F097
:1012C00033FA012084F8460084F83E0084F83F0099
:1012D00084F8400084F8410084F8420084F8430018
:1012E00084F8440084F8450084F83D00002010BDD7
:1012F00008B50068B0F1804F08D10548C16941F0D8
:101300000101C161C06900F00100009008BD00004A
:10131000001002407047000010B50446022249B197
:1013200004290ED0082913D094F84100012816D0C2
:10133000012010BD94F83E000128F9D184F83E2028
:101340000FE094F83F000128F2D184F83F2008E034
:1013500094F840000128EBD184F8402001E084F8A3
:1013600041200122206800F01BFA0F4920688842C2
:1013700003D1426C42F4004242642068884208D0A3
:10138000B0F1804F05D00949884202D0084988420F
:1013900004D1816801F00701062903D0016841F0FA
:1013A00001010160002010BD002C0140000400403C
:1013B0000008004010B5044600680749884201D182
:1013C00000F0E2FA05492068884203D10448018808
:1013D000491C018010BD00000004004000080040CE
:1013E000040000207047FEE72DE9F04186B000249C
:1013F0002D480094019402940394816941F01001F6
:101400008161816901F010010491816941F020013D
:101410008161816901F020010491816941F0040139
:101420008161816901F004010491816941F0080141
:1014300081618069DFF8748000F008000490002268
:1014400033214046FFF7B1F9194F002202213846F7
:10145000FFF7ABF9332001250226CDE90005CDE9E0
:10146000024669464046FFF7ABF80320CDE902404B
:10147000CDE9006569463846FFF7A2F84FF474409D
:10148000CDE90004694638460294FFF799F84FF415
:10149000F050CDE90004694640460294FFF790F809
:1014A00006B0BDE8F08100000010024000080140D5
:1014B000000C014010B58AB0002407941C21684636
:1014C0000894FEF7CDFE1A484FF080410160472195
:1014D000C0E9011440F2E731C0E903148461FFF769
:1014E000DAFE08B1FEF7C5FF079407A91048089473
:1014F000FFF766FC08B1FEF7BCFF6020CDE90004F1
:101500000294082269460A480494FFF75EFE08B177
:10151000FEF7AFFF0C2269460548FFF756FE08B1FB
:10152000FEF7A7FF0248FFF72BFE0AB010BD000030
:101530007000002010B586B0002418480094019473
:1015400002940394049414490594016041F61F41E8
:10155000C0E9011440F2F311C0E903148021816154
:10156000FFF762FC08B1FEF784FF4FF48050009053
:1015700069460A48FFF7FCFC08B1FEF77AFF0494BD
:1015800004A906480594FFF71BFC002801D0FEF7CC
:1015900070FF06B010BD000000040040B80000203D
:1015A00010B586B000241748009401940294039467
:1015B00004941349059401604721C0E9011440F2E5
:1015C000E731C0E9031480218161FFF72DFC08B1E8
:1015D000FEF74FFF4FF48050009069460948FFF72F
:1015E000C7FC08B1FEF745FF049404A9054805941B
:1015F000FFF7E6FB002801D0FEF73BFF06B010BD69
:101600000008004000010020FEE7FEE770B500EB97
:1016100080000D4D400004B2B5F90000201A00F022
:1016200069FCA96800F0C6FC0646204600F062FC92
:10163000696800F0BFFC314600F010FB2C8000F020
:101640003DFC00B270BD00000C0000200A480021E3
:10165000027802F0010341EAC30102F0020341EA09
:101660004303022101EA520110091943C2F3C002E7
:10167000114300F0AFB900001800002010B5082198
:101680000448FFF749FEBDE810400C210148FFF770
:1016900043BE00007000002010B5FFF791F800F085
:1016A0006BFA012803D0BDE8104000F04FBA10BD1E
:1016B00030B58FB028216846FEF7D2FD14210AA864
:1016C000FEF7CEFD01210804CDE9001000240294AC
:1016D00002250491CDE907504FF4E01009906846C7
:1016E000FFF7C8F908B172B6FEE70F20CDE90A0589
:1016F0004FF48060CDE90C4002210AA80E94FFF758
:10170000FDF8002801D072B6FEE70FB030BD70477B
:101710000148FFF79CBC0000B80000200148FFF71B
:1017200096BC000000010020F0B50268194B1A4C6D
:101730001A4D4FF08047984205D0B84203D0A042DE
:1017400001D0A84203D122F070064A683243984281
:1017500005D0B84203D0A04201D0A84203D122F460
:101760004074CA6822434C6922F08002224302601E
:101770008A68C2620A688262984201D1096901637B
:10178000012141610169C90703D0016921F001010B
:101790000161F0BD002C0140000400400008004041
:1017A00010B501F01F030121046A99408C430462C3
:1017B000016A9A401143016210BD10B5846842EA83
:1017C000032224F47F440A432243826010BD8268CE
:1017D00022F070020A4342F0070181607047000066
:1017E00030B5036A026A22F001020262426884692B
:1017F00024F073050C682C4323F002058B682B43FF
:101800000A4DA8420BD123F00805CB6822F44072A0
:101810002B434D6923F0040315438A692A43426030
:10182000846149684163036230BD0000002C0140BF
:1018300030B5026A036A23F01003036243688469C7
:101840000D6824F4E64444EA05248D6822F0200261
:1018500042EA05120B4DA8420ED1CD6822F080025B
:1018600042EA05124D6923F4406343EA85038D691A
:1018700022F0400243EA8503436084614968816342
:10188000026230BD002C014030B5036A026A22F4C6
:10189000807202624268C46923F4007324F0730505
:1018A0000C682C438D6843EA05230C4DA8420ED1E9
:1018B000CD6823F4006343EA05234D6922F44052C6
:1018C00042EA05128D6923F4806342EA0512426000
:1018D000C4614968C163036230BD0000002C01404F
:1018E00030B5046A026A22F4805202624268C36917
:1018F0000D6823F4E64343EA05238D6824F400547D
:1019000044EA0534064DA84204D14D6922F48042D0
:1019100042EA85124260C36149680164046230BDD5
:10192000002C014010B5036A046A24F0010404622B
:10193000846924F0F00444EA021423F00A020A4302
:101940008461026210BD10B5036A046A24F01004B9
:101950000462846923F0A00324F4704444EA023250
:1019600043EA01118261016210BD000010B5FFF76A
:1019700085FE4FF4FA70FEF7D7FCBDE81040014831
:10198000FFF7B2BAB800002010B5FEF7D1FD064946
:101990000870FFF75BFEFEF77FFD04490860BDE8B5
:1019A0001040FEF7DDBC00001800002008000020F9
:1019B000FEE70907090E002804DB00F1E02080F8AB
:1019C0000014704700F00F0000F1E02080F8141DB3
:1019D0007047000030B5214A012500241378814268
:1019E00012DDD4804FEA040000F1040123FA01F172
:1019F000C90704D0401C00B20428F5DB27E005FA33
:101A000000F15180958022E012DAD4805FF000006E
:101A1000C0F1030123FA01F1C90704D0401C00B250
:101A20000428F5DB13E085405580022090800EE00D
:101A30000321FF2B01D0D48007E0D088401C80B266
:101A4000D0800A2801D9948000E091805480044815
:101A500004490068884200DA948030BD18000020F4
:101A60000800002000002041FEF7B2FEFFF720FE34
:101A7000FFF7BAFCFFF71EFDFFF792FDFFF75AFDD7
:101A8000FFF774FFFEE700000648416B096829B1C3
:101A9000416BC968C9684968816270474FF0FF317E
:101AA000FAE7000024000020D0E9013201699A60C1
:101AB000D0E901235A604A68824201D182684A60B3
:101AC000002202610868401E08600868704742688A
:101AD0004A6093688B6093685960916008610168FF
:101AE000491C016070470000164810B5016B11B128
:101AF0000121C16110BD0021C1610169124A01E0EB
:101B0000B9B1491E01EB810352F82330002BF7D005
:101B100001EB810302EB830202F1080453685B6866
:101B20005360A34201D15B685360DA6802600161CF
:101B300010BD502080F31188BFF34F8FBFF36F8F1C
:101B4000FEE70000240000204801002010B55020CE
:101B500080F31188BFF34F8FBFF36F8F00F01AF837
:101B600018B104494FF080500860002080F31188BC
:101B700010BD000004ED00E00548416919B1006B9B
:101B800018B1002070470120704702207047000004
:101B9000240000202DE9F0412E4C0027206B28B1B5
:101BA000A069401CA0613846BDE8F081E668761C5B
:101BB000E66013D1606B006838B1502080F3118863
:101BC000BFF34F8FBFF36F8FFEE7606BA16B616355
:101BD000A063206A401C2062FFF756FFA06ADFF86E
:101BE0007880864209D3606B0068A0B1606BC068E2
:101BF000C5686868864211D2A0622068C06A00EB9E
:101C0000800158F82100012800D90127E069002847
:101C1000C9D00127C7E74FF0FF30EDE7281DFFF7D8
:101C200043FFA86A18B105F11800FFF73DFFE86A05
:101C30002169884200D9206100EB800108EB810016
:101C4000291DFFF744FFE86A2168C96A8842CAD3A0
:101C50000127C8E7240000204801002090EA010F76
:101C600048BF81F0004100F1AA82421A3CBF801AAD
:101C700089184FEAD0524FF07F4C1CEA410FA2EB7B
:101C8000D15318BF9CEA026F00F03B804FF0004C2C
:101C90004CEA00204CEA012121FA03FC10EB0C0C69
:101CA0001ED202F1FF325FEA1C2040EBC25038BF67
:101CB00070471CF07F0F4FEA400C18BFBCF17F4FFC
:101CC00038BF7047C3F12003994008BF20F00100DE
:101CD000BCF17F4F38BF7047A0F1C04000F031BA6F
:101CE0004FEA3C00000A40EBC25028BF1CF0FF0F37
:101CF0004FEA400CE6D018BFBCF17F4F38BF7047A9
:101D0000EAE79CEA026F05D010EA5C0F08BF00F01A
:101D10000040704710B500F0CEF900BF64FBBE3E36
:101D2000401058BFC0F14040491058BFC1F1404178
:101D30008142EFF3008070474FF47F0C1CEAD01211
:101D40001EBF1CEAD11392EA0C0F93EA0C0F00F0AD
:101D5000858090EA010F48BF42F4807240F4000C85
:101D600041F400002CF07F4120F07F4000B581421B
:101D7000A2EB03020FF2081CACEB504EC0F10000C6
:101D80009EF800E04FEA4E0E00FB0EFC38BF490003
:101D90004FEA2C1C02F5FA020CFB0EF34FEACE1EA2
:101DA0004FEA112C4FEAC1210EEB635E42EB224257
:101DB0000EFB0CFC4FEA1C5300FB03114FEA112CE5
:101DC0004FEA01310EFB0CFC4FEADC4C00FB0C111E
:101DD000C14228BF09184CEB03335DF804EB10EB4C
:101DE000410143EBC250B2F57C0F38BF704729D593
:101DF00012F0F00F1CBF00F1C04000F0004070472F
:101E0000008182838485868788898B8C8D8E8F91D3
:101E10009293959697999A9C9D9FA0A2A3A5A7A8F7
:101E2000AAACAEB0B2B3B5B7B9BCBEC0C2C5C7C923
:101E3000CCCED1D4D7D9DCDFE2E6E9ECF0F3F7FA87
:101E4000FE0000004FEA400C0CF1807CBCF17E4F9C
:101E500028BF7047B0F1C04000F073B990EA010F9D
:101E60000CEAD11348BF42F48072624538BF634523
:101E700007D213F47F0F16D080EA010000F0004073
:101E8000704710B500F017F9097EFC3E00F005B868
:101E900080EA010000F00040704780EA010000F095
:101EA000004000F04EB912F47F0F04BF02487047A3
:101EB00080EA010000F045B90000C07F41000B0E30
:101EC000D3F19E0208D950F400034FEA032323FA0A
:101ED00002F048BF4042704710B500F0ECF800BF78
:101EE00049922480002070476FF0004282EA20006F
:101EF0007047000010F0004148BF4042B0FA80F344
:101F000010FA03F2C3F19D030BD051EAC35101EB68
:101F10001220530638BF704700F1010008BF20F0BF
:101F200001007047B0FA80F310FA03F2C3F19D0389
:101F30000AD0D90501EB1220530638BF704700F1D3
:101F4000010008BF20F001007047000050EA010CBA
:101F500000F113801CF5000F58BFBCF5000F01D431
:101F60008842704707D710F5000F58BF11F5000FD2
:101F700015D488427047894270471CF5000F04D57C
:101F8000BCF5000FF7D5814270474FF0807C1CEB09
:101F9000400F38BF1CEB410F01D28142704710B592
:101FA00000F089F8922449004FF000504FF0805122
:101FB000FFF7B6BE4FF47F0C1CEAD0121EBF1CEA1E
:101FC000D11392EA0C0F93EA0C0F00F0478090EACD
:101FD000010F48BF42F480724FF0004C4CEA0020E1
:101FE0004CEA012102EB0302A0FB0113A2F500025F
:101FF000002918BF43F001035B0028BF4FEA3303F9
:1020000042EB22425FEA132C4CEBC2502EBFBCEBDA
:10201000436FB2F57C0F70474FEA036CBCF1004F81
:1020200008BF20F00100B2F57C0F38BF70470BD518
:1020300082F0FF0212F5803FC8BF704700F1C04038
:10204000D8BF00F00040704700F5000C5FEA4C0C70
:1020500048BF7047B0F1C04000F073B890EA010F7C
:102060000CEAD11348BF42F48072624538BF634521
:1020700004D280EA010000F00040704710B500F083
:102080001AF800BF8900013E00F007B800F009B857
:102090005FEA410C5FEA1C6C08D080EA010000F0A6
:1020A00050B85FEA400C5FEA1C6CF6D14FF000407C
:1020B000A0F5800070470EF1020E2EF0030E5EF8C0
:1020C000044B244204D44FEA4102B2F17F4F11D8AD
:1020D0004FEA4003B3F17F4F0CD80ED14FEAD07CCA
:1020E000B2F17F4F0CEB4C0C0CF1020C08BF4CEB27
:1020F000D17C04E04FF0080C01E04FEAD17C0CEBFE
:102100004C0324FA03F404F00704B4F1040C06D2DF
:102110000EEB840CBDE810404CF0010C6047DFE88A
:102120000CF0070802024FF00040A0F5800010BD3F
:102130000846420018BFD2F1807288BF00F000400C
:1021400010BDFF2141EAD050C005704751EA000C94
:1021500000F113801CF5000F58BFBCF5000F01D42F
:102160008142704707D711F5000F58BF10F5000FD7
:1021700015D481427047894270471CF5000F04D581
:10218000BCF5000FF7D5884270474FF0807C1CEB00
:10219000410F38BF1CEB400F01D28842704780EAE4
:1021A000010081EA000180EA0100FFF7F8BE0000AB
:1021B00090EA010F48BF81F000413FF556AD421A49
:1021C00004D882F00042A0EB020011444FEAD05242
:1021D0004FF07F4C1CEA410FA2EBD15318BF9CEA91
:1021E000026F4AD04FF0004C4CEA00204CEA01212B
:1021F00021FA03FCB0EB0C0C0FD412F0FE0F36D01A
:102200005FEA4C001DD5001240EBC25038BF70474A
:102210001CF03F0F18BF70470BE0A2F101025FEA0C
:102220001C2040EBC25038BF70471CF07F0F18BF16
:102230007047C3F12003994014BF401E20F00100F5
:10224000704780084FEA122308BF7047B0FA80FC3D
:10225000A2EB0C02CCF1280C60FA0CF093EA122FDE
:1022600004BF00EBC25070474FEAC3707047130AB7
:102270005FEADC1008BF7047F6E79CEA026F04D003
:1022800010EA5C0F08BF0020704710B5FFF713FF7E
:1022900040DFF63E81F00040704700000000000083
:1022A00000000102030406070809010202030405F5
:1022B000060708090A0B0C0D0E0F1010DC2200088F
:1022C0000000002070000000280100084C230008D6
:1022D00070000020000C000044010008E80300002A
:1022E000000000000000000000000000000070423C
:1022F0000000F0410000000000000000F4010000B8
:1023000000000000000000000000000000000000CD
:1023100000000000000000000000000000000000BD
:1023200000000000000000000000000000000000AD
:1023300000000000000000000000000000127A0011
:0C23400001000000100000000000000080
:04000005080000ED02
:00000001FF
