:020000040800F2
:100000000845002021020008431A00086316000872
:10001000411A00086B040008FD1D000800000000E4
:10002000000000000000000000000000890100083E
:100030008505000800000000CD010008691A0008CD
:100040003B0200083B0200083B0200083B0200089C
:100050003B0200083B0200083B0200083B0200088C
:100060003B0200083B0200083B0200083B0200087C
:100070003B0200083B0200083B0200083B0200086C
:100080003B0200083B0200083B0200083B0200085C
:100090003B0200083B0200083B0200083B0200084C
:1000A0003B0200083B0200083B0200083B0200083C
:1000B0003B020008E11A0008ED1A00083B020008A4
:1000C0003B0200083B0200083B0200083B0200081C
:1000D0003B0200083B0200083B0200083B0200080C
:1000E0003B0200083B0200083B02000800F002F857
:1000F00000F03AF80AA090E8000C82448344AAF188
:100100000107DA4501D100F02FF8AFF2090EBAE885
:100110000F0013F0010F18BFFB1A43F0010318473B
:100120003C3600005C360000103A24BF78C878C125
:10013000FAD8520724BF30C830C144BF04680C60ED
:10014000704700000023002400250026103A28BF35
:1001500078C1FBD8520728BF30C148BF0B60704739
:100160001FB51FBD10B510BD00F045F91146FFF7D2
:10017000F7FF01F055FE00F063F903B4FFF7F2FF5B
:1001800003BC00F06BF90000224B19680868B0E866
:10019000F00F80F30988BFF36F8F4FF0000080F3FA
:1001A00011884EF00D0E70470000000006480068F0
:1001B000006880F3088862B661B6BFF34F8FBFF363
:1001C0006F8F00DF00BF00BF08ED00E0EFF3098094
:1001D000BFF36F8F0F4B1A6820E9F00F106008B55E
:1001E0004FF0500080F31188BFF34F8FBFF36F8F34
:1001F00002F07AFD4FF0000080F31188BDE808405E
:1002000019680868B0E8F00F80F30988BFF36F8FB2
:10021000704700BF6C000020EFF3058070470000BE
:100220000948804709480047FEE7FEE7FEE7FEE78A
:10023000FEE7FEE7FEE7FEE7FEE7FEE704480549C6
:10024000054A064B70470000DF1A0008ED00000861
:10025000083F0020084500200841002008410020F8
:10026000032A40F2308010F0030C00F0158011F8E2
:10027000013BBCF1020F624498BF11F801CB00F8BA
:10028000013B38BF11F8013BA2F1040298BF00F80E
:1002900001CB38BF00F8013B11F0030300F0798077
:1002A000083AC0F0088051F8043B083A51F804CBF2
:1002B000A0E80810F5E7121D5CBF51F8043B40F8B8
:1002C000043BAFF30080D20724BF11F8013B11F8C3
:1002D00001CB48BF11F8012B24BF00F8013B00F807
:1002E00001CB48BF00F8012B704702F0FF0343EA3F
:1002F000032242EA024200F002B84FF00002042951
:10030000C0F0128010F0030C00F01B80CCF1040C44
:10031000BCF1020F18BF00F8012BA8BF20F8022B78
:10032000A1EB0C0100F00DB85FEAC17C24BF00F81E
:10033000012B00F8012B48BF00F8012B70474FF04C
:10034000000200B5134694469646203922BFA0E825
:100350000C50A0E80C50B1F12001BFF4F7AF090731
:1003600028BFA0E80C5048BF0CC05DF804EB890022
:1003700028BF40F8042B08BF704748BF20F8022B65
:1003800011F0804F18BF00F8012B7047704770477D
:10039000704710B5203AC0F00B80B1E81850203AF1
:1003A000A0E81850B1E81850A0E81850BFF4F5AF15
:1003B0005FEA027C24BFB1E81850A0E8185044BF9F
:1003C00018C918C0BDE810405FEA827C24BF51F80C
:1003D000043B40F8043B08BF7047D20728BF31F800
:1003E000023B48BF11F8012B28BF20F8023B48BF51
:1003F00000F8012B7047754600F02CF8AE4605005A
:100400006946534620F00700854618B020B5FFF72F
:1004100015FFBDE820404FF000064FF000074FF0F9
:1004200000084FF0000B21F00701AC46ACE8C00912
:10043000ACE8C009ACE8C009ACE8C0098D4670471B
:1004400010B50446AFF300802046BDE81040FFF72A
:1004500094BE000000487047A83E002001491820C3
:10046000ABBEFEE7260002007047FEE710B504466B
:1004700000F028F82046BDE8104000F053B810B551
:100480000C4600F01FF82046BDE8104000F04AB8C6
:1004900030B582780A4C002104EB81039D78AA4292
:1004A00007D1C578DB789D4203D10846112904D2D3
:1004B00030BD491CC9B21129EED36FF0010030BD27
:1004C0002700002070B51649134D144E0C68002803
:1004D0000FDDA04200DC044601221021284600F076
:1004E00045F900222021284600F040F93068C46315
:1004F00070BD6442A04200DB044600221021284661
:1005000000F034F901222021284600F02FF931684B
:100510006042C86370BD000000080140FC0000207C
:100520000400002070B51649134D144E0C680028C5
:100530000FDDA04200DC044601221146284600F0EF
:1005400015F900220221284600F010F930680464F1
:1005500070BD6442A04200DB04460022012128460F
:1005600000F004F901220221284600F0FFF831686A
:100570006042086470BD000000080140FC000020DB
:1005800004000020704772B6FEE700002DE9F84F26
:10059000DFF8B8910024A9F1040B23460F2709F1D5
:1005A000040AABF1040EC9E00125A5402A40AA4285
:1005B0007DD1674ED1F804C0ACEB0608B44532D00B
:1005C00014DCBCF1030F3AD009DCBCF1000F2AD0D7
:1005D000BCF1010F1CD0BCF1020F31D11DE0BCF108
:1005E000110F17D0BCF1120F2AD119E0B8F5881FEE
:1005F00019D006DCB8F5803F15D0B8F5801F1FD1A3
:1006000011E0B8F5001F0ED0B8F5041F18D10AE0AC
:10061000CB6815E0CB681B1D12E0CB6808330FE0F8
:10062000CB680C330CE08B682BB1012B4FF0080327
:1006300003D0456104E0042302E0056100E00023EB
:10064000FF2A01D8064601E000F104064FEA8405BE
:1006500001D9A5F12005D6F8008007FA05FC28EAA3
:100660000C0803FA05F548EA0508C6F800804D684D
:10067000ED0062D5374DAE6946F00106AE61AD6959
:1006800024F0030605F001050095334D06EB050C3B
:10069000DCF80850A607360F07FA06F825EA080521
:1006A000DFF8B880404503D14FF0000817E044E080
:1006B000DFF8AC80404502D14FF001080FE0DFF8D1
:1006C000A480404502D14FF0020808E0DFF898808E
:1006D000404502D14FF0030801E04FF0040808FA4A
:1006E00006F848EA0508CCF808804D68D9F800609B
:1006F000ED024D4601D5164300E096432E604D684D
:10070000DAF80060AD02554601D5164300E0964385
:100710002E604D68DBF80060AD035D4601D51643E1
:1007200000E096432E604D68DEF80060ED037546EC
:1007300001D5164300E096432E60641C0D682A46DE
:10074000E5407FF431AFBDE8F88F000008040140B8
:10075000000011100010024000000140000801409C
:10076000000C014000100140001401400AB1016179
:1007700070470904FBE700000148806870470000EB
:10078000F0000020024881680278114481607047BF
:10079000F0000020074810B5016841F01001016029
:1007A000032000F07BF80F2000F006F800F024F89A
:1007B000002010BD0020024070B50D4D04464FF4DE
:1007C0007A712878B1FBF0F00A490968B1FBF0F0C2
:1007D00000F0C2FA48B9102C07D200222146501E60
:1007E00000F03CF800206C6070BD012070BD00007E
:1007F000F0000020EC0000200F4808B5816941F0AE
:1008000001018161816901F001010091C16941F03B
:100810008051C161C069002200F0805000900F211A
:10082000901E00F01BF80548416821F0E06141F09E
:100830000071416008BD000000100240000001404E
:10084000002809DB00F01F020121914040098000CF
:1008500000F1E020C0F8001170470000F0B40E4B2A
:100860001B680C46C3F30223C3F10705042D00D90E
:100870000425191D072901D2002300E0DB1E0126F3
:1008800006FA05F1491E214099409E40761E164009
:100890003143F0BC01F0B3BA0CED00E0064900F0C2
:1008A000070208684FF6FF03184040EA0220034A97
:1008B00010430860704700000CED00E00000FA05EE
:1008C0002DE9F0470F46050061D0434E306800F037
:1008D0000700B84209D2306820F007003843306082
:1008E000306800F00700B84251D128683B4C8107BE
:1008F00012D5400703D5606840F4E0606060287856
:10090000000703D5606840F4605060606068A968C3
:1009100020F0F000084360602878C00728D068689D
:10092000012810D02168022810D0890700292EDA6A
:10093000616821F0030101436160FFF71DFF8046FC
:1009400041F288390DE021688903EFE78901EDE77D
:10095000FFF712FFA0EB0801494502D90320BDE8CB
:10096000F0876068696800F00C00B0EB810FEFD190
:10097000306800F00700B8420BD9306820F007005B
:1009800038433060306800F00700B84201D00120E1
:10099000E5E72878400705D56068E96820F4E0605D
:1009A000084360602878000706D56068296920F44C
:1009B000605040EAC100606000F018F86168084AC1
:1009C000C1F30311515CC84006490860064800683D
:1009D000FFF7F2FE0020C2E70020024000100240B4
:1009E0002C370008EC000020F40000200E4A51686B
:1009F0000E4801F00C03042B11D0082B0FD10C482A
:100A0000C1F38343C903C05C0AD55168084AC1F3E6
:100A10004041921E515C054A5043B0FBF1F07047D3
:100A200004494843704700000010024000127A0059
:100A30003E37000800093D002DE9F84F040070D052
:100A40002078C04DC00749D06868C0F381000128F4
:100A500007D06868C0F38100022809D16868C00324
:100A600006D52868800339D560680028E7D035E0CE
:100A70006068B0F5803F0BD010B1B0F5A02F11D059
:100A8000286820F480302860286820F4802002E064
:100A9000286840F480302860606890B1FFF76CFEF1
:100AA00006460AE0286840F480202860F0E700BF8E
:100AB000FFF762FE801B642873D828688003F7D58F
:100AC0000CE0FFF759FE064605E000BFFFF754FEB5
:100AD000801B6428F0D828688003F7D420789A4EC9
:100AE00080074FF001094FF0000839D5686810F011
:100AF0000C0F07D06868C0F38100022809D168682C
:100B0000C00306D42868800714D52069012808D1BD
:100B100010E02069B0B1C6F80090FFF72DFE07463F
:100B200005E00AE1FFF728FEC01B0228C4D82868A8
:100B30008007F7D52868616920F0F80040EAC10015
:100B400028600DE0C6F80080FFF716FE074604E0B7
:100B5000FFF712FEC01B022823D828688007F7D4AD
:100B6000207800072CD57948A169D9B1C0F8009048
:100B7000FFF702FE074604E0FFF7FEFDC01B022858
:100B80000FD8686A8007F7D571484FF4FA510068AA
:100B9000B0FBF1F0009000BF0098411E0091FAD226
:100BA0000EE080E0C0F80080FFF7E6FD074604E0B5
:100BB000FFF7E2FDC01B022875D8686A8007F7D4EA
:100BC0002078400760D5E8690027C00008D4E869AC
:100BD00040F08050E861E869012700F08050009003
:100BE0005C480168C90513D40168834641F48071EB
:100BF0000160FFF7C1FD824606E000BFFFF7BCFDC4
:100C0000A0EB0A0064284ED8DBF80000C005F5D53B
:100C1000E06801280AD008B1052813D0286A20F01E
:100C200001002862286A20F0040002E0286A40F0EF
:100C300001002862E06841F2883B98B1FFF79CFD13
:100C400082460BE0286A40F004002862EEE700BF0D
:100C5000FFF792FDA0EB0A0159455AD8286A800790
:100C6000F6D50CE0FFF788FD824605E0FFF784FD2E
:100C7000A0EB0A0159454CD8286A8007F6D41FB169
:100C8000E86920F08050E861E06988B36968C1F3E1
:100C90008101022944D00228C6F8608004D0FFF701
:100CA0006BFD044638E034E0FFF766FD074604E0DC
:100CB000FFF762FDC01B02282BD828688001F7D4FB
:100CC000206AB0F5803F05D16868A16820F4003043
:100CD00008436860D4E908010843696821F4741185
:100CE00008436860C6F86090FFF746FD044606E0DA
:100CF00025E000BFFFF740FD001B022809D8286847
:100D00008001F7D51BE000BFFFF736FD001B02286E
:100D100002D90320BDE8F88F28688001F4D40EE0E2
:100D20000128F7D06868226A00F48031914204D12A
:100D3000616A00F47010884201D00120EAE70020C7
:100D4000E8E70000001002400000424280044242F6
:100D5000EC0000200070004010B5401EB0F1807F14
:100D600001D3012010BD4FF0E02460610F21601716
:100D700001F045F80020A06107202061002010BD8F
:100D80007047704770B590F83C20012A26D00124A6
:100D900080F83C40022280F83D2003685A689D6834
:100DA00022F070060A6832435A600D4B02689A427C
:100DB00008D0B2F1804F05D00A4B9A4202D00A4BBC
:100DC0009A4204D1496825F080031943916080F864
:100DD0003D40002180F83C10084670BD022070BDE7
:100DE000002C0140000400400008004010B5040041
:100DF00003D094F83D0010B107E0012010BD0020A1
:100E000084F83C00204600F01FF8022084F83D00E2
:100E1000211D206800F070FE012084F8460084F84F
:100E20003E0084F83F0084F8400084F8410084F8D4
:100E3000420084F8430084F8440084F8450084F8B4
:100E40003D00002010BD000000B585B000210091DC
:100E50000191029103911B4A01681B4891421CD1E8
:100E6000C16941F00201C161C16901F0020104914F
:100E7000816941F0040181618069694600F00400E4
:100E80000490802000901148FFF780FB002206218B
:100E90001D20FFF7E3FC1D2010E00D4A91420FD109
:100EA000C16941F00401C161C069002200F0040081
:100EB000049005211E20FFF7D1FC1E20FFF7C0FC87
:100EC00005B000BD000400400010024000080140D1
:100ED0000008004090F83D10012901D00120704722
:100EE000022180F83D100168CA6842F00102CA6020
:100EF00000680B49884208D0B0F1804F05D00949FD
:100F0000884202D00849884204D1816801F0070173
:100F1000062903D0016841F00101016000207047FB
:100F2000002C0140000400400008004070B5044659
:100F300090F83C000025012817D0012684F83C6079
:100F4000022084F83D002068826822F0770222F4B3
:100F50007F4282600868502838D00DDC20284FD0AE
:100F600005DC90B3102811D14AE0022070BD302872
:100F700046D040280AD13BE060282FD070280DD001
:100F8000B0F5805F03D0B0F5005F12D0012584F882
:100F90003D60002084F83C00284670BDCB68D1E954
:100FA0000121206800F0F1FD2068816841F077019F
:100FB00009E0CB68D1E90121206800F0E6FD206856
:100FC000816841F480418160E1E719E0CA684968BD
:100FD000206800F08FFE5021206806E0CA6849684A
:100FE000206800F0C5FE6021206800F0D8FDCEE743
:100FF000CA684968206800F07DFE40212068F4E757
:10100000226801461046F0E710B5124A0168914285
:101010001ED1007F02281BD10F480178002917D16B
:1010200041880022B1F5806F08D20A4B38331B6823
:101030000A4C24F81130491C418000E042800848E5
:101040000068426203482030016881F0200101609D
:1010500010BD0000000400400A000020D401002060
:10106000440100202DE9F041054690F83C0000269F
:101070000C46012810D0012085F83C0072B1042AEA
:101080001CD0082A2CD00C2A50D00126002085F82C
:101090003C003046BDE8F0810220FBE7D4E90012B5
:1010A000E368286800F038FE2868816921F00C01A7
:1010B000816128688169A26811430FE0D4E90012B8
:1010C000E368286800F066FE2868816921F44061C1
:1010D000816128688169A26841EA02218161D5E7BE
:1010E0002868D4E9002C277B036A016A21F4807107
:1010F0000162C16923F4007321F0030141EA0C018C
:1011000021F0F00C39074FF400774CEA116107EA3F
:1011100002221A43C16102622868C16921F00C01F0
:10112000C1612868C169A26811432BE02868D4E92D
:101130000021E768036AD0F820C02CF4805CC0F876
:1011400020C0D0F81CC023F400532CF4407C4CEA9F
:10115000012121F4704C4FF6FF7101EA07314FF481
:10116000005741EA0C0107EA02321A43C1610262E8
:101170002868C16921F44061C1612868C169A26819
:1011800041EA0221C16181E710B5040003D094F85F
:101190003D0010B107E0012010BD002084F83C00A4
:1011A000204600F01EF8022084F83D00211D206832
:1011B00000F0A2FC012084F8460084F83E0084F888
:1011C0003F0084F8400084F8410084F8420084F82D
:1011D000430084F8440084F8450084F83D00002072
:1011E00010BD704730B50446002551B104290DD01B
:1011F000082910D094F8410094F84520012811D115
:101200000EE094F83E0094F84220F7E794F83F008F
:1012100094F84320F2E794F8400094F84420EDE776
:10122000012A01D0012030BD022059B1042912D079
:10123000082919D084F8410084F845000C2938D0D9
:10124000012534E084F83E0084F842002068C2683A
:1012500042F0020210E084F83F0084F84300206866
:10126000C26842F0040207E084F8400084F84400B9
:101270002068C26842F00802C2600122206800F0C3
:1012800077FC0E492068884208D0B0F1804F05D025
:101290000B49884202D00B49884204D1816801F091
:1012A0000701062903D0016841F0010101602846C9
:1012B00030BD2068C26842F01002DDE7002C01401A
:1012C00000040040000800402DE9F0410446006899
:1012D000C66805694FF00007A90713D5B10711D5F6
:1012E000F91E01610120207720688069800720466F
:1012F00002D0FFF789FE04E000F0A2F8204600F0DB
:1013000045F92777680716D5700714D521686FF05F
:1013100004000861022020772068806910F4407F73
:10132000204602D0FFF770FE04E000F089F8204666
:1013300000F02CF92777280715D5300713D5216839
:101340006FF008000861042020772068C0698007DA
:10135000204602D0FFF758FE04E000F071F8204666
:1013600000F014F92777E80616D5F00614D52168A1
:101370006FF010000861082020772068C06910F421
:10138000407F204602D0FFF73FFE04E000F058F80F
:10139000204600F0FBF82777E80708D0F00706D0D2
:1013A00021686FF001000861204600F03FF928062F
:1013B00008D5300606D521686FF080000861204608
:1013C000FFF7DEFC680608D5700606D521686FF0C9
:1013D00040000861204600F043F9A8060AD5B0068F
:1013E00008D521686FF0200008612046BDE8F04173
:1013F000FFF7C7BCBDE8F08100B585B000210091C2
:101400000191029103910068B0F1804F11D10A4817
:10141000816941F0040181618069694600F004003E
:1014200004900C2000900220019003900348FFF7E5
:10143000ADF805B000BD00000010024000080140FA
:10144000704770B5044690F83C0000260D46012810
:101450000FD0012084F83C006AB1042A1DD0082A6C
:101460002FD00C2A3FD00126002084F83C003046C3
:1014700070BD022070BD206800F09AFB2068816971
:1014800041F0080181612068816921F004018161D6
:10149000206881692A69114311E0206800F0B0FBDF
:1014A0002068816941F4006181612068816921F4CB
:1014B00080618161206881692A6941EA0221816134
:1014C000D2E7206800F0C8FB2068C16941F008013C
:1014D000C1612068C16921F00401C1612068C1694E
:1014E0002A69114311E0206800F0E2FB2068C1691D
:1014F00041F40061C1612068C16921F48061C1616A
:101500002068C1692A6941EA0221C161ACE710B5CE
:10151000040003D094F83D0010B107E0012010BD95
:10152000002084F83C00204600F01EF8022084F8D9
:101530003D00211D206800F0DFFA012084F84600FC
:1015400084F83E0084F83F0084F8400084F84100AD
:1015500084F8420084F8430084F8440084F845008D
:1015600084F83D00002010BD08B50068B0F1804F40
:1015700008D10548C16941F00101C161C06900F0AD
:101580000100009008BD00000010024070470000FC
:1015900010B50446022249B104290ED0082913D0FF
:1015A00094F84100012816D0012010BD94F83E00A7
:1015B0000128F9D184F83E200FE094F83F0001287B
:1015C000F2D184F83F2008E094F840000128EBD1E4
:1015D00084F8402001E084F841200122206800F0D6
:1015E000C7FA0F492068884203D1426C42F4004296
:1015F00042642068884208D0B0F1804F05D0094984
:10160000884202D00849884204D1816801F007016C
:10161000062903D0016841F001010160002010BDDE
:10162000002C014000040040000800400068084908
:10163000884203D1074A1188491C11800649884213
:1016400004D106490120087000F00CB87047000072
:101650000008004008000020000400400A000020AC
:101660007047FEE72DE9F05F4D4C2078E0B14D4D1D
:101670004FF47A721346688842F2283100F0B4FBC6
:10168000002704F1040890B14FF4FA72A946A88823
:10169000134641F2941100F0A7FB40B103254FF42B
:1016A0000C7A4FF0010B40E00120BDE8F09F0226CC
:1016B00064E000BFC82339F815001A46514600F00F
:1016C00093FBE8B36D1CADB2C82339F815001A4678
:1016D000514600F089FB68B1B8F8061008EBD1005C
:1016E00001F0070C43780BFA0CF18B434370B8F808
:1016F000060015E0C82339F815001A4640F29A6131
:1017000000F072FBB0B3B8F8060008EBD00200F0AE
:10171000070C53780BFA0CF003435370B8F806002B
:10172000401C6D1CA8F80600ADB26088401E8542C2
:10173000C0DB4546681CFEF7ABFE11281EDA00E050
:101740001BE0681CFEF7A4FE002817DB681CFEF7F0
:101750009FFE13490C31085C60704FF40061114822
:10176000FEF7CBFDC4F805706772EF8067802770C5
:1017700000209AE7FFE7042600E003264FF400610B
:101780000848FEF7BAFDC4F805706772A8F806703D
:10179000678027700448FFF79DFB304685E700000F
:1017A0000A000020D4010020440100201CB5094A91
:1017B0000021094800F0ACFB08494FF4FA720860B8
:1017C00000210220CDE900010B4605A1074801F0E8
:1017D00085FD1CBD08370008451A000800000020E0
:1017E000537461727452756E00000000992A0008EB
:1017F0002DE9F04186B000242D4800940194029414
:101800000394816941F010018161816901F0100147
:101810000491816941F020018161816901F0200119
:101820000491816941F004018161816901F0040141
:101830000491816941F0080181618069DFF8748059
:1018400000F008000490002233214046FEF78EFF8E
:10185000194F002202213846FEF788FF3320012568
:101860000226CDE90005CDE9024669464046FEF76D
:101870008DFE0320CDE90240CDE90065694638467A
:10188000FEF784FE4FF47440CDE900046946384603
:101890000294FEF77BFE4FF4F050CDE90004694658
:1018A00040460294FEF772FE06B0BDE8F0810000EB
:1018B0000010024000080140000C014010B58AB041
:1018C000002407941C2168460894FEF738FD1A4846
:1018D0004FF0804101604721C0E9011440F2E73137
:1018E000C0E903148461FFF712FE08B1FEF74BFE56
:1018F000079407A910480894FFF744FA08B1FEF7C7
:1019000042FE6020CDE900040294082269460A489C
:101910000494FFF796FD08B1FEF735FE0C226946E8
:101920000548FFF78EFD08B1FEF72DFE0248FFF7D0
:1019300063FD0AB010BD0000FC00002010B58AB0A5
:101940000024244804940594069407940894099468
:101950000094019402941E49039401604721C0E958
:10196000011444F61F61C0E9031480218161FFF76F
:101970003DFA08B1FEF707FE4FF48050049004A929
:101980001448FFF7D3FA08B1FEF7FDFD1148FFF741
:10199000FBFB08B1FEF7F7FD089408A90D48099470
:1019A000FFF7F0F908B1FEF7EEFD022000900120EC
:1019B000CDE9010408200390042269460548FFF799
:1019C00051FB002801D0FEF7DEFD0AB010BD00007B
:1019D000000400404401002010B586B000241748E0
:1019E00000940194029403940494134905940160B3
:1019F0004721C0E901146421C0E9031480218161F9
:101A0000FFF7F4F908B1FEF7BEFD4FF480500090E7
:101A100069460A48FFF78AFA08B1FEF7B4FD049454
:101A200004A906480594FFF7ADF9002801D0FEF798
:101A3000AAFD06B010BD0000000800408C01002087
:101A4000FEE7FEE7012000F009FAFBE710B50821E8
:101A50000448FFF79DFDBDE810400C210148FFF749
:101A600097BD0000FC00002010B5FEF78BFE01F0D2
:101A70008DFC012803D0BDE8104001F0BBB910BDBA
:101A800030B58FB028216846FEF759FC14210AA80A
:101A9000FEF755FC01210804CDE900100024029452
:101AA00002250491CDE907504FF4E01009906846F3
:101AB000FEF7C2FF08B172B6FEE70F20CDE90A05B6
:101AC0004FF48060CDE90C4002210AA80E94FEF785
:101AD000F7FE002801D072B6FEE70FB030BD7047A8
:101AE0000148FFF7F1BB0000440100200148FFF767
:101AF000EBBB00008C010020F0B50268194B1A4CBA
:101B00001A4D4FF08047984205D0B84203D0A0420A
:101B100001D0A84203D122F070064A6832439842AD
:101B200005D0B84203D0A04201D0A84203D122F48C
:101B30004074CA6822434C6922F08002224302604A
:101B40008A68C2620A688262984201D109690163A7
:101B5000012141610169C90703D0016921F0010137
:101B60000161F0BD002C014000040040000800406D
:101B700010B501F01F030121046A99408C430462EF
:101B8000016A9A401143016210BD10B5846842EAAF
:101B9000032224F47F440A432243826010BD8268FA
:101BA00022F070020A4342F0070181607047000092
:101BB00030B5036A026A22F0010202624268846957
:101BC00024F073050C682C4323F002058B682B432B
:101BD0000A4DA8420BD123F00805CB6822F44072CD
:101BE0002B434D6923F0040315438A692A4342605D
:101BF000846149684163036230BD0000002C0140EC
:101C000030B5026A036A23F01003036243688469F3
:101C10000D6824F4E64444EA05248D6822F020028D
:101C200042EA05120B4DA8420ED1CD6822F0800287
:101C300042EA05124D6923F4406343EA85038D6946
:101C400022F0400243EA850343608461496881636E
:101C5000026230BD002C014030B5036A026A22F4F2
:101C6000807202624268C46923F4007324F0730531
:101C70000C682C438D6843EA05230C4DA8420ED115
:101C8000CD6823F4006343EA05234D6922F44052F2
:101C900042EA05128D6923F4806342EA051242602C
:101CA000C4614968C163036230BD0000002C01407B
:101CB00030B5046A026A22F4805202624268C36943
:101CC0000D6823F4E64343EA05238D6824F40054A9
:101CD00044EA0534064DA84204D14D6922F48042FD
:101CE00042EA85124260C36149680164046230BD02
:101CF000002C014010B5036A046A24F00104046258
:101D0000846924F0F00444EA021423F00A020A432E
:101D10008461026210BD000070B5056A046A24F097
:101D20000104046284690F4EB04208D0B0F1804FC4
:101D300005D00D4EB04202D00C4EB04203D124F07B
:101D40000304144301E044F001041A0724F0F004F2
:101D500044EA126225F00A0301F00A011943826184
:101D6000016270BD002C01400004004000080040EA
:101D700010B5036A046A24F010040462846923F035
:101D8000A00324F4704444EA023243EA0111826160
:101D9000016210BD30B5046A056A25F010050562C0
:101DA000856925F4407545EA022222F470454FF614
:101DB000FF7202EA033224F0A0032A43A02404EABB
:101DC000011119438261016230BD000010B5FFF7B7
:101DD0003DFE4FF4FA70FEF749FBBDE810400148A4
:101DE000FFF778B88C0100208A1A824204DA19447D
:101DF000814201D90120704700207047FEE70907A2
:101E0000090E002804DB00F1E02080F80014704780
:101E100000F00F0000F1E02080F8141D7047000072
:101E2000FEF7B8FCFFF72CFEFFF7E2FCFFF746FDDC
:101E3000FFF7D2FDFFF782FDFFF7C8FF0421064838
:101E4000FFF7D0F90448FFF745F800F033F8FFF743
:101E5000ADFC00F041F8FEE74401002010B5EFF3BF
:101E6000058111B16FF0050403E0002408B100F012
:101E700041FE204610BD38B50546EFF3058010B190
:101E80006FF005040CE0002401F08EFA291A00908E
:101E9000002903DD684600F053FE01E06FF0030403
:101EA000204638BDEFF3058008B101F083BA01F098
:101EB0007BBA0000EFF3058010B16FF005007047AA
:101EC0000448016811B14FF0FF30704701210160F3
:101ED00000207047BC00002010B5EFF3058010B162
:101EE0006FF0050010BD08480168012902D04FF0CD
:101EF000FF3010BD054A002182F8141D0221016047
:101F000000F0A6FE002010BDBC0000200BE000E0A9
:101F10002DE9FF414FEA01034FF00005EFF3058182
:101F2000039549BB40B38027182100244AB31668A3
:101F300006B1344696691EB13146761E382E02D25D
:101F40001679F60703D0002004B0BDE8F081566989
:101F500006B1B708D2F808C0BCF1000F0DD0D568A3
:101F60005C2D18D312693AB136B18DE806103A46A5
:101F7000214601F0E0F903900DE0D6685EB91269E0
:101F80004AB903AACDE90012BAB2214601F0A6F976
:101F9000012800D003950398D6E700002DE9F04111
:101FA000134C0F460546E6682068001D00F040FC13
:101FB000681C07D137B12168BDE8F0410D48091D03
:101FC00000F086BC20683544B5424560216805D2E2
:101FD000A06BBDE8F041091D00F062BC606B091DFB
:101FE00000F05EFCA06A854200D2A562BDE8F081E7
:101FF0006C000020C40E00202DE9F041054600F0E1
:1020000073FC2D4CA068401CA06020682B4F10B1C1
:10201000606930B32BE02560A068012827D1002635
:1020200006EB860007EB800000F02CFC761C382EB7
:10203000F6D3234800F026FC2148143000F022FC9F
:102040001F48283000F01EFC1D483C3000F01AFCF0
:102050001B48503000F016FC194860631430A06330
:1020600005E02068E96AC06A884200D82560606A95
:10207000401C60626864E86A2169884200D9206176
:1020800000EB800007EB8000291D00F021FC00F030
:102090004BFC606900280CD02068E96AC06A88425D
:1020A00007D208494FF080500860BFF34F8FBFF34D
:1020B0006F8FBDE8F08100006C000020140A002042
:1020C000740E002004ED00E038B500F00DFC104C5B
:1020D0002068C8B90F4800F0D5FB0E48143000F056
:1020E000D1FB0C48E060143020610A4B0020F03B2B
:1020F000009003F1500210210A2000F091FE2060B0
:1021000010B105A100F092FCBDE8384000F00CBC15
:10211000A8000020C80F0020546D7251000000007C
:1021200030B4026C0B46002A0BD0C1681144C16068
:102130008468A14201D30168C16030BC1846FEF733
:102140008FB830BC70472DE9F041856B17460446C7
:102150000026026C82B1C7B1E068FEF781F8E16841
:10216000206C091AE1602268914202D2A168081A23
:10217000E060022F16D017E02068A8B9A06801F02F
:1021800085F906460020A0600EE06068FEF768F85A
:10219000216C606808446060A168884204D32068AC
:1021A000606001E005B16D1E6D1CA5633046BDE8A1
:1021B000F08110B5044690F8590058B101280CD0B0
:1021C00002280FD0502080F31188BFF34F8FBFF348
:1021D0006F8FFEE7206B00F0BBFB2046BDE8104090
:1021E00000F0B6BB10BD000010484FF4205142076C
:1021F00006D0C01D0D4920F00700411AC1F520513D
:102200000B4A00230144C2E900030839183A21F0BF
:10221000070111604B600B600B1AC0E9001393605B
:102220004FF000405360506170470000A816002036
:10223000D8000020144E154CA6F29C474FF0805851
:10224000DFF84C9012E000BF00F04EFBF068C5686C
:10225000281D00F0EDFAA068401EA0606068401ED6
:10226000606000F061FB2846FFF7A3FF606800286C
:10227000EAD138680128F9D9C9F80080BFF34F8F37
:10228000BFF36F8FF2E70000B00E00206C0000205B
:1022900004ED00E070B51D46049C51B1C4F8002067
:1022A000C4E90F010121204600F0EEFD84F84C50F6
:1022B00070BD2460F4E700002DE9F05F8846DDE999
:1022C0000B941546834691009A460A9EA522206BE0
:1022D000FEF70BF86FF00301206B01EB850108445A
:1022E00020F00707780707D0502080F31188BFF34C
:1022F0004F8FBFF36F8FFEE70025B8F1000F0FD0AF
:102300005FF00000221818F8001082F8341018F856
:10231000001011B1401C1028F4D384F8435001E0A0
:1023200084F83450382E00D33726E662C4E91365AA
:10233000201D00F0B2FA04F1180000F0AEFA24619A
:10234000C6F138006462A061656584F85850524651
:102350005946384600F05AFA2060B9F1000F01D012
:10236000C9F80040BDE8F09F30B5114900E01146C2
:102370000A688242FBD34B685C18844203D14068F0
:1023800018444860084643681C18944209D1084C18
:10239000183C2468A24209D052681A4442600A6874
:1023A00012680260814200D0086030BD0460F9E725
:1023B000D800002070B5002441600B4D00619142AF
:1023C00006D8D11A8269914206D2011D286907E018
:1023D0009A4203D2994201D3012403E0011DE86827
:1023E00000F05EFA204670BDA800002010B504463B
:1023F00000F07AFAA06B28B15FF0000400F094FAC4
:10240000204610BD0124F9E730B589B03C4D6EE09F
:102410000498002806DADDE90601059A9047049839
:10242000002864DB069C606910B1201D00F000FAF2
:1024300003A800F0D7F8024604980A2857D2DFE82C
:1024400000F00505052D334A05052D3394F82800C5
:1024500040F0010084F828000599A069059B01441B
:102460002046FFF7A7FF68B3216A2046884794F803
:10247000280040073BD5002000900598A169002363
:1024800042181946204601F00BF9D8B9502080F3C4
:102490001188BFF34F8FBFF36F8FFEE714F8280F3B
:1024A00020F00100207022E094F8280040F00100A4
:1024B00084F828000598A06128B1811813462046A9
:1024C000FFF778FF13E0502080F31188BFF34F8FA0
:1024D000BFF36F8FFEE794F82800810703D42046EE
:1024E00000F036FA03E020F0010084F82800002212
:1024F00004A9286800F01CFE002889D109B030BD6D
:10250000A80000202DE9FC410F46054600F0E4FB41
:1025100001A800F067F80446019818B101F02EF800
:10252000BDE8FC81254EAFB130690068D0B300270B
:10253000291B3A46306800F08DFA01F01FF8002898
:10254000EED11F494FF080500860BFF34F8FBFF3AB
:102550006F8FE5E7A542EBD801F010F8F068274649
:10256000C068C468201D00F063F994F82800410792
:1025700019D5A0692B4641193A462046FFF71AFFA4
:10258000A8B100200346014600902A46204601F0EB
:1025900087F860B9502080F31188BFF34F8FBFF3E5
:1025A0006F8FFEE707E020F0010084F82800216A21
:1025B00020468847B4E70127BAE70000A8000020BA
:1025C00004ED00E00648416B096829B1416BC96818
:1025D000C9684968816270474FF0FF31FAE700002F
:1025E0006C00002070B5054600F0DEFE064E044685
:1025F000B068844203D200F009F8012000E0002016
:1026000028602046B46070BDA8000020F8B5194DC0
:1026100020E0C068C4680668201D00F009F9216A3E
:102620002046884794F82800400713D5A069304415
:10263000B04206D924616060211DE86800F030F9DD
:1026400008E000200346014600903246204601F093
:1026500027F838B1E86801680029DAD12969C5E9A5
:102660000310F8BD502080F31188BFF34F8FBFF3E4
:102670006F8FFEE7A800002008484068401C4FF01C
:10268000500080F3118804D0BFF34F8FBFF36F8FDA
:10269000FEE7BFF34F8FBFF36F8FFEE7E000002030
:1026A000074CE068016841B1C0680021D0F8000023
:1026B000FFF728FFFFF7A8FEF3E701210020F7E767
:1026C000A80000202DE9F041044600F00DF994F92E
:1026D000455004F1240609E0606A48B1304600F034
:1026E00015FF08B100F07AFA6D1E6DB2002DF3DC13
:1026F0004FF0FF3684F8456000F016F900F0F4F86A
:1027000094F9445004F1100709E0206948B13846B3
:1027100000F0FCFE08B100F061FA6D1E6DB2002DF4
:10272000F3DC84F84460BDE8F04100F0FDB800003F
:102730002DE9F0410546002700F0CEFA324E306810
:1027400008B9FFF751FD706905424ED1C5B3083590
:1027500068070ED005F00700C0F1080005446807BF
:1027600007D0502080F31188BFF34F8FBFF36F8FD6
:10277000FEE72DB37068854237D8234818300146EC
:102780000C6801E020460C466168A94202D221682B
:102790000029F7D131688C4227D007682168016091
:1027A00060680837411B10290FD96019420708D00B
:1027B000502080F31188BFF34F8FBFF36F8FFEE778
:1027C00013E041606560FFF7CFFD61687068401AF3
:1027D0007060B268904200D2B0607069014300201E
:1027E000C4E90001F068401CF06000F0C7FE780703
:1027F00007D0502080F31188BFF34F8FBFF36F8F46
:10280000FEE73846BDE8F081C000002010B5031F88
:102810004FF080741C601B1F21F001011960191F0B
:10282000024B0B60143940380A6010BD792600084D
:10283000D0E9013201699A60D0E901235A604A68FF
:10284000824201D182684A60002202610868401E0B
:102850000860086870470000034B036003F15C00E8
:102860000860802010607047F00F0020044B036068
:1028700003F15C0008604FF4807010607047000046
:102880004C12002000F108014FF0FF32C0E90112A4
:10289000C160016100210160704700210161704742
:1028A00030B50B685A1C02D000F1080202E0026940
:1028B00004E02246546825689D42FAD953684B606B
:1028C00099608A60516008610168491C016030BDEF
:1028D00042684A6093688B609368596091600861B0
:1028E0000168491C01607047502080F31188BFF3D4
:1028F0004F8FBFF36F8F0A494868401C486001281A
:102900000CD10848006810F0FF0F07D0502080F36A
:102910001188BFF34F8FBFF36F8FFEE77047000042
:10292000E000002004ED00E00849486828B1401E9E
:10293000486001D180F311887047502080F31188DE
:10294000BFF34F8FBFF36F8FFEE70000E000002062
:1029500070B500282AD0164DA0F108046068696996
:10296000084207D1502080F31188BFF34F8FBFF387
:102970006F8FFEE722683AB1502080F31188BFF3D1
:102980004F8FBFF36F8FFEE78843606000F0A4F9BC
:1029900060686968084468602046FFF7E5FC2869BC
:1029A000401C2861BDE8704000F0E8BD70BD00002B
:1029B000C00000204FF0E020002101618161054945
:1029C0004FF47A720968B1FBF2F1491E41610721A7
:1029D00001617047EC00002010B5FDF71DFC1149A6
:1029E00010280ED300F1E02090F8F0030A7890420E
:1029F00007D2502080F31188BFF34F8FBFF36F8F42
:102A0000FEE709480068896800F4E060884207D959
:102A1000502080F31188BFF34F8FBFF36F8FFEE715
:102A200010BD0000E00000200CED00E010B5084BE8
:102A3000002200BF53F832401CB1521C082AF9D3BF
:102A400010BD43F8321003EBC201486010BD000016
:102A5000D409002070B515460E460446FFF744FF22
:102A600094F944100020491C01D184F8440094F9E1
:102A70004510491C01D184F84500FFF755FFA06BB4
:102A800028B92A46314604F1240000F0C5F8204652
:102A9000BDE87040FFF716BEFFF704FA134F144C61
:102AA00005467E4220783235FF280BD02078312829
:102AB0000AD0207832280AD0207833280AD020780B
:102AC00034280AD0002109E03046314607E0384674
:102AD000394604E00021304601E031460020FDF790
:102AE000CEFC20782846FFF7C6F9DBE7E0FCFFFFC5
:102AF0000B00002010B5020014D00F48006B38B155
:102B0000502080F31188BFF34F8FBFF36F8FFEE724
:102B100000F0E2F800211046FFF740FA00F02EFD29
:102B2000002807D105494FF080500860BFF34F8F50
:102B3000BFF36F8F10BD00006C00002004ED00E0BB
:102B400070B50D4604000BD095B11E4A106BB8B19C
:102B5000502080F31188BFF34F8FBFF36F8FFEE7D4
:102B6000502080F31188BFF34F8FBFF36F8FFEE7C4
:102B7000502080F31188BFF34F8FBFF36F8FFEE7B4
:102B800000F0AAF8D26823685919934204D98B42FD
:102B90000AD9914202D807E08B42FAD9881A2160FB
:102BA0000021FFF7FBF900E0216000F0E7FC0028BE
:102BB00007D105494FF080500860BFF34F8FBFF336
:102BC0006F8F70BD6C00002004ED00E002490A6ABE
:102BD0000260C968416070476C0000200149012013
:102BE000C86170476C00002010B50C4650B109490F
:102BF00009681831FFF754FE2046BDE81040012156
:102C0000FFF7CCB9502080F31188BFF34F8FBFF38B
:102C10006F8FFEE76C00002070B514460D4668B15A
:102C20000A4909681831FFF753FE0CB14FF0FF3520
:102C300021462846BDE87040FFF7B0B9502080F328
:102C40001188BFF34F8FBFF36F8FFEE76C0000203A
:102C500030B587B00024039405AA04A903A80494FE
:102C6000FFF7FAFDDDE903010094CDE9011000232F
:102C700015A11748059A00F05EFB164D0028E86282
:102C80001FD000F0DDFC012809D0401C19D15020D4
:102C900080F31188BFF34F8FBFF36F8FFEE7502093
:102CA00080F31188BFF34F8FBFF36F8F4FF0FF306A
:102CB000A86201206861EC6007B0BDE8304000F018
:102CC00045B807B030BD000049444C450000000045
:102CD000352200086C0000200248016B491C01638A
:102CE000704700006C000020164810B5016B11B150
:102CF0000121C16110BD0021C1610169124A01E0D9
:102D0000B9B1491E01EB810352F82330002BF7D0F3
:102D100001EB810302EB830202F1080453685B6854
:102D20005360A34201D15B685360DA6802600161BD
:102D300010BD502080F31188BFF34F8FBFF36F8F0A
:102D4000FEE700006C000020140A00201CB5264994
:102D500008780190FF20087008788DF800009DF831
:102D600000009DF8002000F0F000904207D05020B5
:102D700080F31188BFF34F8FBFF36F8FFEE79DF88D
:102D800000001A4C00F0500020700720A06005E001
:102D90009DF8002052008DF80020401E9DF8002074
:102DA0001206F5D4A060032807D0502080F31188C4
:102DB000BFF34F8FBFF36F8FFEE74FF44070A060FB
:102DC000019808700A48016841F4700101600168C7
:102DD00041F070410160FFF7EDFD00206060FDF7FC
:102DE000E5F900201CBD000000E400E0E000002048
:102DF00020ED00E010B5502080F31188BFF34F8F15
:102E0000BFF36F8F00F0DEFA18B104494FF0805025
:102E10000860002080F3118810BD000004ED00E080
:102E200038B5049D18B153B1CAB181B120E050202A
:102E300080F31188BFF34F8FBFF36F8FFEE75020F1
:102E400080F31188BFF34F8FBFF36F8FFEE75020E1
:102E500080F31188BFF34F8FBFF36F8FFEE739B157
:102E6000502080F31188BFF34F8FBFF36F8FFEE7C1
:102E700050241C46012384F846302B460094FFF76B
:102E800009FA204638BD000070B50D46040025D073
:102E9000FFF72AFDD4E90F20216802FB0011A16091
:102EA0000021A163216861600A46D4E90F01401E38
:102EB00000FB0121E16021464FF0FF3001F8440F93
:102EC000487004F110008DB1FFF7DCFC04F1240020
:102ED000FFF7D8FCFFF728FD012070BD502080F3DC
:102EE0001188BFF34F8FBFF36F8FFEE72169002971
:102EF000F0D000F00BFB0028ECD004494FF08050DC
:102F00000860BFF34F8FBFF36F8FE3E704ED00E07E
:102F10002DE9FF4782B01D468A464FF000080400A5
:102F200003D0BAF1000F08D011E0502080F31188CF
:102F3000BFF34F8FBFF36F8FFEE7206C38B1502087
:102F400080F31188BFF34F8FBFF36F8FFEE7022D21
:102F50000AD1E06B012807D0502080F31188BFF31D
:102F60004F8FBFF36F8FFEE700F010FA3F4F4FF027
:102F700000094FF0805648B9049838B1502080F3CA
:102F80001188BFF34F8FBFF36F8FFEE7FFF7ACFCE5
:102F9000A06BE16B884207D3022D05D00498D0B115
:102FA000B8F1000F1AD01EE02A4651462046FFF71E
:102FB000CAF8616A19B104F1240000F0A7FA20B13F
:102FC0003E60BFF34F8FBFF36F8FFFF7ADFC012063
:102FD00006B0BDE8F087FFF7A7FC22E06846FFF7E0
:102FE000F5FD4FF00108FFF79FFCFFF775FEFFF7B7
:102FF0007BFC94F94400401C01D184F8449094F97E
:103000004500401C01D184F84590FFF78DFC04A9D0
:10301000684600F029F930B12046FFF753FB00F075
:10302000ADFA0020D4E7FFF75FFCA06BE16B8842AC
:1030300013D1FFF779FC04F110000499FFF7D4FDD8
:103040002046FFF73FFB00F099FA00289ED13E6032
:10305000BFF34F8FBFF36F8F98E7FFF765FC2046F4
:10306000FFF730FB00F08AFA90E7000004ED00E083
:103070002DE9F0471F4690468946040003D0B9F178
:10308000000F08D011E0502080F31188BFF34F8F5C
:10309000BFF36F8FFEE7206C38B1502080F31188AA
:1030A000BFF34F8FBFF36F8FFEE7022F0AD1E06BA4
:1030B000012807D0502080F31188BFF34F8FBFF352
:1030C0006F8FFEE7FFF788FC5020EFF3118680F347
:1030D0001188BFF34F8FBFF36F8FA06BE16B8842F6
:1030E00006D3022F04D0002086F31188BDE8F087B4
:1030F00094F94550A06B3A4649462046FFF723F81D
:10310000681C04D06D1C84F845500120ECE7606A0F
:103110000028FAD004F1240000F0F8F90028F4D0D7
:10312000B8F1000FF1D00121C8F80010EDE7000060
:103130002DE9F747002683B08A46040003D0BAF190
:10314000000F08D011E0502080F31188BFF34F8F9B
:10315000BFF36F8FFEE7206C38B1502080F31188E9
:10316000BFF34F8FBFF36F8FFEE700F00FF9DFF86B
:10317000F4804FF000094FF0805748B9059838B1F6
:10318000502080F31188BFF34F8FBFF36F8FFEE79E
:10319000FFF7AAFBA56BC5B151462046FEF7C0FF5D
:1031A0006D1EA563206950B104F1100000F0AEF966
:1031B00028B1C8F80070BFF34F8FBFF36F8FFFF7D0
:1031C000B3FB012006B0BDE8F087059808B11EB139
:1031D00006E0FFF7A9FB27E06846FFF7F7FC0126AA
:1031E000FFF7A2FBFFF778FDFFF77EFB94F94400A1
:1031F000401C01D184F8449094F94500401C01D151
:1032000084F84590FFF790FB05A9684600F02CF87C
:10321000002820460AD0FFF755FA00F0AFF9204603
:10322000FFF7E4F80028B3D00020CBE7FFF7DEF883
:1032300090B104F124000599FFF7D6FC2046FFF772
:1032400041FA00F09BF90028A2D1C8F80070BFF342
:103250004F8FBFF36F8F9BE72046FFF733FA00F0E5
:103260008DF995E704ED00E02DE9F0410C460500ED
:1032700011D0C4B1FFF738FB174BDA686E682068CD
:10328000911B471C17D02F681B6A9F4219D096428A
:1032900017D8012410E0502080F31188BFF34F8F1E
:1032A000BFF36F8FFEE7502080F31188BFF34F8F7D
:1032B000BFF36F8FFEE70024FFF736FB2046BDE823
:1032C000F081884205D9401A20602846FFF77EFC2D
:1032D000F1E700202060DCE76C0000202DE9FF5FB3
:1032E0008346DDE90E87994616468A469000FFF729
:1032F0001FFA05001CD05C20FFF71AFA040014D056
:103300000020256384F85900CDE90240CDE900870B
:103310004B46324651465846FEF7CEFF2046FEF752
:103320006BFE012004B0BDE8F09F2846FFF710FBBC
:103330004FF0FF30F6E7F0B585B0DDE90B640A9D8C
:10334000A6B1DCB15C2700972663022684F8596099
:10335000002604AFCDE90246CDE90057FEF7ACFFE9
:103360002046FEF749FE049805B0F0BD502080F3DA
:103370001188BFF34F8FBFF36F8FFEE7502080F3AC
:103380001188BFF34F8FBFF36F8FFEE70548416988
:1033900019B1006B18B1002070470120704702205E
:1033A000704700006C0000200148C06870470000B2
:1033B0006C00002010B5FFF70FFB0148C06810BD7E
:1033C0006C0000202DE9F0412E4C0027206B28B125
:1033D000A069401CA0613846BDE8F081E668761C13
:1033E000E66013D1606B006838B1502080F311881B
:1033F000BFF34F8FBFF36F8FFEE7606BA16B61630D
:10340000A063206A401C2062FFF7DCF8A06ADFF8A6
:103410007880864209D3606B0068A0B1606BC06899
:10342000C5686868864211D2A0622068C06A00EB55
:10343000800158F82100012800D90127E0690028FF
:10344000C9D00127C7E74FF0FF30EDE7281DFFF790
:10345000EFF9A86A18B105F11800FFF7E9F9E86A71
:103460002169884200D9206100EB800108EB8100CE
:10347000291DFFF72DFAE86A2168C96A8842CAD374
:103480000127C8E76C000020140A002070B5040072
:103490004FF0000133D01B4D2868844207D05020E4
:1034A00080F31188BFF34F8FBFF36F8FFEE7206D5E
:1034B00038B1401E2065E36CE26A9A421FD040B1E9
:1034C0001DE0502080F31188BFF34F8FBFF36F8F43
:1034D000FEE7201DFFF7ACF9E06CE062C0F13800B8
:1034E000A061E06A2969884200D92861064900EB99
:1034F000800001EB8000211DFFF7EAF90121084659
:1035000070BD00006C000020140A002070B5C06877
:10351000C46854B104F118000646FFF789F9144D48
:10352000286B50B13146134815E0502080F31188C4
:10353000BFF34F8FBFF36F8FFEE7201DFFF778F9C2
:10354000E06A2969884200D928610B4900EB8000B4
:1035500001EB8000211DFFF7BBF9E06A2968C96A09
:10356000884202D90120E86170BD002070BD0000D2
:103570006C0000209C0E0020140A00202DE9F0476A
:103580002C4D00242746286B38B1FFF7ADF9286B86
:10359000401E2863286B40B146E0502080F311881C
:1035A000BFF34F8FBFF36F8FFEE7A968224E012054
:1035B000D1B3A6F5916980463068E0B1F068C4687F
:1035C00004F11800FFF734F9201DFFF731F9E06A24
:1035D0002969884200D9286100EB800109EB81004C
:1035E000211DFFF775F9E06A2968C96A8842E3D3AB
:1035F000C5F81C80E0E70CB1FEF7E4FFAC694CB104
:103600004FEA0806FFF7DEFE00B1EE61641EF9D155
:103610000020A861E86938B1084901273807086027
:10362000BFF34F8FBFF36F8FFFF77EF93846BDE8CA
:10363000F08700006C0000209C0E002004ED00E0EC
:1036400010B586B0FEF740FD114C2068B8B10020DF
:103650000390049005AA04A903A8FFF707F9DDE980
:10366000032102208DE8070000230AA10B48059AD8
:10367000FFF761FE606010B106B0012010BD502060
:1036800080F31188BFF34F8FBFF36F8FFEE7000009
:10369000A8000020546D722053766300A126000814
:1036A0002DE9FF411E46134602000A9D4FF000001F
:1036B00016D0144C2768002F0FD0CDE900130292CA
:1036C000062917DAFFF762FE02284FF000030FD039
:1036D000002269462068FFF71BFC04B0BDE8F081BA
:1036E000502080F31188BFF34F8FBFF36F8FFEE739
:1036F0002A46EEE70023324669463846FFF7B8FC13
:10370000EBE70000A8000020503700080000000090
:1037100000000000000000000000000000020000A7
:103720001800000000000000000000000000000081
:103730000000000001020304060708090102020359
:103740000405060708090A0B0C0D0E0F10100000E7
:1037500064656661756C745461736B007C37000836
:1037600000000020FC000000280100087838000854
:10377000FC0000200C440000440100080000000090
:10378000E8030000000000FF00000000000000004F
:1037900000003132333435363738392A30232B4C58
:1037A0004F522D00FF45BA00FF46B900FF47B80051
:1037B000FF44BB00FF40BF00FF43BC00FF07F80011
:1037C000FF15EA00FF09F600FF16E900FF19E60001
:1037D000FF0DF200FF18E700FF08F700FF1CE300F1
:1037E000FF5AA500FF52AD000000000000000000DD
:1037F00000000000000000000000000000000000C9
:1038000000000000000000000000000000000000B8
:1038100000000000000000000000000000000000A8
:103820000000000000000000000000000000000098
:103830000000000000000000000000000000000088
:103840000000000000000000000000000000000078
:103850000000000000000000000000000000000068
:10386000AAAAAAAA0000000000127A000100000023
:08387000100000000000000040
:04000005080000ED02
:00000001FF
