:020000040800F2
:100000005045002041020008D7230008831F000844
:10001000D52300088B040008112B00080000000005
:10002000000000000000000000000000A90100081E
:100030003906000800000000ED010008392700081B
:100040005B0200085B0200085B0200085B0200081C
:100050005B0200085B0200085B0200085B0200080C
:100060005B0200085B0200085B0200085B020008FC
:100070005B0200085B0200085B0200085B020008EC
:100080005B0200085B0200085B0200085B020008DC
:100090005B0200085B0200085B02000851060008D2
:1000A0005B0200085B0200085B0200085B020008BC
:1000B0005B020008D5270008E12700085B02000862
:1000C0005B0200085B0200085B0200085B0200089C
:1000D0005B0200085B0200085B0200085B0200088C
:1000E0005B020008192400085B02000800F002F817
:1000F00000F04AF80AA090E8000C82448344AAF178
:100100000107DA4501D100F03FF8AFF2090EBAE875
:100110000F0013F0010F18BFFB1A43F0010318473B
:100120002C4C00004C4C00000A4410F8014B14F019
:100130000F0508BF10F8015B240908BF10F8014B38
:100140006D1E05D010F8013B6D1E01F8013BF9D181
:10015000641E03D0641E01F8015BFBD19142E4D31D
:10016000704700000023002400250026103A28BF15
:1001700078C1FBD8520728BF30C148BF0B60704719
:100180001FB51FBD10B510BD00F045F91146FFF7B2
:10019000F7FF02F021FD00F063F903B4FFF7F2FF6F
:1001A00003BC00F06BF90000224B19680868B0E846
:1001B000F00F80F30988BFF36F8F4FF0000080F3DA
:1001C00011884EF00D0E70470000000006480068D0
:1001D000006880F3088862B661B6BFF34F8FBFF343
:1001E0006F8F00DF00BF00BF08ED00E0EFF3098074
:1001F000BFF36F8F0F4B1A6820E9F00F106008B53E
:100200004FF0500080F31188BFF34F8FBFF36F8F13
:1002100003F00CFD4FF0000080F31188BDE80840AA
:1002200019680868B0E8F00F80F30988BFF36F8F92
:10023000704700BF9C000020EFF30580704700006E
:100240000948804709480047FEE7FEE7FEE7FEE76A
:10025000FEE7FEE7FEE7FEE7FEE7FEE704480549A6
:10026000054A064B70470000D1270008ED00000842
:10027000503F0020504500205041002050410020B8
:10028000032A40F2308010F0030C00F0158011F8C2
:10029000013BBCF1020F624498BF11F801CB00F89A
:1002A000013B38BF11F8013BA2F1040298BF00F8EE
:1002B00001CB38BF00F8013B11F0030300F0798057
:1002C000083AC0F0088051F8043B083A51F804CBD2
:1002D000A0E80810F5E7121D5CBF51F8043B40F898
:1002E000043BAFF30080D20724BF11F8013B11F8A3
:1002F00001CB48BF11F8012B24BF00F8013B00F8E7
:1003000001CB48BF00F8012B704702F0FF0343EA1E
:10031000032242EA024200F002B84FF00002042930
:10032000C0F0128010F0030C00F01B80CCF1040C24
:10033000BCF1020F18BF00F8012BA8BF20F8022B58
:10034000A1EB0C0100F00DB85FEAC17C24BF00F8FE
:10035000012B00F8012B48BF00F8012B70474FF02C
:10036000000200B5134694469646203922BFA0E805
:100370000C50A0E80C50B1F12001BFF4F7AF090711
:1003800028BFA0E80C5048BF0CC05DF804EB890002
:1003900028BF40F8042B08BF704748BF20F8022B45
:1003A00011F0804F18BF00F8012B7047704770475D
:1003B000704710B5203AC0F00B80B1E81850203AD1
:1003C000A0E81850B1E81850A0E81850BFF4F5AFF5
:1003D0005FEA027C24BFB1E81850A0E8185044BF7F
:1003E00018C918C0BDE810405FEA827C24BF51F8EC
:1003F000043B40F8043B08BF7047D20728BF31F8E0
:10040000023B48BF11F8012B28BF20F8023B48BF30
:1004100000F8012B7047754600F02CF8AE46050039
:100420006946534620F00700854618B020B5FFF70F
:1004300015FFBDE820404FF000064FF000074FF0D9
:1004400000084FF0000B21F00701AC46ACE8C009F2
:10045000ACE8C009ACE8C009ACE8C0098D467047FB
:1004600010B50446AFF300802046BDE81040FFF70A
:1004700094BE000000487047EC3E0020014918205F
:10048000ABBEFEE7260002007047FEE710B5404213
:10049000044600F071F82046BDE8104000F09CB81A
:1004A00010B5044600F068F82046BDE8104000F0A2
:1004B00093B810B50C4600F05FF82046BDE8104038
:1004C00000F08AB810B5002000F056F8BDE81040E2
:1004D000002000F081B8000030B5014600200A7805
:1004E00012B94A78FF2A02D04FF0FF3030BD8A7827
:1004F0000A4C00BF04EB80039D78AA4206D1CD7858
:10050000DB789D4202D1112804D230BD401CC0B21C
:100510001128EFD36FF0010030BD00003D00002036
:1005200010B5144CB4F9020001F056FFB4F90410F0
:1005300001290CD002290FD0A9B1E088B0B1B4F9DB
:100540000A0000BFFFF7ACFFA088E08010BDB4F93F
:100550000A20111A104403E0B4F90A201118101AE5
:10056000FFF7A7FFF0E7FFF7ADFFEDE74FF47A7075
:10057000E8E700009000002070B51649134D144EB6
:100580000C6800280FDDA04200DC04460122102187
:10059000284600F01AFA00222021284600F015FA19
:1005A0003068C46370BD6442A04200DB0446002290
:1005B0001021284600F009FA01222021284600F0E7
:1005C00004FA31686042C86370BD00000008014051
:1005D000400100201400002070B51649134D144E40
:1005E0000C6800280FDDA04200DC04460122114601
:1005F000284600F0EAF900220221284600F0E5F939
:100600003068046470BD6442A04200DB04460022EE
:100610000121284600F0D9F901220221284600F0E4
:10062000D4F931686042086470BD000000080140E0
:100630004001002014000020704710B5040006D0CF
:100640002068002803D003F01BFA0020206010BDB2
:100650004FF4807000F0B8B872B6FEE705484FF46A
:100660007A7100884843044909684A6A10440022A4
:100670004A62704718000020D00100202DE9F047A1
:100680004FF0000A274DD146DFF8948054460122EE
:100690000221284600F099F9142000F073F8002296
:1006A0000221284600F091F944F620672E1503E058
:1006B000641CA4B2BC4205D83146284600F080F93B
:1006C0000028F5D0184900200968486217490880B9
:1006D000154801F077F8002403E0641CA4B2BC4282
:1006E00005D83146284600F06BF90128F5D00E48B0
:1006F00001F094F8FFF7B2FF04F04EF90C4904F052
:1007000055F80446494604F05BFA4146204604F099
:1007100057F921465046BDE8F04703F0D9BF000025
:100720000000C842000C0140D00100201800002049
:100730000000684230B51149002009688BB21049A9
:1007400009688AB25FF00C0123FA01F404F0010495
:10075000A1F10C05AC400443491CE0B21029F3DBC5
:100760005FF0090122FA01F303F001034C1FA340DB
:100770000343491CD8B20D29F4DB30BD080C0140FD
:100780000808014070B54FF0E02300215D690B4A75
:100790000B4C1268B2FBF4F49A6944439869904296
:1007A000FCD002D2A2EB000202E0A5EB000632442C
:1007B00011440246A142F1D370BD00001C0100208B
:1007C00040420F0070470000044910B50A68024219
:1007D00002D00860FFF7F6FF10BD000014040140CE
:1007E0002DE9F84FDFF8B8910024A9F1040B234656
:1007F0000F2709F1040AABF1040EC9E00125A54059
:100800002A40AA427DD1674ED1F804C0ACEB06085D
:10081000B44532D014DCBCF1030F3AD009DCBCF192
:10082000000F2AD0BCF1010F1CD0BCF1020F31D156
:100830001DE0BCF1110F17D0BCF1120F2AD119E045
:10084000B8F5881F19D006DCB8F5803F15D0B8F58B
:10085000801F1FD111E0B8F5001F0ED0B8F5041F9E
:1008600018D10AE0CB6815E0CB681B1D12E0CB68FD
:1008700008330FE0CB680C330CE08B682BB1012BF5
:100880004FF0080303D0456104E0042302E0056152
:1008900000E00023FF2A01D8064601E000F104062B
:1008A0004FEA840501D9A5F12005D6F8008007FAA2
:1008B00005FC28EA0C0803FA05F548EA0508C6F81D
:1008C00000804D68ED0062D5374DAE6946F00106F7
:1008D000AE61AD6924F0030605F001050095334DC6
:1008E00006EB050CDCF80850A607360F07FA06F8E9
:1008F00025EA0805DFF8B880404503D14FF000082D
:1009000017E044E0DFF8AC80404502D14FF0010829
:100910000FE0DFF8A480404502D14FF0020808E064
:10092000DFF89880404502D14FF0030801E04FF016
:10093000040808FA06F848EA0508CCF808804D686B
:10094000D9F80060ED024D4601D5164300E096430C
:100950002E604D68DAF80060AD02554601D51643A9
:1009600000E096432E604D68DBF80060AD035D4605
:1009700001D5164300E096432E604D68DEF8006016
:10098000ED03754601D5164300E096432E60641CC6
:100990000D682A46E5407FF431AFBDE8F88F0000CE
:1009A0000804014000001110001002400000014046
:1009B00000080140000C01400010014000140140FB
:1009C0008068084000D0012070470AB1016170477B
:1009D0000904FBE7014880687047000020010020FF
:1009E000024881680278114481607047200100202C
:1009F000074810B5016841F010010160032000F0C4
:100A00007BF80F2000F006F800F024F8002010BD5D
:100A10000020024070B50D4D04464FF47A712878DD
:100A2000B1FBF0F00A490968B1FBF0F000F00BFEF1
:100A300048B9102C07D200222146501E00F03CF885
:100A400000206C6070BD012070BD000020010020FE
:100A50001C0100200F4808B5816941F00101816146
:100A6000816901F001010091C16941F08051C161CA
:100A7000C069002200F0805000900F21901E00F00D
:100A80001BF80548416821F0E06141F000714160C8
:100A900008BD00000010024000000140002809DBF2
:100AA00000F01F02012191404009800000F1E02088
:100AB000C0F8001170470000F0B40E4B1B680C46E4
:100AC000C3F30223C3F10705042D00D90425191D22
:100AD000072901D2002300E0DB1E012606FA05F1FA
:100AE000491E214099409E40761E16403143F0BC7D
:100AF00002F00FB80CED00E0064900F007020868AC
:100B00004FF6FF03184040EA0220034A10430860F2
:100B1000704700000CED00E00000FA0501490120DB
:100B20000862704700000E4210B501460020234CB9
:100B3000012922D0022939D010291DD161682268EB
:100B4000D20119D51E48C1F38342C903805C0AD57E
:100B500061681B4AC1F34041921E515C194AB2FBC5
:100B6000F1F1484301E0184948436168490203D460
:100B700040000321B0FBF1F010BD226AC2F3012155
:100B8000012903D1920701D5C80310BD022905D15F
:100B9000626A920702D549F6404010BD0329FCD194
:100BA00021688903F9D54FF2244010BD00F01AF9ED
:100BB0006168C1F38131491C4900DBE70010024044
:100BC0003A4D000800127A0000093D002DE9F84373
:100BD00005460078354CC00754D0E0690026C000B7
:100BE00008D4E06940F08050E061E069012600F03F
:100BF000805000902E480168C90512D401688046D3
:100C000041F480710160FFF7E5FE074605E000BF93
:100C1000FFF7E0FEC01B642823D8D8F80000C00509
:100C2000F6D5206A10F4407021D0A98801F44071F3
:100C300081421CD0206A1F49012220F440700A60C2
:100C400000220A602062C00711D0FFF7C3FE0746EA
:100C500041F2883808E000BFFFF7BCFEC11B4145E8
:100C600002D90320BDE8F883206A8007F4D5206A02
:100C7000696820F44070084320621EB1E06920F0EA
:100C80008050E0612878800705D56068A96820F465
:100C90004040084360602878C00605D56068E96870
:100CA00020F48000084360600020DBE70010024071
:100CB00000700040400442422DE9F0470F46050015
:100CC00061D0434E306800F00700B84209D2306866
:100CD00020F0070038433060306800F00700B84269
:100CE00051D128683B4C810712D5400703D5606875
:100CF00040F4E06060602878000703D5606840F445
:100D0000605060606068A96820F0F000084360608F
:100D10002878C00728D06868012810D021680228E8
:100D200010D0890700292EDA616821F00301014300
:100D30006160FFF74FFE804641F288390DE021687F
:100D40008903EFE78901EDE7FFF744FEA0EB080117
:100D5000494502D90320BDE8F0876068696800F062
:100D60000C00B0EB810FEFD1306800F00700B84203
:100D70000BD9306820F0070038433060306800F04D
:100D80000700B84201D00120E5E72878400705D5E3
:100D90006068E96820F4E060084360602878000734
:100DA00006D56068296920F4605040EAC10060609F
:100DB00000F028F86168084AC1F30311515CC8408B
:100DC0000649086006480068FFF724FE0020C2E7D5
:100DD00000200240001002400E4D00081C010020BF
:100DE000240100200448054900684968044AC1F309
:100DF000C221515CC84070471C0100200010024015
:100E00001E4D00080E4A51680E4801F00C03042BD9
:100E100011D0082B0FD10C48C1F38343C903C05C28
:100E20000AD55168084AC1F34041921E515C054AF7
:100E30005043B0FBF1F0704704494843704700004D
:100E40000010024000127A00284D000800093D0001
:100E50002DE9F84F040070D02078C04DC00749D06C
:100E60006868C0F38100012807D06868C0F381007A
:100E7000022809D16868C00306D52868800339D5DF
:100E800060680028E7D035E06068B0F5803F0BD09F
:100E900010B1B0F5A02F11D0286820F48030286060
:100EA000286820F4802002E0286840F48030286020
:100EB000606890B1FFF78EFD06460AE0286840F4AE
:100EC00080202860F0E700BFFFF784FD801B6428C6
:100ED00073D828688003F7D50CE0FFF77BFD064642
:100EE00005E000BFFFF776FD801B6428F0D8286876
:100EF0008003F7D420789A4E80074FF001094FF015
:100F0000000839D5686810F00C0F07D06868C0F386
:100F10008100022809D16868C00306D428688007C8
:100F200014D52069012808D110E02069B0B1C6F8B5
:100F30000090FFF74FFD074605E00AE1FFF74AFD85
:100F4000C01B0228C4D828688007F7D528686169C3
:100F500020F0F80040EAC10028600DE0C6F80080EB
:100F6000FFF738FD074604E0FFF734FDC01B0228F9
:100F700023D828688007F7D4207800072CD5794833
:100F8000A169D9B1C0F80090FFF724FD074604E03D
:100F9000FFF720FDC01B02280FD8686A8007F7D52D
:100FA00071484FF4FA510068B0FBF1F0009000BFB7
:100FB0000098411E0091FAD20EE080E0C0F8008057
:100FC000FFF708FD074604E0FFF704FDC01B0228F9
:100FD00075D8686A8007F7D42078400760D5E8693B
:100FE0000027C00008D4E86940F08050E861E86953
:100FF000012700F0805000905C480168C90513D4B7
:101000000168834641F480710160FFF7E3FC82468A
:1010100006E000BFFFF7DEFCA0EB0A0064284ED814
:10102000DBF80000C005F5D5E06801280AD008B15A
:10103000052813D0286A20F001002862286A20F0D1
:10104000040002E0286A40F001002862E06841F2F2
:10105000883B98B1FFF7BEFC82460BE0286A40F05F
:1010600004002862EEE700BFFFF7B4FCA0EB0A0122
:1010700059455AD8286A8007F6D50CE0FFF7AAFC34
:10108000824605E0FFF7A6FCA0EB0A0159454CD8C3
:10109000286A8007F6D41FB1E86920F08050E86123
:1010A000E06988B36968C1F38101022944D002284C
:1010B000C6F8608004D0FFF78DFC044638E034E0C9
:1010C000FFF788FC074604E0FFF784FCC01B0228FA
:1010D0002BD828688001F7D4206AB0F5803F05D16D
:1010E0006868A16820F4003008436860D4E908010A
:1010F0000843696821F4741108436860C6F8609079
:10110000FFF768FC044606E025E000BFFFF762FC3D
:10111000001B022809D828688001F7D51BE000BF12
:10112000FFF758FC001B022802D90320BDE8F88F06
:1011300028688001F4D40EE00128F7D06868226A9C
:1011400000F48031914204D1616A00F47010884249
:1011500001D00120EAE70020E8E70000001002408B
:1011600000004242800442421C0100200070004006
:101170000A2001F00FBA000010B5044600680168AB
:1011800089070AD54068800707D52046FFF7F0FF9A
:101190002068416821F00201416003494FF40030AA
:1011A00008600120607410BD14040140F8B505000A
:1011B0004FF0000016460C46009006D02CB10022DD
:1011C0006946284600F019F808B10120F8BD287BCF
:1011D0002070E87BE070697B6170A97BA17056B1DB
:1011E00001F029F9E070607801F025F96070A078CD
:1011F00001F021F9A0700020F8BD2DE9F0479146DB
:101200000C465FEA00084AD084B3D8F80000406872
:10121000400744D4404601F0ADF94FF46162054601
:10122000B0FBF2F1B0FBF2F302FB13503C23B0FB36
:10123000F3F0B5FBF2F6607002FB1650B0FBF3F270
:1012400003FB1200A070182931D31820B1FBF0F76E
:10125000B1FBF0F200FB12102070404601F083F960
:10126000411C04D0A84202D9461B02E017E04FF00F
:10127000FF36A7EB071000EB4000C0EB001005EBBA
:10128000C0152946404601F00CFA40B9701C01D047
:10129000711900E03146404601F0EFF910B101202C
:1012A000BDE8F0873946404601F0D0F800E02170F3
:1012B000B9F1000F0BD0207801F0BDF820706078F4
:1012C00001F0B9F86070A07801F0B5F8A0700020C6
:1012D000E6E7000070B5040003D0607C002610B182
:1012E00005E0012070BD2674204600F03DF8022084
:1012F0006074204600F08AF9042550BB204601F0B6
:10130000FCF830BB2068416821F007014160A0680B
:1013100020B11448016821F0010101601148001F4B
:101320000168A26821F46071114301606068411C8A
:1013300004D10120FFF7F8FB58B1401E2268C0F32A
:1013400003419160216880B2C860204601F0F0F846
:1013500008B16574C5E7E67301206073A07360741B
:10136000002070BD306C004008B500680D4988420F
:1013700017D1FFF7D3FB0C48C16941F00061C1618F
:10138000C0690A4900F00060009001200860002256
:1013900005212920FFF790FBBDE808402920FFF731
:1013A0007DBB08BD00280040001002403C044242C2
:1013B0002DE9F8434FF0000617460D46040000964D
:1013C0000FD075B1207C01280ED04FF0010984F8B0
:1013D000109002206074002269462046FFF70DFF3E
:1013E00020B10120BDE8F8830220FBE79DF8000052
:1013F0004FF4616148439DF80110C1EB011100EB0E
:1014000081009DF8021000EB01082878E7B101F097
:1014100009F84FF4616100FB01F7687801F002F808
:10142000C0EB001007EB8007A87800F0FBFF39182D
:10143000414501D217480144204601F01EF970B120
:10144000042060742674CCE74FF4616148436978E6
:10145000C1EB011100EB8100A9780144E8E72068A5
:10146000416821F0020141602068016841F00201F9
:1014700001600948016841F4003101600648083004
:10148000016841F40031016084F811902674002055
:10149000A8E7000080510100000401402DE9F0415F
:1014A0000D4604003BD0C5B3207C01283AD04FF054
:1014B000010884F8108002206074E87872B300F0AC
:1014C000B1FFE073687800F0ADFF6073A87800F0BA
:1014D000A9FFA073C2B2617BE07B01F0A3F8207387
:1014E0002870204601F046F84FF46161B0FBF1F13D
:1014F000002518292DD91822B1FBF2F1A1EB011119
:1015000001EB4101C1EB011100EBC1163146204650
:1015100001F0C7F80427C8B90BE000E004E001209F
:10152000BDE8F0810220FBE7E07368786073A8787B
:10153000CFE7204601F017F8411C0AD0B04208D28C
:1015400006490144204601F098F810B167742574EB
:10155000E5E784F8118025740020E1E7805101005F
:101560002DE9F0410D46040024D01DB3207C012854
:1015700023D04FF0010884F810800220607428788E
:10158000EAB100F04FFF4FF4616100FB01F66878AB
:1015900000F048FFC0EB001006EB8006A87800F0D2
:1015A00041FF35182946204601F07BF80026042724
:1015B00010BB0FE00120BDE8F0810220FBE74FF4F3
:1015C000616148436978C1EB011100EB8100A978A2
:1015D0004518E7E72068416821F005014160204691
:1015E00000F0C1FF411C0AD0A84208D206490144BC
:1015F000204601F042F810B167742674DAE784F8E7
:10160000118026740020D6E78051010070B50400D7
:101610000AD02068416821F008014160FFF7DAF93B
:1016200005464FF47A7608E0012070BDFFF7D2F945
:10163000401BB04201D9032070BD206840680007FC
:10164000F4D5002070BD10B5401EB0F1807F01D3ED
:10165000012010BD4FF0E02460610F21601701F000
:1016600058FA0020A06107202061002010BD7047BB
:101670007047000070B590F83C20012A26D0012464
:1016800080F83C40022280F83D2003685A689D683B
:1016900022F070060A6832435A600D4B02689A4283
:1016A00008D0B2F1804F05D00A4B9A4202D00A4BC3
:1016B0009A4204D1496825F080031943916080F86B
:1016C0003D40002180F83C10084670BD022070BDEE
:1016D000002C0140000400400008004010B5040048
:1016E00003D094F83D0010B107E0012010BD0020A8
:1016F00084F83C00204600F01FF8022084F83D00EA
:10170000211D206801F072F8012084F8460084F859
:101710003E0084F83F0084F8400084F8410084F8DB
:10172000420084F8430084F8440084F8450084F8BB
:101730003D00002010BD000000B585B000210091E3
:101740000191029103911B4A01681B4891421CD1EF
:10175000C16941F00201C161C16901F00201049156
:10176000816941F0040181618069694600F00400EB
:101770000490802000901148FFF732F800220621E3
:101780001D20FFF799F91D2010E00D4A91420FD15D
:10179000C16941F00401C161C069002200F0040088
:1017A000049005211E20FFF787F91E20FFF776F928
:1017B00005B000BD000400400010024000080140D8
:1017C0000008004090F83D10012901D00120704729
:1017D000022180F83D100168CA6842F00102CA6027
:1017E00000680B49884208D0B0F1804F05D0094904
:1017F000884202D00849884204D1816801F007017B
:10180000062903D0016841F0010101600020704702
:10181000002C014000040040000800400168CA6834
:1018200022F00102CA6001680A6A41F211131A42E9
:1018300007D10A6A9B101A4203D10A6822F00102FA
:101840000A60012180F83D100020704770B5044601
:1018500090F83C000025012817D0012684F83C6050
:10186000022084F83D002068826822F0770222F48A
:101870007F4282600868502838D00DDC20284FD085
:1018800005DC90B3102811D14AE0022070BD302849
:1018900046D040280AD13BE060282FD070280DD0D8
:1018A000B0F5805F03D0B0F5005F12D0012584F859
:1018B0003D60002084F83C00284670BDCB68D1E92B
:1018C0000121206800F0DBFF2068816841F077018A
:1018D00009E0CB68D1E90121206800F0D0FF206841
:1018E000816841F480418160E1E719E0CA68496894
:1018F000206801F079F85021206806E0CA6849683C
:10190000206801F0AFF86021206800F0C2FFCEE748
:10191000CA684968206801F067F840212068F4E748
:10192000226801461046F0E710B5124A016891425C
:101930001ED1007F02281BD10F480178002917D142
:1019400041880022B1F5806F08D20A4B38331B68FA
:101950000A4C24F81130491C418000E042800848BC
:101960000068426203482030016881F02001016074
:1019700010BD0000000400402000002018020020DC
:10198000880100202DE9F041054690F83C00002632
:101990000C46012810D0012085F83C0072B1042AC1
:1019A0001CD0082A2CD00C2A50D00126002085F803
:1019B0003C003046BDE8F0810220FBE7D4E900128C
:1019C000E368286801F022F82868816921F00C0199
:1019D000816128688169A26811430FE0D4E900128F
:1019E000E368286801F050F82868816921F44061B3
:1019F000816128688169A26841EA02218161D5E795
:101A00002868D4E9002C277B036A016A21F48071DD
:101A10000162C16923F4007321F0030141EA0C0162
:101A200021F0F00C39074FF400774CEA116107EA16
:101A300002221A43C16102622868C16921F00C01C7
:101A4000C1612868C169A26811432BE02868D4E904
:101A50000021E768036AD0F820C02CF4805CC0F84D
:101A600020C0D0F81CC023F400532CF4407C4CEA76
:101A7000012121F4704C4FF6FF7101EA07314FF458
:101A8000005741EA0C0107EA02321A43C1610262BF
:101A90002868C16921F44061C1612868C169A268F0
:101AA00041EA0221C16181E710B5040003D094F836
:101AB0003D0010B107E0012010BD002084F83C007B
:101AC000204600F01EF8022084F83D00211D206809
:101AD00000F08CFE012084F8460084F83E0084F873
:101AE0003F0084F8400084F8410084F8420084F804
:101AF000430084F8440084F8450084F83D00002049
:101B000010BD704730B50446002551B104290DD0F1
:101B1000082910D094F8410094F84520012811D1EB
:101B20000EE094F83E0094F84220F7E794F83F0066
:101B300094F84320F2E794F8400094F84420EDE74D
:101B4000012A01D0012030BD022059B1042912D050
:101B5000082919D084F8410084F845000C2938D0B0
:101B6000012534E084F83E0084F842002068C26811
:101B700042F0020210E084F83F0084F8430020683D
:101B8000C26842F0040207E084F8400084F8440090
:101B90002068C26842F00802C2600122206800F09A
:101BA00061FE0E492068884208D0B0F1804F05D010
:101BB0000B49884202D00B49884204D1816801F068
:101BC0000701062903D0016841F0010101602846A0
:101BD00030BD2068C26842F01002DDE7002C0140F1
:101BE00000040040000800402DE9F0410446006870
:101BF000C66805694FF00007A90713D5B10711D5CD
:101C0000F91E016101202077206880698007204645
:101C100002D0FFF789FE04E000F0A2F8204600F0B1
:101C200045F92777680716D5700714D521686FF036
:101C300004000861022020772068806910F4407F4A
:101C4000204602D0FFF770FE04E000F089F820463D
:101C500000F02CF92777280715D5300713D5216810
:101C60006FF008000861042020772068C0698007B1
:101C7000204602D0FFF758FE04E000F071F820463D
:101C800000F014F92777E80616D5F00614D5216878
:101C90006FF010000861082020772068C06910F4F8
:101CA000407F204602D0FFF73FFE04E000F058F8E6
:101CB000204600F0FBF82777E80708D0F00706D0A9
:101CC00021686FF001000861204600F03FF9280606
:101CD00008D5300606D521686FF0800008612046DF
:101CE000FFF7C5FC680608D5700606D521686FF0B9
:101CF00040000861204600F043F9A8060AD5B00666
:101D000008D521686FF0200008612046BDE8F04149
:101D1000FFF7AEBCBDE8F08100B585B000210091B1
:101D20000191029103910068B0F1804F11D10A48EE
:101D3000816941F0040181618069694600F0040015
:101D400004900C2000900220019003900348FEF7BD
:101D500047FD05B000BD0000001002400008014032
:101D6000704770B5044690F83C0000260D460128E7
:101D70000FD0012084F83C006AB1042A1DD0082A43
:101D80002FD00C2A3FD00126002084F83C0030469A
:101D900070BD022070BD206800F084FD206881695C
:101DA00041F0080181612068816921F004018161AD
:101DB000206881692A69114311E0206800F09AFDCA
:101DC0002068816941F4006181612068816921F4A2
:101DD00080618161206881692A6941EA022181610B
:101DE000D2E7206800F0B2FD2068C16941F0080127
:101DF000C1612068C16921F00401C1612068C16925
:101E00002A69114311E0206800F0CCFD2068C16907
:101E100041F40061C1612068C16921F48061C16140
:101E20002068C1692A6941EA0221C161ACE710B5A5
:101E3000040003D094F83D0010B107E0012010BD6C
:101E4000002084F83C00204600F01EF8022084F8B0
:101E50003D00211D206800F0C9FC012084F84600E7
:101E600084F83E0084F83F0084F8400084F8410084
:101E700084F8420084F8430084F8440084F8450064
:101E800084F83D00002010BD08B50068B0F1804F17
:101E900008D10548C16941F00101C161C06900F084
:101EA0000100009008BD00000010024070470000D3
:101EB00010B50446022249B104290ED0082913D0D6
:101EC00094F84100012816D0012010BD94F83E007E
:101ED0000128F9D184F83E200FE094F83F00012852
:101EE000F2D184F83F2008E094F840000128EBD1BB
:101EF00084F8402001E084F841200122206800F0AD
:101F0000B1FC0F492068884203D1426C42F4004280
:101F100042642068884208D0B0F1804F05D009495A
:101F2000884202D00849884204D1816801F0070143
:101F3000062903D0016841F001010160002010BDB5
:101F4000002C0140000400400008004000680849DF
:101F5000884203D1074A1188491C118006498842EA
:101F600004D106490120087000F00CB87047000049
:101F7000000800401800002000040040200000205D
:101F80007047FEE72DE9F05F4D4C2078E0B14D4DF4
:101F90004FF47A721346688842F2283100F0AEFDA1
:101FA000002704F1040890B14FF4FA72A946A888FA
:101FB000134641F2941100F0A1FD40B103254FF406
:101FC0000C7A4FF0010B40E00120BDE8F09F0226A3
:101FD00064E000BFC82339F815001A46514600F0E6
:101FE0008DFDE8B36D1CADB2C82339F815001A4653
:101FF000514600F083FD68B1B8F8061008EBD10037
:1020000001F0070C43780BFA0CF18B434370B8F8DE
:10201000060015E0C82339F815001A4640F29A6107
:1020200000F06CFDB0B3B8F8060008EBD00200F089
:10203000070C53780BFA0CF003435370B8F8060002
:10204000401C6D1CA8F80600ADB26088401E854299
:10205000C0DB4546681CFEF73FFA11281EDA00E097
:102060001BE0681CFEF738FA002817DB681CFEF737
:1020700033FA13490C31085C60704FF40061114869
:10208000FEF74BF9C4F805706772EF806780277020
:1020900000209AE7FFE7042600E003264FF40061E2
:1020A0000848FEF73AF9C4F805706772A8F8067098
:1020B000678027700448FFF785FB304685E70000FE
:1020C0002000002018020020880100201CB50021FB
:1020D0000420CDE900010B464FF4C87202A1054867
:1020E00002F0E0F81CBD0000764D6F646553656C2E
:1020F0006563740039360008F0B585B000243548B2
:102100000094019402940394816941F0100181616B
:10211000816901F010010491816941F02001816120
:10212000816901F020010491816941F0040181611C
:10213000816901F004010491816941F00801816124
:102140008069254E00F008000490002233213046BB
:10215000FEF73BFC214F002202213846FEF735FCFA
:1021600033200125CDE900050220CDE90240694672
:102170003046FEF735FB0320CDE90005CDE90240EE
:1021800069463846FEF72CFB4FF47440CDE9000455
:10219000694638460294FEF723FB28020090104857
:1021A000CDE9010469463046FEF71AFB4FF4F050C2
:1021B000CDE90004694630460294FEF711FB002287
:1021C00005211720FEF778FC1720FEF767FC05B005
:1021D000F0BD00000010024000080140000C01406A
:1021E000000021101CB500241848019416490094E1
:1021F0000160611E41604FF480718160FFF76AF8F1
:1022000008B1FEF729FA8DF804408DF805408DF8E5
:102210000640012201A90D48FFF7A2F908B1FEF717
:102220001BFA01208DF800008DF801008DF80200E6
:1022300002468DF8034069460448FFF72FF900284D
:1022400001D0FEF709FA1CBD002800402C01002037
:1022500010B58AB0002407941C2168460894FEF744
:102260007EF81A484FF0804101604721C0E901140F
:1022700040F2E731C0E903148461FFF7D8FD08B1EB
:10228000FEF7EAF9079407A910480894FFF7F2F956
:1022900008B1FEF7E1F96020CDE9000402940822BC
:1022A00069460A480494FFF75CFD08B1FEF7D4F9CB
:1022B0000C2269460548FFF754FD08B1FEF7CCF93A
:1022C0000248FFF729FD0AB010BD000040010020C0
:1022D00010B58AB000242448049405940694079409
:1022E000089409940094019402941E490394016097
:1022F0004721C0E9011444F61F61C0E9031480219D
:102300008161FFF7EBF908B1FEF7A6F94FF48050B1
:10231000049004A91448FFF799FA08B1FEF79CF954
:102320001148FFF7C1FB08B1FEF796F9089408A918
:102330000D480994FFF79EF908B1FEF78DF90220C8
:1023400000900120CDE90104082003900422694691
:102350000548FFF717FB002801D0FEF77DF90AB00A
:1023600010BD0000000400408801002010B586B0B8
:102370000024174800940194029403940494134990
:10238000059401604721C0E9011440F2E731C0E93A
:10239000031480218161FFF7A1F908B1FEF75CF910
:1023A0004FF48050009069460948FFF74FFA08B192
:1023B000FEF752F9049404A905480594FFF75AF969
:1023C000002801D0FEF748F906B010BD0008004013
:1023D000D0010020FEE7FEE770B500EB80000D4D58
:1023E000400004B2B5F90000201A02F0BDFAA96855
:1023F00002F01AFB0646204602F0B6FA696802F0BF
:1024000013FB314602F064F92C8002F091FA00B21D
:1024100070BD0000840000200148FEF7ADBE000042
:102420002C010020010901EB810100F00F0000EBFD
:102430004100C0B27047002102E00A38C0B2491C16
:102440000A28FAD2090740EA116070472DE9F041E5
:1024500004460025C07B627BA37B42E0012A16D0A4
:10246000032A14D0052A12D0072A10D0082A0ED029
:102470000A2A0CD00C2A0AD0042A10D0062A0ED020
:10248000092A0CD00B2A0AD0022A0DD028E01F2BD3
:102490000CD30C2A05D101221346401C20E01E2B30
:1024A00004D30123521C1BE01C2B02D203F10103B5
:1024B00016E011D183B29E0710D16426B3FBF6F764
:1024C00006FB173636B94FF4C876B3FBF6F706FBB2
:1024D00017331BB91D2303E01D2B01D10322012358
:1024E0006D1C8D42BAD3D1B2E0736173DAB2A273BC
:1024F00000F098F82073BDE8F08170B50446FEF74F
:1025000069FA05464FF47A7606E0FEF763FA401B57
:10251000B04201D9032070BD206840688006F4D520
:102520002068416841F010014160002070BD00004A
:1025300070B504460068416821F010014160FEF763
:1025400049FA05464FF47A7607E000BFFEF742FAF3
:10255000401BB04201D9032070BD2068406880064E
:10256000F4D5002070BD0168086A496A89B241EA61
:1025700000407047006881698AB2C1698BB2816985
:1025800089B28A4203D0C06961F31F40704743EAB1
:102590000240704710B586B00021044600910191B9
:1025A00003910A46049103A91D48FEF726FE002266
:1025B00004A91B48FEF7FAFD9DF80C004FF4616179
:1025C00048439DF80D101823C1EB011100EB810069
:1025D0009DF80E10084420444FF46161B0FBF1F205
:1025E000B2FBF3F403FB14228DF80020B0FBF1F2F0
:1025F00001FB12023C21B2FBF1F28DF80120B0FB8D
:10260000F1F201FB12008DF8020000226946044835
:10261000FEF7CEFE002801D0FEF71EF806B010BD72
:102620002C010020F0B56424C1EBC1030927A500EB
:10263000072603EB01130329B3FBF7F100F5FA605A
:10264000114401440AD2401EB0FBF4F201EB9001A8
:10265000B0FBF5F0891A0844001D08E0B0FBF4F265
:1026600001EB9001B0FBF5F0891A0844801CB0FB27
:10267000F6F106FB1100C0B2F0BD70B50D4606467E
:102680000024FFF73AFF48B93168280C0862316826
:10269000A8B248623046FFF74BFF00B10124204644
:1026A00070BD70B50D4606460024FFF726FF48B9F9
:1026B0003168280C88613168A8B2C8613046FFF7DC
:1026C00037FF00B10124204670BD00000C4A10788D
:1026D00013780009002103F0010341EAC3011378D4
:1026E00003F0020341EA43011378127803F0040374
:1026F00041EA5301C2F3C002114300F01BBA0000CB
:102700009000002010B508210448FFF7D1FBBDE878
:1027100010400C210148FFF7CBBB00004001002016
:1027200010B504210348FFF7EDF9BDE8104001485A
:10273000FFF748B88801002010B5FEF751F901F005
:1027400009FE012803D0BDE8104001F017BB10BD01
:1027500070B594B028216846FDF701FE14210AA83F
:10276000FDF7FDFD00250F9509200124109500902F
:10277000119512954FF4803004940694CDE901052B
:102780000226CDE907604FF4E01009906846FEF795
:102790005FFB08B172B6FEE70F20CDE90A064FF4E1
:1027A0008060CDE90C5002210AA80E95FEF784FA4C
:1027B00008B172B6FEE74FF40070CDE90F400FA8E4
:1027C000FEF704FA002801D072B6FEE714B070BD1F
:1027D000704700000148FFF707BA00008801002099
:1027E0000148FFF701BA0000D0010020F0B50268EF
:1027F000194B1A4C1A4D4FF08047984205D0B842F9
:1028000003D0A04201D0A84203D122F070064A684A
:102810003243984205D0B84203D0A04201D0A8422A
:1028200003D122F44074CA6822434C6922F080022A
:10283000224302608A68C2620A688262984201D1B9
:1028400009690163012141610169C90703D0016977
:1028500021F001010161F0BD002C014000040040A5
:102860000008004010B501F01F030121046A9940DF
:102870008C430462016A9A401143016210BD10B595
:10288000846842EA032224F47F440A43224382609C
:1028900010BD826822F070020A4342F00701816095
:1028A0007047000030B5036A026A22F0010202623A
:1028B0004268846924F073050C682C4323F00205F8
:1028C0008B682B430A4DA8420BD123F00805CB6837
:1028D00022F440722B434D6923F0040315438A69A7
:1028E0002A434260846149684163036230BD00004D
:1028F000002C014030B5026A036A23F01003036222
:10290000436884690D6824F4E64444EA05248D682C
:1029100022F0200242EA05120B4DA8420ED1CD68EA
:1029200022F0800242EA05124D6923F4406343EA33
:1029300085038D6922F0400243EA85034360846188
:1029400049688163026230BD002C014030B5036AE2
:10295000026A22F4807202624268C46923F400733E
:1029600024F073050C682C438D6843EA05230C4D55
:10297000A8420ED1CD6823F4006343EA05234D69D4
:1029800022F4405242EA05128D6923F4806342EA40
:1029900005124260C4614968C163036230BD000032
:1029A000002C014030B5046A026A22F480520262AF
:1029B0004268C3690D6823F4E64343EA05238D6842
:1029C00024F4005444EA0534064DA84204D14D696C
:1029D00022F4804242EA85124260C3614968016480
:1029E000046230BD002C014010B5036A046A24F073
:1029F00001040462846924F0F00444EA021423F020
:102A00000A020A438461026210BD000070B5056AC3
:102A1000046A24F00104046284690F4EB04208D0B5
:102A2000B0F1804F05D00D4EB04202D00C4EB042F6
:102A300003D124F00304144301E044F001041A0715
:102A400024F0F00444EA126225F00A0301F00A01BE
:102A500019438261016270BD002C014000040040F6
:102A60000008004010B5036A046A24F010040462F0
:102A7000846923F0A00324F4704444EA023243EA58
:102A800001118261016210BD30B5046A056A25F04A
:102A900010050562856925F4407545EA022222F495
:102AA00070454FF6FF7202EA033224F0A0032A4376
:102AB000A02404EA011119438261016230BD0000C3
:102AC00010B5FFF71FFE0020FDF7EAFC0348FEF7F4
:102AD00079FEBDE81040FFF723BE0000D0010020C2
:102AE00010B5FDF727FE04490870FFF7EFFDBDE8BC
:102AF0001040FDF715BD0000900000208A1A8242A8
:102B000004DA1944814201D901207047002070473E
:102B1000FEE70907090E002804DB00F1E02080F839
:102B20000014704700F00F0000F1E02080F8141D41
:102B30007047000030B501230024234A814213DD91
:102B400014814FF00000117800F1040521FA05F11D
:102B5000C90704D0401C00B20428F4DB28E003FAC3
:102B600000F15180938023E012DA14815FF00000BD
:102B70001178C0F10305E940C90704D0401C00B238
:102B80000428F5DB14E083405380022090800FE09E
:102B900011780320FF2901D0148107E01189491C15
:102BA00089B211810A2901D9948000E09080548073
:102BB00006480078002805D0054806490068884284
:102BC00000DA948030BD0000900000200200002058
:102BD0001C00002000002041FDF70AFFFFF7B8FDB0
:102BE000FFF78AFAFFF734FBFFF7C0FBFFF770FB34
:102BF000FFF7F8FAFFF764FF00F024F8FFF766FA32
:102C000000F032F8FEE738B50546EFF3058010B165
:102C10006FF005040CE0002401F0AAFB291A0090D3
:102C2000002903DD684600F0E5FE01E06FF00304D3
:102C3000204638BDEFF3058008B101F09FBB01F0DD
:102C400097BB0000EFF3058010B16FF005007047EF
:102C50000448016811B14FF0FF3070470121016055
:102C600000207047EC00002010B5EFF3058010B194
:102C70006FF0050010BD08480168012902D04FF02F
:102C8000FF3010BD054A002182F8141D02210160A9
:102C900000F080FF002010BDEC0000200BE000E001
:102CA0002DE9F041134C0F460546E6682068001DEB
:102CB00000F040FC681C07D137B12168BDE8F04145
:102CC0000D48091D00F0ACBC20683544B542456094
:102CD000216805D2A06BBDE8F041091D00F088BC59
:102CE000606B091D00F084FCA06A854200D2A562D9
:102CF000BDE8F0819C000020080F00202DE9F04184
:102D0000054600F027FD2D4CA068401CA0602068FF
:102D10002B4F10B1606930B32BE02560A06801280B
:102D200027D1002606EB860007EB800000F052FC5E
:102D3000761C382EF6D3234800F04CFC2148143082
:102D400000F048FC1F48283000F044FC1D483C308F
:102D500000F040FC1B48503000F03CFC1948606318
:102D60001430A06305E02068E96AC06A884200D890
:102D70002560606A401C60626864E86A2169884274
:102D800000D9206100EB800007EB8000291D00F0D6
:102D900047FC00F0FFFC606900280CD02068E96A5D
:102DA000C06A884207D208494FF080500860BFF3DC
:102DB0004F8FBFF36F8FBDE8F08100009C000020B3
:102DC000580A0020B80E002004ED00E038B500F0ED
:102DD000C1FC104C2068C8B90F4800F0FBFB0E483E
:102DE000143000F0F7FB0C48E060143020610A4B0F
:102DF0000020F03B009003F1500210210A2000F067
:102E0000F4FF206010B105A100F046FDBDE8384098
:102E100000F0C0BCD80000200C100020546D72518E
:102E20000000000030B4026C0B46002A0BD0C168D1
:102E30001144C1608468A14201D30168C16030BC03
:102E40001846FDF71DBA30BC70472DE9F041856B7F
:102E5000174604460026026C82B1C7B1E068FDF750
:102E60000FFAE168206C091AE1602268914202D2EF
:102E7000A168081AE060022F16D017E02068A8B9F0
:102E8000A06801F0E7FA06460020A0600EE0606846
:102E9000FDF7F6F9216C606808446060A16888421B
:102EA00004D32068606001E005B16D1E6D1CA56350
:102EB0003046BDE8F08110B5044690F8590058B18D
:102EC00001280CD002280FD0502080F31188BFF3C6
:102ED0004F8FBFF36F8FFEE7206B00F06FFC204633
:102EE000BDE8104000F06ABC10BD000010484FF46F
:102EF0002051420706D0C01D0D4920F00700411A9D
:102F0000C1F520510B4A00230144C2E900030839EE
:102F1000183A21F0070111604B600B600B1AC0E9F1
:102F2000001393604FF00040536050617047000001
:102F3000EC16002008010020144E154CA6F29C4708
:102F40004FF08058DFF84C9012E000BF00F002FC18
:102F5000F068C568281D00F0EDFAA068401EA0606A
:102F60006068401E606000F015FC2846FFF7A3FF74
:102F700060680028EAD138680128F9D9C9F80080CA
:102F8000BFF34F8FBFF36F8FF2E70000F40E002006
:102F90009C00002004ED00E070B51D46049C51B17A
:102FA000C4F80020C4E90F010121204600F050FFC1
:102FB00084F84C5070BD2460F4E700002DE9F05F08
:102FC0008846DDE90B941546834691009A460A9E91
:102FD000A522206BFDF799F96FF00301206B01EB3F
:102FE0008501084420F00707780707D0502080F3B8
:102FF0001188BFF34F8FBFF36F8FFEE70025B8F145
:10300000000F0FD05FF00000221818F8001082F8AF
:10301000341018F8001011B1401C1028F4D384F8B3
:10302000435001E084F83450382E00D33726E6624E
:10303000C4E91365201D00F0D8FA04F1180000F06F
:10304000D4FA2461C6F138006462A061656584F831
:10305000585052465946384600F05AFA2060B9F1A5
:10306000000F01D0C9F80040BDE8F09F30B511490C
:1030700000E011460A688242FBD34B685C18844228
:1030800003D1406818444860084643681C189442BD
:1030900009D1084C183C2468A24209D052681A444D
:1030A00042600A6812680260814200D0086030BD48
:1030B0000460F9E70801002070B5002441600B4D61
:1030C0000061914206D8D11A8269914206D2011D4F
:1030D000286907E09A4203D2994201D3012403E010
:1030E000011DE86800F084FA204670BDD800002079
:1030F00010B5044600F02EFBA06B28B15FF0000471
:1031000000F048FB204610BD0124F9E730B589B036
:103110003C4D6EE00498002806DADDE90601059AC8
:1031200090470498002864DB069C606910B1201D5C
:1031300000F000FA03A800F0D7F8024604980A2825
:1031400057D2DFE800F00505052D334A05052D337C
:1031500094F8280040F0010084F828000599A0693F
:10316000059B01442046FFF7A7FF68B3216A20466C
:10317000884794F8280040073BD500200090059828
:10318000A169002342181946204601F06DFAD8B90A
:10319000502080F31188BFF34F8FBFF36F8FFEE78E
:1031A00014F8280F20F00100207022E094F8280085
:1031B00040F0010084F828000598A06128B181182A
:1031C00013462046FFF778FF13E0502080F3118864
:1031D000BFF34F8FBFF36F8FFEE794F8280081078E
:1031E00003D4204600F0EAFA03E020F0010084F85E
:1031F0002800002204A9286800F07EFF002889D159
:1032000009B030BDD80000202DE9FC410F4605462D
:1032100000F004FD01A800F067F80446019818B119
:1032200001F090F9BDE8FC81254EAFB1306900682E
:10323000D0B30027291B3A46306800F041FB01F06B
:1032400081F90028EED11F494FF080500860BFF38C
:103250004F8FBFF36F8FE5E7A542EBD801F072F90E
:10326000F0682746C068C468201D00F063F994F830
:103270002800410719D5A0692B4641193A46204636
:10328000FFF71AFFA8B100200346014600902A4626
:10329000204601F0E9F960B9502080F31188BFF3AE
:1032A0004F8FBFF36F8FFEE707E020F0010084F837
:1032B0002800216A20468847B4E70127BAE70000C2
:1032C000D800002004ED00E00648416B096829B1F0
:1032D000416BC968C9684968816270474FF0FF3126
:1032E000FAE700009C00002070B5054601F040F8A8
:1032F000064E0446B068844203D200F009F801206B
:1033000000E0002028602046B46070BDD800002096
:10331000F8B5194D20E0C068C4680668201D00F0AB
:1033200009F9216A2046884794F82800400713D5F8
:10333000A0693044B04206D924616060211DE8686C
:1033400000F056F908E0002003460146009032469E
:10335000204601F089F938B1E86801680029DAD11E
:103360002969C5E90310F8BD502080F31188BFF327
:103370004F8FBFF36F8FFEE7D800002008484068EA
:10338000401C4FF0500080F3118804D0BFF34F8FE2
:10339000BFF36F8FFEE7BFF34F8FBFF36F8FFEE773
:1033A00010010020074CE068016841B1C0680021AD
:1033B000D0F80000FFF728FFFFF7A8FEF3E7012190
:1033C0000020F7E7D80000202DE9F041044600F086
:1033D000C1F994F9455004F1240609E0606A48B146
:1033E000304601F077F808B100F09AFB6D1E6DB21F
:1033F000002DF3DC4FF0FF3684F8456000F0CAF989
:1034000000F0A8F994F9445004F1100709E020698C
:1034100048B1384601F05EF808B100F081FB6D1E3E
:103420006DB2002DF3DC84F84460BDE8F04100F09B
:10343000B1B900002DE9F0410546002700F0EEFB90
:10344000324E306808B9FFF751FD706905424ED120
:10345000C5B3083568070ED005F00700C0F10800B5
:103460000544680707D0502080F31188BFF34F8FC1
:10347000BFF36F8FFEE72DB37068854237D82348BE
:10348000183001460C6801E020460C466168A942EC
:1034900002D221680029F7D131688C4227D0076811
:1034A0002168016060680837411B10290FD9601935
:1034B000420708D0502080F31188BFF34F8FBFF32D
:1034C0006F8FFEE713E041606560FFF7CFFD616835
:1034D0007068401A7060B268904200D2B060706943
:1034E00001430020C4E90001F068401CF06001F0D5
:1034F00029F8780707D0502080F31188BFF34F8F49
:10350000BFF36F8FFEE73846BDE8F081F000002082
:1035100010B5031F4FF080741C601B1F21F00101C8
:103520001960191F024B0B60143940380A6010BD36
:103530007D330008D0E9013201699A60D0E90123A6
:103540005A604A68824201D182684A600022026160
:103550000868401E0860086870470000034B03605D
:1035600003F15C0008608020106070473410002078
:10357000044B036003F15C0008604FF4807010603E
:10358000704700009012002008B5FFF753FB0F4C66
:103590000546206948B900220421012000F004FCFE
:1035A000206110B9002000F0FFF909480090323581
:1035B000FDF764F80090022300226946206900F0BC
:1035C0008BFC2846FFF71FFBF1E7000000000020FE
:1035D0000000C84200F108014FF0FF32C0E90112BB
:1035E000C1600161002101607047002101617047E5
:1035F00030B50B685A1C02D000F1080202E00269E3
:1036000004E02246546825689D42FAD953684B600D
:1036100099608A60516008610168491C016030BD91
:1036200042684A6093688B60936859609160086152
:103630000168491C016070471CB5FFF7FBFA374D64
:10364000374C06464FF00008FF274FF00509287851
:1036500014362A2809D02878232822D02878302820
:1036600039D028784F2850D053E02F70207890F030
:103670000100207084F8018010D029480830FCF740
:10368000DCFF6068002844D125494FF4C872091D49
:10369000CDE90091002323A125482CE02048001DFE
:1036A0002EE02F70607890F00100607084F8008048
:1036B0000ED01B48001DFCF7C0FFA06820BB1849B6
:1036C00000230831CDE9009164221AA11C4812E0C0
:1036D0001348083014E02F70A07890F00100A0701B
:1036E0000CD0E06880B90E4900230C31CDE900917F
:1036F000642214A1164800F0D5FD0AE008480C30F9
:10370000FCF79BFFFCF7DEFE03E0E07880F00100B1
:10371000E0703046FFF777FA99E7000021000020BB
:103720000000002076547261636B4D6F6465000089
:10373000913C00087652656D6F74654D6F6465004D
:10374000053900087641766F69644D6F6465000045
:1037500089350008502080F31188BFF34F8FBFF3E5
:103760006F8F0A494868401C486001280CD10848FE
:10377000006810F0FF0F07D0502080F31188BFF3CE
:103780004F8FBFF36F8FFEE77047000010010020DE
:1037900004ED00E00849486828B1401E486001D1A6
:1037A00080F311887047502080F31188BFF34F8F4A
:1037B000BFF36F8FFEE700001001002070B50028F6
:1037C0002AD0164DA0F1080460686969084207D143
:1037D000502080F31188BFF34F8FBFF36F8FFEE748
:1037E00022683AB1502080F31188BFF34F8FBFF3A6
:1037F0006F8FFEE78843606000F010FA60686968C8
:10380000084468602046FFF731FC2869401C2861A5
:10381000BDE8704000F096BE70BD0000F0000020D2
:103820004FF0E02000210161816105494FF47A7277
:103830000968B1FBF2F1491E41610721016170473E
:103840001C01002010B5FCF7F7FC114910280ED31D
:1038500000F1E02090F8F0030A78904207D250205F
:1038600080F31188BFF34F8FBFF36F8FFEE70948D6
:103870000068896800F4E060884207D9502080F32E
:103880001188BFF34F8FBFF36F8FFEE710BD0000AD
:10389000100100200CED00E010B5084B002200BF25
:1038A00053F832401CB1521C082AF9D310BD43F81A
:1038B000321003EBC201486010BD0000180A00205E
:1038C00070B515460E460446FFF744FF94F94410C0
:1038D0000020491C01D184F8440094F94510491C8A
:1038E00001D184F84500FFF755FFA06B28B92A469F
:1038F000314604F1240000F031F92046BDE8704063
:10390000FFF762BD08B5FFF795F905462248234E3B
:10391000234C4FF461774FF44879C7F100080090C9
:10392000B078323568B100226946306900F0E4FBB6
:10393000012806D11B480099814202DAFCF7C2FD3A
:10394000EEE720784C280FD0207852280FD020782E
:103950002B280ED020782D280FD02078382810D092
:103960002078372810D013E0394600200EE00021DF
:1039700008E04846FCF794FD0AE04846FCF786FD5F
:1039800006E04146384601E039464046FCF791FDE5
:103990002846FFF738F9C3E70000C84200000020BE
:1039A000210000200000204110B5020014D00F4873
:1039B000006B38B1502080F31188BFF34F8FBFF3F5
:1039C0006F8FFEE700F02AF900211046FFF768F933
:1039D00000F0B8FD002807D105494FF0805008607D
:1039E000BFF34F8FBFF36F8F10BD00009C0000200E
:1039F00004ED00E070B50D4604000BD095B11E4AF1
:103A0000106BB8B1502080F31188BFF34F8FBFF314
:103A10006F8FFEE7502080F31188BFF34F8FBFF305
:103A20006F8FFEE7502080F31188BFF34F8FBFF3F5
:103A30006F8FFEE700F0F2F8D268236859199342BD
:103A400004D98B420AD9914202D807E08B42FAD9B5
:103A5000881A21600021FFF723F900E0216000F0BF
:103A600071FD002807D105494FF080500860BFF371
:103A70004F8FBFF36F8F70BD9C00002004ED00E0FE
:103A800070B50546FFF766FE1E4C05B92568281D72
:103A9000FFF750FDA86A18B105F11800FFF74AFDBD
:103AA000606A401C60622068854207D1291D164863
:103AB000FFF7B6FD6068401C606007E0A068401E2C
:103AC000A0602846FFF7F7F9FFF7FEFBFFF762FE5D
:103AD0006069002814D02068854211D1206B38B16C
:103AE000502080F31188BFF34F8FBFF36F8FFEE735
:103AF00006494FF080500860BFF34F8FBFF36F8FC0
:103B000070BD00009C000020F40E002004ED00E0D9
:103B100002490A6A0260C968416070479C0000203F
:103B200001490120C86170479C00002010B50C4677
:103B300050B1094909681831FFF75AFD2046BDE820
:103B400010400121FFF7ACB8502080F31188BFF37B
:103B50004F8FBFF36F8FFEE79C00002070B51446B7
:103B60000D4668B10A4909681831FFF759FD0CB1D3
:103B70004FF0FF3521462846BDE87040FFF790B86A
:103B8000502080F31188BFF34F8FBFF36F8FFEE794
:103B90009C00002030B587B00024039405AA04A936
:103BA00003A80494FFF7DAFCDDE903010094CDE9F2
:103BB0000110002315A11748059A00F0A0FB164D2F
:103BC0000028E8621FD000F01FFD012809D0401C2A
:103BD00019D1502080F31188BFF34F8FBFF36F8F3F
:103BE000FEE7502080F31188BFF34F8FBFF36F8F34
:103BF0004FF0FF30A86201206861EC6007B0BDE8BB
:103C0000304000F067B807B030BD000049444C4573
:103C100000000000392F00089C0000200248016BC2
:103C2000491C0163704700009C000020164810B535
:103C3000016B11B10121C16110BD0021C161016998
:103C4000124A01E0B9B1491E01EB810352F8233059
:103C5000002BF7D001EB810302EB830202F1080491
:103C600053685B685360A34201D15B685360DA68B4
:103C70000260016110BD502080F31188BFF34F8FA7
:103C8000BFF36F8FFEE700009C000020580A002061
:103C9000FEF7D0FF0C4D0D4E0D4F0446A878323480
:103CA00060B100220949286900F026FA012805D1EF
:103CB0003068B84202DAFCF705FCEFE7FEF710FFC8
:103CC0002046FEF7A0FFE9E7000000201C000020CE
:103CD000000020411CB5264908780190FF2008709B
:103CE00008788DF800009DF800009DF8002000F095
:103CF000F000904207D0502080F31188BFF34F8F1F
:103D0000BFF36F8FFEE79DF800001A4C00F05000E3
:103D100020700720A06005E09DF8002052008DF87B
:103D20000020401E9DF800201206F5D4A060032854
:103D300007D0502080F31188BFF34F8FBFF36F8FF0
:103D4000FEE74FF44070A060019808700A480168CF
:103D500041F470010160016841F070410160FFF7BA
:103D60005FFD00206060FCF731FA00201CBD000000
:103D700000E400E01001002020ED00E010B550202C
:103D800080F31188BFF34F8FBFF36F8F00F0FEFAFF
:103D900018B104494FF080500860002080F311886A
:103DA00010BD000004ED00E0F8B517460E46050012
:103DB00013D005FB06F05030FFF73CFB04000AD09F
:103DC000002084F8460004F150023B463146284664
:103DD0000094FFF7E1F82046F8BD502080F31188E9
:103DE000BFF34F8FBFF36F8FFEE738B5049D18B157
:103DF00053B1CAB181B120E0502080F31188BFF3E4
:103E00004F8FBFF36F8FFEE7502080F31188BFF311
:103E10004F8FBFF36F8FFEE7502080F31188BFF301
:103E20004F8FBFF36F8FFEE739B1502080F31188B9
:103E3000BFF34F8FBFF36F8FFEE750241C46012363
:103E400084F846302B460094FFF7A6F8204638BD8C
:103E500070B50D46040025D0FFF77CFCD4E90F2097
:103E6000216802FB0011A1600021A163216861604B
:103E70000A46D4E90F01401E00FB0121E160214602
:103E80004FF0FF3001F8440F487004F110008DB17D
:103E9000FFF7A0FB04F12400FFF79CFBFFF77AFC7F
:103EA000012070BD502080F31188BFF34F8FBFF306
:103EB0006F8FFEE721690029F0D000F00BFB00288E
:103EC000ECD004494FF080500860BFF34F8FBFF330
:103ED0006F8FE3E704ED00E02DE9FF4782B01D4658
:103EE0008A464FF00008040003D0BAF1000F08D052
:103EF00011E0502080F31188BFF34F8FBFF36F8F15
:103F0000FEE7206C38B1502080F31188BFF34F8F4B
:103F1000BFF36F8FFEE7022D0AD1E06B012807D0B7
:103F2000502080F31188BFF34F8FBFF36F8FFEE7F0
:103F300000F010FA3F4F4FF000094FF0805648B99B
:103F4000049838B1502080F31188BFF34F8FBFF32E
:103F50006F8FFEE7FFF7FEFBA06BE16B884207D394
:103F6000022D05D00498D0B1B8F1000F1AD01EE090
:103F70002A4651462046FEF768FF616A19B104F1EE
:103F8000240000F0A7FA20B13E60BFF34F8FBFF3CB
:103F90006F8FFFF7FFFB012006B0BDE8F087FFF74A
:103FA000F9FB22E06846FFF7B3FD4FF00108FFF789
:103FB000F1FBFFF733FEFFF7CDFB94F94400401C03
:103FC00001D184F8449094F94500401C01D184F853
:103FD0004590FFF7DFFB04A9684600F029F930B1EE
:103FE0002046FFF7F1F900F0ADFA0020D4E7FFF723
:103FF000B1FBA06BE16B884213D1FFF7CBFB04F15F
:1040000010000499FFF792FD2046FFF7DDF900F05C
:1040100099FA00289ED13E60BFF34F8FBFF36F8F98
:1040200098E7FFF7B7FB2046FFF7CEF900F08AFAD2
:1040300090E7000004ED00E02DE9F0471F469046B0
:104040008946040003D0B9F1000F08D011E05020D8
:1040500080F31188BFF34F8FBFF36F8FFEE7206CA3
:1040600038B1502080F31188BFF34F8FBFF36F8FAB
:10407000FEE7022F0AD1E06B012807D0502080F321
:104080001188BFF34F8FBFF36F8FFEE7FFF7DAFBA7
:104090005020EFF3118680F31188BFF34F8FBFF3E9
:1040A0006F8FA06BE16B884206D3022F04D00020F3
:1040B00086F31188BDE8F08794F94550A06B3A4625
:1040C00049462046FEF7C1FE681C04D06D1C84F8EA
:1040D00045500120ECE7606A0028FAD004F1240082
:1040E00000F0F8F90028F4D0B8F1000FF1D0012168
:1040F000C8F80010EDE700002DE9F747002683B06F
:104100008A46040003D0BAF1000F08D011E0502015
:1041100080F31188BFF34F8FBFF36F8FFEE7206CE2
:1041200038B1502080F31188BFF34F8FBFF36F8FEA
:10413000FEE700F00FF9DFF8F4804FF000094FF0D0
:10414000805748B9059838B1502080F31188BFF3E3
:104150004F8FBFF36F8FFEE7FFF7FCFAA56BC5B17A
:1041600051462046FEF75EFE6D1EA563206950B1E4
:1041700004F1100000F0AEF928B1C8F80070BFF3E8
:104180004F8FBFF36F8FFFF705FB012006B0BDE82F
:10419000F087059808B11EB106E0FFF7FBFA27E0AB
:1041A0006846FFF7B5FC0126FFF7F4FAFFF736FD86
:1041B000FFF7D0FA94F94400401C01D184F84490F0
:1041C00094F94500401C01D184F84590FFF7E2FACC
:1041D00005A9684600F02CF8002820460AD0FFF711
:1041E000F3F800F0AFF92046FEF782FF0028B3D0C5
:1041F0000020CBE7FEF77CFF90B104F12400059985
:10420000FFF794FC2046FFF7DFF800F09BF9002849
:10421000A2D1C8F80070BFF34F8FBFF36F8F9BE739
:104220002046FFF7D1F800F08DF995E704ED00E0A6
:104230002DE9F0410C46050011D0C4B1FFF78AFA10
:10424000174BDA686E682068911B471C17D02F68DF
:104250001B6A9F4219D0964217D8012410E05020C3
:1042600080F31188BFF34F8FBFF36F8FFEE75020AD
:1042700080F31188BFF34F8FBFF36F8FFEE70024E9
:10428000FFF788FA2046BDE8F081884205D9401A38
:1042900020602846FFF73CFCF1E700202060DCE7C7
:1042A0009C0000202DE9FF5F8346DDE90E879946DB
:1042B00016468A469000FFF7BDF805001CD05C202A
:1042C000FFF7B8F8040014D00020256384F85900E3
:1042D000CDE90240CDE900874B463246514658466B
:1042E000FEF76CFE2046FEF709FD012004B0BDE894
:1042F000F09F2846FFF762FA4FF0FF30F6E7F0B57F
:1043000085B0DDE90B640A9DA6B1DCB15C2700979E
:104310002663022684F85960002604AFCDE90246E0
:10432000CDE90057FEF74AFE2046FEF7E7FC049869
:1043300005B0F0BD502080F31188BFF34F8FBFF35D
:104340006F8FFEE7502080F31188BFF34F8FBFF3CC
:104350006F8FFEE70548416919B1006B18B1002065
:104360007047012070470220704700009C00002029
:104370000148C068704700009C00002010B5FFF79E
:1043800061FA0148C06810BD9C0000202DE9F04191
:104390002E4C0027206B28B1A069401CA061384634
:1043A000BDE8F081E668761CE66013D1606B0068BA
:1043B00038B1502080F31188BFF34F8FBFF36F8F58
:1043C000FEE7606BA16B6163A063206A401C206202
:1043D000FEF77AFFA06ADFF87880864209D3606B27
:1043E0000068A0B1606BC068C5686868864211D279
:1043F000A0622068C06A00EB800158F82100012803
:1044000000D90127E0690028C9D00127C7E74FF08C
:10441000FF30EDE7281DFFF78DF8A86A18B105F108
:104420001800FFF787F8E86A2169884200D92061FF
:1044300000EB800108EB8100291DFFF7F1F8E86A25
:104440002168C96A8842CAD30127C8E79C000020B6
:10445000580A002070B504004FF0000133D01B4D06
:104460002868844207D0502080F31188BFF34F8F13
:10447000BFF36F8FFEE7206D38B1401E2065E36CFF
:10448000E26A9A421FD040B11DE0502080F31188AB
:10449000BFF34F8FBFF36F8FFEE7201DFFF74AF882
:1044A000E06CE062C0F13800A061E06A29698842EE
:1044B00000D92861064900EB800001EB8000211D36
:1044C000FFF7AEF80121084670BD00009C000020F7
:1044D000580A002070B5C068C46854B104F11800CF
:1044E0000646FFF727F8144D286B50B131461348A4
:1044F00015E0502080F31188BFF34F8FBFF36F8F0B
:10450000FEE7201DFFF716F8E06A2969884200D906
:1045100028610B4900EB800001EB8000211DFFF7B3
:104520007FF8E06A2968C96A884202D90120E861F7
:1045300070BD002070BD00009C000020E00E002037
:10454000580A00202DE9F0472C4D00242746286BFF
:1045500038B1FFF7FFF8286B401E2863286B40B185
:1045600046E0502080F31188BFF34F8FBFF36F8F69
:10457000FEE7A968224E0120D1B3A6F591698046D5
:104580003068E0B1F068C46804F11800FEF7D2FFAB
:10459000201DFEF7CFFFE06A2969884200D9286113
:1045A00000EB800109EB8100211DFFF739F8E06A7B
:1045B0002968C96A8842E3D3C5F81C80E0E70CB1DA
:1045C000FEF782FEAC694CB14FEA0806FFF7DEFE4B
:1045D00000B1EE61641EF9D10020A861E86938B12C
:1045E0000849012738070860BFF34F8FBFF36F8F6B
:1045F000FFF7D0F83846BDE8F08700009C000020A7
:10460000E00E002004ED00E010B586B0FEF7DEFB02
:10461000114C2068B8B100200390049005AA04A9A9
:1046200003A8FEF7A5FFDDE9032102208DE80700BE
:1046300000230AA10B48059AFFF761FE606010B1E4
:1046400006B0012010BD502080F31188BFF34F8FBA
:10465000BFF36F8FFEE70000D8000020546D72207A
:1046600053766300A53300082DE9FF411E4613462B
:1046700002000A9D4FF0000016D0144C2768002F4E
:104680000FD0CDE900130292062917DAFFF762FE78
:1046900002284FF000030FD0002269462068FFF780
:1046A0001BFC04B0BDE8F081502080F31188BFF3FB
:1046B0004F8FBFF36F8FFEE72A46EEE700233246A7
:1046C00069463846FFF7B8FCEBE70000D800002049
:1046D00090EA010F48BF81F0004100F1AA82421A1E
:1046E0003CBF801A89184FEAD0524FF07F4C1CEA29
:1046F000410FA2EBD15318BF9CEA026F00F03B8040
:104700004FF0004C4CEA00204CEA012121FA03FC56
:1047100010EB0C0C1ED202F1FF325FEA1C2040EBC2
:10472000C25038BF70471CF07F0F4FEA400C18BFD3
:10473000BCF17F4F38BF7047C3F12003994008BFD9
:1047400020F00100BCF17F4F38BF7047A0F1C0409E
:1047500000F031BA4FEA3C00000A40EBC25028BFDB
:104760001CF0FF0F4FEA400CE6D018BFBCF17F4FA2
:1047700038BF7047EAE79CEA026F05D010EA5C0F89
:1047800008BF00F00040704710B500F0CEF900BF40
:1047900064FBBE3E401058BFC0F14040491058BFB6
:1047A000C1F140418142EFF3008070474FF47F0C2C
:1047B0001CEAD0121EBF1CEAD11392EA0C0F93EA36
:1047C0000C0F00F0858090EA010F48BF42F4807220
:1047D00040F4000C41F400002CF07F4120F07F40B9
:1047E00000B58142A2EB03020FF2081CACEB504E65
:1047F000C0F100009EF800E04FEA4E0E00FB0EFCF8
:1048000038BF49004FEA2C1C02F5FA020CFB0EF3EC
:104810004FEACE1E4FEA112C4FEAC1210EEB635E28
:1048200042EB22420EFB0CFC4FEA1C5300FB03112F
:104830004FEA112C4FEA01310EFB0CFC4FEADC4C25
:1048400000FB0C11C14228BF09184CEB03335DF883
:1048500004EB10EB410143EBC250B2F57C0F38BFC3
:10486000704729D512F0F00F1CBF00F1C04000F0D6
:1048700000407047008182838485868788898B8C7D
:104880008D8E8F919293959697999A9C9D9FA0A2B9
:10489000A3A5A7A8AAACAEB0B2B3B5B7B9BCBEC009
:1048A000C2C5C7C9CCCED1D4D7D9DCDFE2E6E9ECAA
:1048B000F0F3F7FAFE0000004FEA400C0CF1807CA8
:1048C000BCF17E4F28BF7047B0F1C04000F073B913
:1048D00090EA010F0CEAD11348BF42F4807262459E
:1048E00038BF634507D213F47F0F16D080EA01006A
:1048F00000F00040704710B500F017F9097EFC3E4B
:1049000000F005B880EA010000F00040704780EA3E
:10491000010000F0004000F04EB912F47F0F04BF18
:104920000248704780EA010000F045B90000C07FEE
:1049300041000B0ED3F19E0208D950F400034FEA58
:10494000032323FA02F048BF4042704710B500F03D
:10495000ECF800BF49922480002070476FF00042BD
:1049600082EA20007047000010F0004148BF40423A
:10497000B0FA80F310FA03F2C3F19D030BD051EAB1
:10498000C35101EB1220530638BF704700F10100FC
:1049900008BF20F001007047B0FA80F310FA03F26C
:1049A000C3F19D030AD0D90501EB1220530638BF8D
:1049B000704700F1010008BF20F0010070470000BF
:1049C00050EA010C00F113801CF5000F58BFBCF534
:1049D000000F01D48842704707D710F5000F58BF69
:1049E00011F5000F15D488427047894270471CF5B5
:1049F000000F04D5BCF5000FF7D5814270474FF08A
:104A0000807C1CEB400F38BF1CEB410F01D2814270
:104A1000704710B500F089F8922449004FF000501B
:104A20004FF08051FFF7B6BE4FF47F0C1CEAD01256
:104A30001EBF1CEAD11392EA0C0F93EA0C0F00F090
:104A4000478090EA010F48BF42F480724FF0004C5B
:104A50004CEA00204CEA012102EB0302A0FB011307
:104A6000A2F50002002918BF43F001035B0028BF34
:104A70004FEA330342EB22425FEA132C4CEBC25065
:104A80002EBFBCEB436FB2F57C0F70474FEA036C4F
:104A9000BCF1004F08BF20F00100B2F57C0F38BF19
:104AA00070470BD582F0FF0212F5803FC8BF7047F8
:104AB00000F1C040D8BF00F00040704700F5000C86
:104AC0005FEA4C0C48BF7047B0F1C04000F073B8CB
:104AD00090EA010F0CEAD11348BF42F4807262459C
:104AE00038BF634504D280EA010000F000407047FF
:104AF00010B500F01AF800BF8900013E00F007B8B9
:104B000000F009B85FEA410C5FEA1C6C08D080EA4B
:104B1000010000F050B85FEA400C5FEA1C6CF6D16F
:104B20004FF00040A0F5800070470EF1020E2EF00D
:104B3000030E5EF8044B244204D44FEA4102B2F162
:104B40007F4F11D84FEA4003B3F17F4F0CD80ED1FD
:104B50004FEAD07CB2F17F4F0CEB4C0C0CF1020C05
:104B600008BF4CEBD17C04E04FF0080C01E04FEAA9
:104B7000D17C0CEB4C0324FA03F404F00704B4F1E9
:104B8000040C06D20EEB840CBDE810404CF0010C76
:104B90006047DFE80CF0070802024FF00040A0F584
:104BA000800010BD0846420018BFD2F1807288BF55
:104BB00000F0004010BDFF2141EAD050C005704711
:104BC00051EA000C00F113801CF5000F58BFBCF532
:104BD000000F01D48142704707D711F5000F58BF6D
:104BE00010F5000F15D481427047894270471CF5BB
:104BF000000F04D5BCF5000FF7D5884270474FF081
:104C0000807C1CEB410F38BF1CEB400F01D2884267
:104C1000704780EA010081EA000180EA0100FFF7A5
:104C2000F8BE000090EA010F48BF81F000413FF557
:104C300056AD421A04D882F00042A0EB02001144A3
:104C40004FEAD0524FF07F4C1CEA410FA2EBD153F8
:104C500018BF9CEA026F4AD04FF0004C4CEA00208B
:104C60004CEA012121FA03FCB0EB0C0C0FD412F03A
:104C7000FE0F36D05FEA4C001DD5001240EBC2504B
:104C800038BF70471CF03F0F18BF70470BE0A2F110
:104C900001025FEA1C2040EBC25038BF70471CF095
:104CA0007F0F18BF7047C3F12003994014BF401E07
:104CB00020F00100704780084FEA122308BF7047B8
:104CC000B0FA80FCA2EB0C02CCF1280C60FA0CF0DC
:104CD00093EA122F04BF00EBC25070474FEAC37033
:104CE0007047130A5FEADC1008BF7047F6E79CEADA
:104CF000026F04D010EA5C0F08BF0020704710B5A7
:104D0000FFF713FF40DFF63E81F0004070470000E0
:104D1000000000000000010203040607080900006B
:104D2000000001020304010202030405060708094A
:104D30000A0B0C0D0E0F10100102020304050607EA
:104D400008090A0B0C0D0E0F101000006C4D000826
:104D5000000000202C01000028010008E04D0008A0
:104D60002C01002024440000640100080115C3E860
:104D700003B2FFA0563132333435363738392A3052
:104D8000232B4C4F522D00FF45BA00FF46B900FFC0
:104D900047B800FF44BB00FF40BF00FF43BC00FF1B
:104DA00007F800FF15EA00FF09F600FF16E900FF0B
:104DB00019E600FF0DF200FF18E700FF08F700FFFB
:104DC0001CE300FF5AA500FF52AD337042B3F0411F
:104DD0000379F40165AAAAAAAA45127A00018210F1
:04000005080000ED02
:00000001FF
