:020000040800F2
:10000000C8200020210200087F17000817150008EB
:100010007D1700086B040008351B00080000000075
:10002000000000000000000000000000890100083E
:10003000B505000800000000CD0100081D180008EB
:100040003B0200083B0200083B0200083B0200089C
:100050003B0200083B0200083B0200083B0200088C
:100060003B0200083B0200083B0200083B0200087C
:100070003B0200083B0200083B0200083B0200086C
:100080003B0200083B0200083B0200083B0200085C
:100090003B0200083B0200083B0200083B0200084C
:1000A0003B0200083B0200083B0200083B0200083C
:1000B0003B02000895180008A11800083B02000840
:1000C0003B0200083B0200083B0200083B0200081C
:1000D0003B0200083B0200083B0200083B0200080C
:1000E0003B0200083B0200083B02000800F002F857
:1000F00000F03AF80AA090E8000C82448344AAF188
:100100000107DA4501D100F02FF8AFF2090EBAE885
:100110000F0013F0010F18BFFB1A43F0010318473B
:10012000F0390000103A0000103A24BF78C878C1B6
:10013000FAD8520724BF30C830C144BF04680C60ED
:10014000704700000023002400250026103A28BF35
:1001500078C1FBD8520728BF30C148BF0B60704739
:100160001FB51FBD10B510BD00F045F91146FFF7D2
:10017000F7FF01F03DFD00F063F903B4FFF7F2FF74
:1001800003BC00F06BF90000224B19680868B0E866
:10019000F00F80F30988BFF36F8F4FF0000080F3FA
:1001A00011884EF00D0E70470000000006480068F0
:1001B000006880F3088862B661B6BFF34F8FBFF363
:1001C0006F8F00DF00BF00BF08ED00E0EFF3098094
:1001D000BFF36F8F0F4B1A6820E9F00F106008B55E
:1001E0004FF0500080F31188BFF34F8FBFF36F8F34
:1001F00002F034FC4FF0000080F31188BDE80840A5
:1002000019680868B0E8F00F80F30988BFF36F8FB2
:10021000704700BF28000020EFF305807047000002
:100220000948804709480047FEE7FEE7FEE7FEE78A
:10023000FEE7FEE7FEE7FEE7FEE7FEE704480549C6
:10024000054A064B7047000093180008ED000008AF
:10025000C81A0020C8200020C81C0020C81C00208C
:10026000032A40F2308010F0030C00F0158011F8E2
:10027000013BBCF1020F624498BF11F801CB00F8BA
:10028000013B38BF11F8013BA2F1040298BF00F80E
:1002900001CB38BF00F8013B11F0030300F0578099
:1002A000083AC0F0088051F8043B083A51F804CBF2
:1002B000A0E80810F5E7121D5CBF51F8043B40F8B8
:1002C000043BAFF30080D20724BF11F8013B11F8C3
:1002D00001CB48BF11F8012B24BF00F8013B00F807
:1002E00001CB48BF00F8012B704702F0FF0343EA3F
:1002F000032242EA024200F05EB84FF0000200B56D
:10030000134694469646203922BFA0E80C50A0E838
:100310000C50B1F12001BFF4F7AF090728BFA0E8E6
:100320000C5048BF0CC05DF804EB890028BF40F8B2
:10033000042B08BF704748BF20F8022B11F0804FF4
:1003400018BF00F8012B704770477047704710B511
:10035000203AC0F00B80B1E81850203AA0E81850BD
:10036000B1E81850A0E81850BFF4F5AF5FEA027C7E
:1003700024BFB1E81850A0E8185044BF18C918C0ED
:10038000BDE810405FEA827C24BF51F8043B40F88E
:10039000043B08BF7047D20728BF31F8023B48BF73
:1003A00011F8012B28BF20F8023B48BF00F8012BB1
:1003B00070474FF000020429C0F0128010F0030CC7
:1003C0003FF49DAFCCF1040CBCF1020F18BF00F854
:1003D000012BA8BF20F8022BA1EB0C01FFF78FBF68
:1003E0005FEAC17C24BF00F8012B00F8012B48BF55
:1003F00000F8012B7047754600F02CF8AE4605005A
:100400006946534620F00700854618B020B5FFF72F
:1004100015FFBDE820404FF000064FF000074FF0F9
:1004200000084FF0000B21F00701AC46ACE8C00912
:10043000ACE8C009ACE8C009ACE8C0098D4670471B
:1004400010B50446AFF300802046BDE81040FFF72A
:1004500094BE000000487047641A0020014918202B
:10046000ABBEFEE7260002007047FEE710B504466B
:1004700000F040F82046BDE8104000F06BB810B521
:100480000C4600F037F82046BDE8104000F062B896
:1004900010B5002000F02EF8BDE81040002000F05C
:1004A00059B8000010B5124CB4F9020001F068F917
:1004B000B4F90410012908D002290BD099B1B4F97C
:1004C0000800BDE81040FFF7D1BFB4F90810084498
:1004D000643904E0B4F908201118A2F16400BDE801
:1004E0001040FFF7CCBFBDE81040FFF7D1BF0000C0
:1004F0001C00002070B51649134D144E0C680028DE
:100500000FDDA04200DC044601221021284600F045
:10051000EEF900222021284600F0E9F93068C46392
:1005200070BD6442A04200DB044600221021284630
:1005300000F0DDF901222021284600F0D8F93168C9
:100540006042C86370BD000000080140B800002090
:100550000400002070B51649134D144E0C68002895
:100560000FDDA04200DC044601221146284600F0BF
:10057000BEF900220221284600F0B9F9306804646F
:1005800070BD6442A04200DB0446002201212846DF
:1005900000F0ADF901220221284600F0A8F93168E7
:1005A0006042086470BD000000080140B8000020EF
:1005B00004000020704772B6FEE7000005484FF4C3
:1005C0007A7100884843044909684A6A1044002245
:1005D0004A62704708000020480100202DE9F041E0
:1005E000204C4FF0000847461D4E012202212046B4
:1005F00000F07DF9142000F065F800220221204669
:1006000000F075F925152946204600F06BF9002801
:10061000F9D0154900200968486214490880124839
:1006200000F004FD2946204600F05CF90128F9D0CD
:100630000D4800F027FDFFF7C1FF03F083F80C49D8
:1006400002F08AFF0446394603F090F9314620460D
:1006500003F08CF821464046BDE8F04102F00EBFA1
:100660000000C842000C01404801002008000020A2
:100670000000684230B51149002009688BB210496A
:1006800009688AB25FF00C0123FA01F404F0010456
:10069000A1F10C05AC400443491CE0B21029F3DB86
:1006A0005FF0090122FA01F303F001034C1FA3409C
:1006B0000343491CD8B20D29F4DB30BD080C0140BE
:1006C0000808014070B54FF0E02300215D690B4A36
:1006D0000B4C1268B2FBF4F49A6944439869904257
:1006E000FCD002D2A2EB000202E0A5EB00063244ED
:1006F00011440246A142F1D370BD0000A8000020C1
:1007000040420F002DE9F84FDFF8B8910024A9F11D
:10071000040B23460F2709F1040AABF1040EC9E0CC
:100720000125A5402A40AA427DD1674ED1F804C0D8
:10073000ACEB0608B44532D014DCBCF1030F3AD060
:1007400009DCBCF1000F2AD0BCF1010F1CD0BCF1B8
:10075000020F31D11DE0BCF1110F17D0BCF1120F07
:100760002AD119E0B8F5881F19D006DCB8F5803F0A
:1007700015D0B8F5801F1FD111E0B8F5001F0ED0BD
:10078000B8F5041F18D10AE0CB6815E0CB681B1D33
:1007900012E0CB6808330FE0CB680C330CE08B68B9
:1007A0002BB1012B4FF0080303D0456104E0042373
:1007B00002E0056100E00023FF2A01D8064601E0BF
:1007C00000F104064FEA840501D9A5F12005D6F809
:1007D000008007FA05FC28EA0C0803FA05F548EA48
:1007E0000508C6F800804D68ED0062D5374DAE694A
:1007F00046F00106AE61AD6924F0030605F001057F
:100800000095334D06EB050CDCF80850A607360FB3
:1008100007FA06F825EA0805DFF8B880404503D155
:100820004FF0000817E044E0DFF8AC80404502D10B
:100830004FF001080FE0DFF8A480404502D14FF0EF
:10084000020808E0DFF89880404502D14FF0030825
:1008500001E04FF0040808FA06F848EA0508CCF869
:1008600008804D68D9F80060ED024D4601D5164369
:1008700000E096432E604D68DAF80060AD02554600
:1008800001D5164300E096432E604D68DBF800600A
:10089000AD035D4601D5164300E096432E604D68DA
:1008A000DEF80060ED03754601D5164300E096437F
:1008B0002E60641C0D682A46E5407FF431AFBDE828
:1008C000F88F0000080401400000111000100240E1
:1008D0000000014000080140000C014000100140F0
:1008E000001401408068084000D0012070470AB120
:1008F000016170470904FBE7014880687047000008
:10090000AC00002002488168027811448160704781
:10091000AC000020074810B5016841F010010160EB
:10092000032000F07BF80F2000F006F800F024F818
:10093000002010BD0020024070B50D4D04464FF45C
:100940007A712878B1FBF0F00A490968B1FBF0F040
:1009500000F0C2FA48B9102C07D200222146501EDE
:1009600000F03CF800206C6070BD012070BD0000FC
:10097000AC000020A80000200F4808B5816941F0B4
:1009800001018161816901F001010091C16941F0BA
:100990008051C161C069002200F0805000900F2199
:1009A000901E00F01BF80548416821F0E06141F01D
:1009B0000071416008BD00000010024000000140CD
:1009C000002809DB00F01F0201219140400980004E
:1009D00000F1E020C0F8001170470000F0B40E4BA9
:1009E0001B680C46C3F30223C3F10705042D00D98D
:1009F0000425191D072901D2002300E0DB1E012672
:100A000006FA05F1491E214099409E40761E164087
:100A10003143F0BC01F08FB80CED00E0064900F066
:100A2000070208684FF6FF03184040EA0220034A15
:100A300010430860704700000CED00E00000FA056C
:100A40002DE9F0470F46050061D0434E306800F0B5
:100A50000700B84209D2306820F007003843306000
:100A6000306800F00700B84251D128683B4C81073C
:100A700012D5400703D5606840F4E06060602878D4
:100A8000000703D5606840F4605060606068A96842
:100A900020F0F000084360602878C00728D068681C
:100AA000012810D02168022810D0890700292EDAE9
:100AB000616821F0030101436160FFF71DFF80467B
:100AC00041F288390DE021688903EFE78901EDE7FC
:100AD000FFF712FFA0EB0801494502D90320BDE84A
:100AE000F0876068696800F00C00B0EB810FEFD10F
:100AF000306800F00700B8420BD9306820F00700DA
:100B000038433060306800F00700B84201D001205F
:100B1000E5E72878400705D56068E96820F4E060DB
:100B2000084360602878000706D56068296920F4CA
:100B3000605040EAC100606000F018F86168084A3F
:100B4000C1F30311515CC8400649086006480068BB
:100B5000FFF7F2FE0020C2E7002002400010024032
:100B6000E03A0008A8000020B00000200E4A5168BA
:100B70000E4801F00C03042B11D0082B0FD10C48A8
:100B8000C1F38343C903C05C0AD55168084AC1F365
:100B90004041921E515C054A5043B0FBF1F0704752
:100BA00004494843704700000010024000127A00D8
:100BB000F23A000800093D002DE9F84F040070D01A
:100BC0002078C04DC00749D06868C0F38100012873
:100BD00007D06868C0F38100022809D16868C003A3
:100BE00006D52868800339D560680028E7D035E04D
:100BF0006068B0F5803F0BD010B1B0F5A02F11D0D8
:100C0000286820F480302860286820F4802002E0E2
:100C1000286840F480302860606890B1FFF76CFE6F
:100C200006460AE0286840F480202860F0E700BF0C
:100C3000FFF762FE801B642873D828688003F7D50D
:100C40000CE0FFF759FE064605E000BFFFF754FE33
:100C5000801B6428F0D828688003F7D420789A4E47
:100C600080074FF001094FF0000839D5686810F08F
:100C70000C0F07D06868C0F38100022809D16868AA
:100C8000C00306D42868800714D52069012808D13C
:100C900010E02069B0B1C6F80090FFF72DFE0746BE
:100CA00005E00AE1FFF728FEC01B0228C4D8286827
:100CB0008007F7D52868616920F0F80040EAC10094
:100CC00028600DE0C6F80080FFF716FE074604E036
:100CD000FFF712FEC01B022823D828688007F7D42C
:100CE000207800072CD57948A169D9B1C0F80090C7
:100CF000FFF702FE074604E0FFF7FEFDC01B0228D7
:100D00000FD8686A8007F7D571484FF4FA51006828
:100D1000B0FBF1F0009000BF0098411E0091FAD2A4
:100D20000EE080E0C0F80080FFF7E6FD074604E033
:100D3000FFF7E2FDC01B022875D8686A8007F7D468
:100D40002078400760D5E8690027C00008D4E8692A
:100D500040F08050E861E869012700F08050009081
:100D60005C480168C90513D40168834641F4807169
:100D70000160FFF7C1FD824606E000BFFFF7BCFD42
:100D8000A0EB0A0064284ED8DBF80000C005F5D5BA
:100D9000E06801280AD008B1052813D0286A20F09D
:100DA00001002862286A20F0040002E0286A40F06E
:100DB00001002862E06841F2883B98B1FFF79CFD92
:100DC00082460BE0286A40F004002862EEE700BF8C
:100DD000FFF792FDA0EB0A0159455AD8286A80070F
:100DE000F6D50CE0FFF788FD824605E0FFF784FDAD
:100DF000A0EB0A0159454CD8286A8007F6D41FB1E8
:100E0000E86920F08050E861E06988B36968C1F35F
:100E10008101022944D00228C6F8608004D0FFF77F
:100E20006BFD044638E034E0FFF766FD074604E05A
:100E3000FFF762FDC01B02282BD828688001F7D479
:100E4000206AB0F5803F05D16868A16820F40030C1
:100E500008436860D4E908010843696821F4741103
:100E600008436860C6F86090FFF746FD044606E058
:100E700025E000BFFFF740FD001B022809D82868C5
:100E80008001F7D51BE000BFFFF736FD001B0228ED
:100E900002D90320BDE8F88F28688001F4D40EE061
:100EA0000128F7D06868226A00F48031914204D1A9
:100EB000616A00F47010884201D00120EAE7002046
:100EC000E8E7000000100240000042428004424275
:100ED000A80000200070004010B5401EB0F1807FD7
:100EE00001D3012010BD4FF0E02460610F21601795
:100EF00000F021FE0020A06107202061002010BD2D
:100F00007047704770B590F83C20012A26D0012424
:100F100080F83C40022280F83D2003685A689D68B2
:100F200022F070060A6832435A600D4B02689A42FA
:100F300008D0B2F1804F05D00A4B9A4202D00A4B3A
:100F40009A4204D1496825F080031943916080F8E2
:100F50003D40002180F83C10084670BD022070BD65
:100F6000002C0140000400400008004010B50400BF
:100F700003D094F83D0010B107E0012010BD00201F
:100F800084F83C00204600F01FF8022084F83D0061
:100F9000211D206800F08AFC012084F8460084F8B6
:100FA0003E0084F83F0084F8400084F8410084F853
:100FB000420084F8430084F8440084F8450084F833
:100FC0003D00002010BD000008B5154A0168154815
:100FD00091420ED1C16941F00201C161C069002294
:100FE00000F00200009006211D20FFF7F7FC1D20F5
:100FF00010E00D4A914211D1C16941F00401C16173
:10100000C069002200F00400009005211E20FFF7B7
:10101000E5FC1E20BDE80840FFF7D2BC08BD00007B
:1010200000040040001002400008004090F83D100D
:10103000012901D001207047022180F83D1001688C
:10104000CA6842F00102CA6000680B49884208D0B1
:10105000B0F1804F05D00949884202D00849884242
:1010600004D1816801F00701062903D0016841F02D
:101070000101016000207047002C01400004004085
:10108000000800400168CA6822F00102CA600168D5
:101090000A6A41F211131A4207D10A6A9B101A42D6
:1010A00003D10A6822F001020A60012180F83D1094
:1010B0000020704770B5044690F83C0000250128D8
:1010C00017D0012684F83C60022084F83D00206897
:1010D000826822F0770222F47F42826008685028FA
:1010E00038D00DDC20284FD005DC90B3102811D16A
:1010F0004AE0022070BD302846D040280AD13BE0AB
:1011000060282FD070280DD0B0F5805F03D0B0F5E7
:10111000005F12D0012584F83D60002084F83C0077
:10112000284670BDCB68D1E90121206800F007FC9A
:101130002068816841F0770109E0CB68D1E901219D
:10114000206800F0FCFB2068816841F480418160E8
:10115000E1E719E0CA684968206800F0A5FC502161
:10116000206806E0CA684968206800F0AEFC60218B
:10117000206800F0EEFBCEE7CA684968206800F0FE
:1011800093FC40212068F4E7226801461046F0E70E
:1011900070472DE9F04104460068C66805694FF0C4
:1011A0000007A90713D5B10711D5F91E0161012068
:1011B0002077206880698007204602D0FFF7E8FF8B
:1011C00004E000F0A3F8204600F046F9277768070E
:1011D00016D5700714D521686FF00400086102204D
:1011E00020772068806910F4407F204602D0FFF706
:1011F000CFFF04E000F08AF8204600F02DF92777B1
:10120000280715D5300713D521686FF0080008614D
:10121000042020772068C0698007204602D0FFF7AD
:10122000B7FF04E000F072F8204600F015F92777C8
:10123000E80616D5F00614D521686FF01000086195
:10124000082020772068C06910F4407F204602D033
:10125000FFF79EFF04E000F059F8204600F0FCF88C
:101260002777E80708D0F00706D021686FF0010063
:101270000861204600F040F9280608D5300606D55A
:1012800021686FF0800008612046FFF739FE68068C
:1012900008D5700606D521686FF040000861204629
:1012A00000F038F9A8060AD5B00608D521686FF015
:1012B000200008612046BDE8F041FFF722BEBDE8EE
:1012C000F081000000B585B00021009101910291EC
:1012D00003910068B0F1804F11D10A48816941F053
:1012E000040181618069694600F0040004900C20CB
:1012F00000900220019003900348FFF703FA05B025
:1013000000BD00000010024000080140704770B5A9
:10131000044690F83C0000260D4601280FD001201D
:1013200084F83C006AB1042A1DD0082A2FD00C2A68
:101330003FD00126002084F83C00304670BD0220DA
:1013400070BD206800F00EFB2068816941F0080143
:1013500081612068816921F00401816120688169CF
:101360002A69114311E0206800F024FB206881699C
:1013700041F4006181612068816921F480618161AB
:10138000206881692A6941EA02218161D2E72068E7
:1013900000F03CFB2068C16941F00801C161206890
:1013A000C16921F00401C1612068C1692A69114342
:1013B00011E0206800F056FB2068C16941F400612B
:1013C000C1612068C16921F48061C1612068C1697F
:1013D0002A6941EA0221C161ACE710B5040003D0DB
:1013E00094F83D0010B107E0012010BD002084F802
:1013F0003C00204600F01EF8022084F83D00211D2C
:10140000206800F053FA012084F8460084F83E007A
:1014100084F83F0084F8400084F8410084F84200DA
:1014200084F8430084F8440084F8450084F83D00C3
:10143000002010BD08B50068B0F1804F08D1054804
:10144000C16941F00101C161C06900F00100009073
:1014500008BD0000001002407047000010B50446AF
:10146000022249B104290ED0082913D094F8410072
:10147000012816D0012010BD94F83E000128F9D1B2
:1014800084F83E200FE094F83F000128F2D184F860
:101490003F2008E094F840000128EBD184F8402078
:1014A00001E084F841200122206800F03BFA0F4956
:1014B0002068884203D1426C42F4004242642068B2
:1014C000884208D0B0F1804F05D00949884202D047
:1014D0000849884204D1816801F00701062903D038
:1014E000016841F001010160002010BD002C0140A5
:1014F000000400400008004000680449884203D10D
:1015000003490888401C088070470000000800401C
:10151000080000207047FEE71CB5094A0021094871
:1015200000F0D4FB08496422086000210420CDE9C2
:1015300000010B4605A1084801F08AFD1CBD000012
:10154000BC3A0008F91700080000002053746172CB
:101550007452756E00000000552800082DE9F04116
:1015600086B000242D48009401940294039481696C
:1015700041F010018161816901F0100104918169DC
:1015800041F020018161816901F0200104918169AC
:1015900041F004018161816901F0040104918169D4
:1015A00041F0080181618069DFF8748000F0080073
:1015B0000490002233214046FFF799F9194F002289
:1015C00002213846FFF793F9332001250226CDE9A1
:1015D0000005CDE9024669464046FFF793F803202F
:1015E000CDE90240CDE9006569463846FFF78AF843
:1015F0004FF47440CDE90004694638460294FFF781
:1016000081F84FF4F050CDE9000469464046029459
:10161000FFF778F806B0BDE8F08100000010024046
:1016200000080140000C014010B58AB00024079466
:101630001C2168460894FEF760FE1A484FF080416E
:1016400001604721C0E9011440F2E731C0E9031409
:101650008461FFF7C2FE08B1FEF7ADFF079407A94A
:1016600010480894FFF74EFC08B1FEF7A4FF602075
:10167000CDE900040294082269460A480494FFF761
:1016800046FE08B1FEF797FF0C2269460548FFF7B2
:101690003EFE08B1FEF78FFF0248FFF713FE0AB0C7
:1016A00010BD0000B800002010B586B00024184816
:1016B00000940194029403940494144905940160E5
:1016C00041F61F41C0E9011440F2F311C0E90314CF
:1016D00080218161FFF74AFC08B1FEF76CFF4FF4EF
:1016E0008050009069460A48FFF7E4FC08B1FEF715
:1016F00062FF049404A906480594FFF703FC002840
:1017000001D0FEF758FF06B010BD000000040040F5
:101710000001002010B586B0002417480094019401
:101720000294039404941349059401604721C0E98D
:10173000011440F2E731C0E9031480218161FFF711
:1017400015FC08B1FEF737FF4FF480500090694652
:101750000948FFF7AFFC08B1FEF72DFF049404A978
:1017600005480594FFF7CEFB002801D0FEF723FFC4
:1017700006B010BD0008004048010020FEE7FEE76B
:1017800070B500EB80000D4D400004B2B5F90000CB
:10179000201A01F0BFFFA96802F01CF80646204697
:1017A00001F0B8FF696802F015F8314601F066FEF5
:1017B0002C8001F093FF00B270BD000010000020EB
:1017C0000C4A107813780009002103F0010341EA64
:1017D000C301137803F0020341EA4301137812783E
:1017E00003F0040341EA5301C2F3C002114300F0C5
:1017F000B3B900001C000020012000F00EFAFBE746
:1018000010B508210448FFF729FEBDE810400C215F
:101810000148FFF723BE0000B800002010B5FFF715
:1018200071F801F06DFC012803D0BDE8104001F013
:101830009BB910BD30B58FB028216846FEF75DFD1D
:1018400014210AA8FEF759FD01210804CDE9001072
:101850000024029402250491CDE907504FF4E010D2
:1018600009906846FFF7A8F908B172B6FEE70F20A5
:10187000CDE90A054FF48060CDE90C4002210AA8A9
:101880000E94FFF7DDF8002801D072B6FEE70FB026
:1018900030BD70470148FFF77CBC0000000100200C
:1018A0000148FFF776BC000048010020F0B502684F
:1018B000194B1A4C1A4D4FF08047984205D0B84248
:1018C00003D0A04201D0A84203D122F070064A689A
:1018D0003243984205D0B84203D0A04201D0A8427A
:1018E00003D122F44074CA6822434C6922F080027A
:1018F000224302608A68C2620A688262984201D109
:1019000009690163012141610169C90703D00169C6
:1019100021F001010161F0BD002C014000040040F4
:101920000008004010B501F01F030121046A99402E
:101930008C430462016A9A401143016210BD10B5E4
:10194000846842EA032224F47F440A4322438260EB
:1019500010BD826822F070020A4342F007018160E4
:101960007047000030B5036A026A22F00102026289
:101970004268846924F073050C682C4323F0020547
:101980008B682B430A4DA8420BD123F00805CB6886
:1019900022F440722B434D6923F0040315438A69F6
:1019A0002A434260846149684163036230BD00009C
:1019B000002C014030B5026A036A23F01003036271
:1019C000436884690D6824F4E64444EA05248D687C
:1019D00022F0200242EA05120B4DA8420ED1CD683A
:1019E00022F0800242EA05124D6923F4406343EA83
:1019F00085038D6922F0400243EA850343608461D8
:101A000049688163026230BD002C014030B5036A31
:101A1000026A22F4807202624268C46923F400738D
:101A200024F073050C682C438D6843EA05230C4DA4
:101A3000A8420ED1CD6823F4006343EA05234D6923
:101A400022F4405242EA05128D6923F4806342EA8F
:101A500005124260C4614968C163036230BD000081
:101A6000002C014030B5046A026A22F480520262FE
:101A70004268C3690D6823F4E64343EA05238D6891
:101A800024F4005444EA0534064DA84204D14D69BB
:101A900022F4804242EA85124260C36149680164CF
:101AA000046230BD002C014010B5036A046A24F0C2
:101AB00001040462846924F0F00444EA021423F06F
:101AC0000A020A438461026210BD10B5036A046A07
:101AD00024F010040462846923F0A00324F4704409
:101AE00044EA023243EA01118261016210BD000042
:101AF00010B5FFF785FE4FF4FA70FEF7B7FCBDE8AE
:101B000010400148FFF792BA0001002010B5FEF71F
:101B1000B1FD06490870FFF753FEFEF75FFD04496B
:101B20000860BDE81040FEF7BDBC00001C000020AE
:101B30000C000020FEE70907090E002804DB00F175
:101B4000E02080F80014704700F00F0000F1E02062
:101B500080F8141D7047000030B501230024214A8D
:101B6000814213DDD4804FF00000117800F10405AC
:101B700021FA05F1C90704D0401C00B20428F4DBA7
:101B800028E003FA00F15180938023E012DAD48038
:101B90005FF000001178C0F10305E940C90704D0E7
:101BA000401C00B20428F5DB14E08340538002207F
:101BB00090800FE011780320FF2901D0D48007E046
:101BC000D188491C89B2D1800A2901D9948000E0CA
:101BD00090805480044805490068884200DA948067
:101BE00030BD00001C0000200C000020000020413F
:101BF000FEF790FEFFF71EFEFFF7B0FCFFF714FDA7
:101C0000FFF788FDFFF750FDFFF772FF00F030F897
:101C1000FFF782FC00F03EF8FEE710B5EFF3058118
:101C200011B16FF0050403E0002408B100F01CFEC0
:101C3000204610BD38B50546EFF3058010B16FF0B2
:101C400005040CE0002401F069FA291A009000292B
:101C500003DD684600F02EFE01E06FF0030420462D
:101C600038BDEFF3058008B101F05EBA01F056BA55
:101C7000EFF3058010B16FF005007047044801686C
:101C800011B14FF0FF307047012101600020704713
:101C90007800002010B5EFF3058010B16FF005005B
:101CA00010BD08480168012902D04FF0FF3010BD77
:101CB000054A002182F8141D0221016000F082FE15
:101CC000002010BD780000200BE000E02DE9FF416E
:101CD0004FEA01034FF00005EFF30581039549BB7F
:101CE00040B38027182100244AB3166806B1344651
:101CF00096691EB13146761E382E02D21679F60745
:101D000003D0002004B0BDE8F081566906B1B708E1
:101D1000D2F808C0BCF1000F0DD0D5685C2D18D3E7
:101D200012693AB136B18DE806103A46214601F003
:101D3000BCF903900DE0D6685EB912694AB903AAEE
:101D4000CDE90012BAB2214601F082F9012800D093
:101D500003950398D6E700002DE9F041134C0F4698
:101D60000546E6682068001D00F040FC681C07D1AD
:101D700037B12168BDE8F0410D48091D00F086BC6F
:101D800020683544B5424560216805D2A06BBDE8A6
:101D9000F041091D00F062BC606B091D00F05EFCA3
:101DA000A06A854200D2A562BDE8F081280000202B
:101DB000800600202DE9F041054600F073FC2D4C13
:101DC000A068401CA06020682B4F10B1606930B340
:101DD0002BE02560A068012827D1002606EB8600AD
:101DE00007EB800000F02CFC761C382EF6D323483D
:101DF00000F026FC2148143000F022FC1F48283057
:101E000000F01EFC1D483C3000F01AFC1B4850300E
:101E100000F016FC194860631430A06305E02068E8
:101E2000E96AC06A884200D82560606A401C606226
:101E30006864E86A2169884200D9206100EB80006B
:101E400007EB8000291D00F021FC00F04BFC6069CD
:101E500000280CD02068E96AC06A884207D2084985
:101E60004FF080500860BFF34F8FBFF36F8FBDE816
:101E7000F081000028000020D00100203006002062
:101E800004ED00E038B500F00DFC104C2068C8B936
:101E90000F4800F0D5FB0E48143000F0D1FB0C4881
:101EA000E060143020610A4B0020F03B009003F109
:101EB000500210210A2000F06DFE206010B105A133
:101EC00000F092FCBDE8384000F00CBC640000203B
:101ED00084070020546D72510000000030B4026C81
:101EE0000B46002A0BD0C1681144C1608468A1422E
:101EF00001D30168C16030BC1846FEF7B1B930BCEF
:101F000070472DE9F041856B174604460026026CA8
:101F100082B1C7B1E068FEF7A3F9E168206C091A45
:101F2000E1602268914202D2A168081AE060022FA3
:101F300016D017E02068A8B9A06801F061F906463C
:101F40000020A0600EE06068FEF78AF9216C6068EE
:101F500008446060A168884204D32068606001E0A2
:101F600005B16D1E6D1CA5633046BDE8F08110B54E
:101F7000044690F8590058B101280CD002280FD01F
:101F8000502080F31188BFF34F8FBFF36F8FFEE7B0
:101F9000206B00F0BBFB2046BDE8104000F0B6BB54
:101FA00010BD000010484FF44061420706D0C01D2C
:101FB0000D4920F00700411AC1F540610B4A00238A
:101FC0000144C2E900030839183A21F00701116001
:101FD0004B600B600B1AC0E9001393604FF0004098
:101FE0005360506170470000640E00209400002090
:101FF000144E154CA6F29C474FF08058DFF84C90D9
:1020000012E000BF00F04EFBF068C568281D00F02C
:10201000EDFAA068401EA0606068401E606000F09D
:1020200061FB2846FFF7A3FF60680028EAD1386803
:102030000128F9D9C9F80080BFF34F8FBFF36F8F24
:10204000F2E700006C0600202800002004ED00E00C
:1020500070B51D46049C51B1C4F80020C4E90F01BD
:102060000121204600F0CAFD84F84C5070BD246068
:10207000F4E700002DE9F05F8846DDE90B94154692
:10208000834691009A460A9EA522206BFEF72DF901
:102090006FF00301206B01EB8501084420F0070776
:1020A000780707D0502080F31188BFF34F8FBFF31C
:1020B0006F8FFEE70025B8F1000F0FD05FF0000032
:1020C000221818F8001082F8341018F8001011B116
:1020D000401C1028F4D384F8435001E084F83450B5
:1020E000382E00D33726E662C4E91365201D00F0C0
:1020F000B2FA04F1180000F0AEFA2461C6F138001B
:102100006462A061656584F8585052465946384665
:1021100000F05AFA2060B9F1000F01D0C9F8004070
:10212000BDE8F09F30B5114900E011460A688242CF
:10213000FBD34B685C18844203D140681844486064
:10214000084643681C18944209D1084C183C24687E
:10215000A24209D052681A4442600A6812680260BA
:10216000814200D0086030BD0460F9E7940000208F
:1021700070B5002441600B4D0061914206D8D11A20
:102180008269914206D2011D286907E09A4203D272
:10219000994201D3012403E0011DE86800F05EFAD2
:1021A000204670BD6400002010B5044600F07AFAA5
:1021B000A06B28B15FF0000400F094FA204610BD37
:1021C0000124F9E730B589B03C4D6EE00498002851
:1021D00006DADDE90601059A90470498002864DBD9
:1021E000069C606910B1201D00F000FA03A800F001
:1021F000D7F8024604980A2857D2DFE800F0050510
:10220000052D334A05052D3394F8280040F00100D0
:1022100084F828000599A069059B01442046FFF732
:10222000A7FF68B3216A2046884794F82800400732
:102230003BD5002000900598A1690023421819465B
:10224000204601F0E7F8D8B9502080F31188BFF399
:102250004F8FBFF36F8FFEE714F8280F20F00100B7
:10226000207022E094F8280040F0010084F8280053
:102270000598A06128B1811813462046FFF778FF22
:1022800013E0502080F31188BFF34F8FBFF36F8F9F
:10229000FEE794F82800810703D4204600F036FAC0
:1022A00003E020F0010084F82800002204A9286837
:1022B00000F0F8FD002889D109B030BD640000208D
:1022C0002DE9FC410F46054600F0C0FB01A800F0D7
:1022D00067F80446019818B101F00AF8BDE8FC81DE
:1022E000254EAFB130690068D0B30027291B3A46AC
:1022F000306800F08DFA00F0FBFF0028EED11F4996
:102300004FF080500860BFF34F8FBFF36F8FE5E74A
:10231000A542EBD800F0ECFFF0682746C068C4681F
:10232000201D00F063F994F82800410719D5A06931
:102330002B4641193A462046FFF71AFFA8B1002064
:102340000346014600902A46204601F063F860B932
:10235000502080F31188BFF34F8FBFF36F8FFEE7DC
:1023600007E020F0010084F82800216A2046884711
:10237000B4E70127BAE700006400002004ED00E0A4
:102380000648416B096829B1416BC968C968496849
:10239000816270474FF0FF31FAE70000280000200B
:1023A00070B5054600F0BAFE064E0446B068844299
:1023B00003D200F009F8012000E000202860204648
:1023C000B46070BD64000020F8B5194D20E0C0680D
:1023D000C4680668201D00F009F9216A2046884774
:1023E00094F82800400713D5A0693044B04206D9BC
:1023F00024616060211DE86800F030F908E00020E9
:102400000346014600903246204601F003F838B1F9
:10241000E86801680029DAD12969C5E90310F8BD27
:10242000502080F31188BFF34F8FBFF36F8FFEE70B
:102430006400002008484068401C4FF0500080F3C2
:10244000118804D0BFF34F8FBFF36F8FFEE7BFF348
:102450004F8FBFF36F8FFEE79C000020074CE068B2
:10246000016841B1C0680021D0F80000FFF728FFE3
:10247000FFF7A8FEF3E701210020F7E76400002042
:102480002DE9F041044600F00DF994F9455004F1AE
:10249000240609E0606A48B1304600F0F1FE08B158
:1024A00000F056FA6D1E6DB2002DF3DC4FF0FF36D2
:1024B00084F8456000F016F900F0F4F894F94450FF
:1024C00004F1100709E0206948B1384600F0D8FE51
:1024D00008B100F03DFA6D1E6DB2002DF3DC84F8FA
:1024E0004460BDE8F04100F0FDB800002DE9F04186
:1024F0000546002700F0AAFA324E306808B9FFF707
:1025000051FD706905424ED1C5B3083568070ED03C
:1025100005F00700C0F108000544680707D0502007
:1025200080F31188BFF34F8FBFF36F8FFEE72DB39A
:102530007068854237D82348183001460C6801E09E
:1025400020460C466168A94202D221680029F7D1D1
:1025500031688C4227D007682168016060680837BD
:10256000411B10290FD96019420708D0502080F371
:102570001188BFF34F8FBFF36F8FFEE713E0416009
:102580006560FFF7CFFD61687068401A7060B268DF
:10259000904200D2B060706901430020C4E900019C
:1025A000F068401CF06000F0A3FE780707D05020D0
:1025B00080F31188BFF34F8FBFF36F8FFEE738466C
:1025C000BDE8F0817C00002010B5031F4FF080743F
:1025D0001C601B1F21F001011960191F024B0B60C9
:1025E000143940380A6010BD35240008D0E90132A2
:1025F00001699A60D0E901235A604A68824201D198
:1026000082684A60002202610868401E086008680B
:1026100070470000034B036003F15C0008608020FA
:1026200010607047AC070020044B036003F15C00AE
:1026300008604FF48070106070470000080A0020A6
:1026400000F108014FF0FF32C0E90112C1600161E1
:1026500000210160704700210161704730B50B68AF
:102660005A1C02D000F1080202E0026904E022468E
:10267000546825689D42FAD953684B6099608A6016
:10268000516008610168491C016030BD42684A60C0
:1026900093688B6093685960916008610168491C78
:1026A00001607047502080F31188BFF34F8FBFF354
:1026B0006F8F0A494868401C486001280CD10848BF
:1026C000006810F0FF0F07D0502080F31188BFF38F
:1026D0004F8FBFF36F8FFEE7704700009C00002014
:1026E00004ED00E00849486828B1401E486001D167
:1026F00080F311887047502080F31188BFF34F8F0B
:10270000BFF36F8FFEE700009C00002070B500282B
:102710002AD0164DA0F1080460686969084207D103
:10272000502080F31188BFF34F8FBFF36F8FFEE708
:1027300022683AB1502080F31188BFF34F8FBFF366
:102740006F8FFEE78843606000F080F96068696819
:10275000084468602046FFF7E5FC2869401C2861B2
:10276000BDE8704000F0C4BD70BD00007C000020DA
:102770004FF0E02000210161816105494FF47A7238
:102780000968B1FBF2F1491E4161072101617047FF
:10279000A800002010B5FDF73FFD114910280ED309
:1027A00000F1E02090F8F0030A78904207D2502020
:1027B00080F31188BFF34F8FBFF36F8FFEE7094897
:1027C0000068896800F4E060884207D9502080F3EF
:1027D0001188BFF34F8FBFF36F8FFEE710BD00006E
:1027E0009C0000200CED00E010B5084B002200BF5B
:1027F00053F832401CB1521C082AF9D310BD43F8DB
:10280000321003EBC201486010BD000090010020AF
:1028100070B515460E460446FFF744FF94F9441080
:102820000020491C01D184F8440094F94510491C4A
:1028300001D184F84500FFF755FFA06B28B92A465F
:10284000314604F1240000F0A1F82046BDE87040B4
:10285000FFF716BEFFF705FA04463234FFF756F9C4
:102860002046FFF7E7F9F8E710B5020014D00F484B
:10287000006B38B1502080F31188BFF34F8FBFF346
:102880006F8FFEE700F0E2F800211046FFF764FAD0
:1028900000F02EFD002807D105494FF08050086058
:1028A000BFF34F8FBFF36F8F10BD000028000020D3
:1028B00004ED00E070B50D4604000BD095B11E4A42
:1028C000106BB8B1502080F31188BFF34F8FBFF366
:1028D0006F8FFEE7502080F31188BFF34F8FBFF357
:1028E0006F8FFEE7502080F31188BFF34F8FBFF347
:1028F0006F8FFEE700F0AAF8D26823685919934257
:1029000004D98B420AD9914202D807E08B42FAD906
:10291000881A21600021FFF71FFA00E0216000F013
:10292000E7FC002807D105494FF080500860BFF34D
:102930004F8FBFF36F8F70BD2800002004ED00E0C3
:1029400002490A6A0260C968416070472800002095
:1029500001490120C86170472800002010B50C46CD
:1029600050B1094909681831FFF778FE2046BDE8E3
:1029700010400121FFF7F0B9502080F31188BFF318
:102980004F8FBFF36F8FFEE72800002070B514460D
:102990000D4668B10A4909681831FFF777FE0CB196
:1029A0004FF0FF3521462846BDE87040FFF7D4B907
:1029B000502080F31188BFF34F8FBFF36F8FFEE776
:1029C0002800002030B587B00024039405AA04A98C
:1029D00003A80494FFF71EFEDDE903010094CDE98E
:1029E0000110002315A11748059A00F05EFB164D53
:1029F0000028E8621FD000F0DDFC012809D0401C4F
:102A000019D1502080F31188BFF34F8FBFF36F8F20
:102A1000FEE7502080F31188BFF34F8FBFF36F8F15
:102A20004FF0FF30A86201206861EC6007B0BDE89C
:102A3000304000F045B807B030BD000049444C4577
:102A400000000000F11F0008280000200248016B70
:102A5000491C01637047000028000020164810B58B
:102A6000016B11B10121C16110BD0021C16101697A
:102A7000124A01E0B9B1491E01EB810352F823303B
:102A8000002BF7D001EB810302EB830202F1080473
:102A900053685B685360A34201D15B685360DA6896
:102AA0000260016110BD502080F31188BFF34F8F89
:102AB000BFF36F8FFEE7000028000020D001002048
:102AC0001CB5264908780190FF20087008788DF819
:102AD00000009DF800009DF8002000F0F0009042FA
:102AE00007D0502080F31188BFF34F8FBFF36F8F53
:102AF000FEE79DF800001A4C00F0500020700720FF
:102B0000A06005E09DF8002052008DF80020401ED6
:102B10009DF800201206F5D4A060032807D05020AD
:102B200080F31188BFF34F8FBFF36F8FFEE74FF431
:102B30004070A060019808700A48016841F4700173
:102B40000160016841F070410160FFF711FE002053
:102B50006060FDF72BFB00201CBD000000E400E0DE
:102B60009C00002020ED00E010B5502080F311887B
:102B7000BFF34F8FBFF36F8F00F0DEFA18B1044937
:102B80004FF080500860002080F3118810BD0000D5
:102B900004ED00E038B5049D18B153B1CAB181B15C
:102BA00020E0502080F31188BFF34F8FBFF36F8F69
:102BB000FEE7502080F31188BFF34F8FBFF36F8F74
:102BC000FEE7502080F31188BFF34F8FBFF36F8F64
:102BD000FEE739B1502080F31188BFF34F8FBFF368
:102BE0006F8FFEE750241C46012384F846302B46A5
:102BF0000094FFF72DFA204638BD000070B50D4651
:102C0000040025D0FFF74EFDD4E90F20216802FB18
:102C10000011A1600021A163216861600A46D4E926
:102C20000F01401E00FB0121E16021464FF0FF3003
:102C300001F8440F487004F110008DB1FFF700FD5A
:102C400004F12400FFF7FCFCFFF74CFD012070BDF0
:102C5000502080F31188BFF34F8FBFF36F8FFEE7D3
:102C600021690029F0D000F00BFB0028ECD00449CA
:102C70004FF080500860BFF34F8FBFF36F8FE3E7D3
:102C800004ED00E02DE9FF4782B01D468A464FF073
:102C90000008040003D0BAF1000F08D011E0502062
:102CA00080F31188BFF34F8FBFF36F8FFEE7206C67
:102CB00038B1502080F31188BFF34F8FBFF36F8F6F
:102CC000FEE7022D0AD1E06B012807D0502080F3E7
:102CD0001188BFF34F8FBFF36F8FFEE700F010FA3C
:102CE0003F4F4FF000094FF0805648B9049838B173
:102CF000502080F31188BFF34F8FBFF36F8FFEE733
:102D0000FFF7D0FCA06BE16B884207D3022D05D002
:102D10000498D0B1B8F1000F1AD01EE02A465146EF
:102D20002046FFF7EEF8616A19B104F1240000F0C3
:102D3000A7FA20B13E60BFF34F8FBFF36F8FFFF74D
:102D4000D1FC012006B0BDE8F087FFF7CBFC22E004
:102D50006846FFF7F5FD4FF00108FFF7C3FCFFF7EA
:102D600075FEFFF79FFC94F94400401C01D184F8E4
:102D7000449094F94500401C01D184F84590FFF738
:102D8000B1FC04A9684600F029F930B12046FFF7EC
:102D900077FB00F0ADFA0020D4E7FFF783FCA06BCF
:102DA000E16B884213D1FFF79DFC04F110000499F8
:102DB000FFF7D4FD2046FFF763FB00F099FA0028E7
:102DC0009ED13E60BFF34F8FBFF36F8F98E7FFF741
:102DD00089FC2046FFF754FB00F08AFA90E70000D8
:102DE00004ED00E02DE9F0471F46904689460400B7
:102DF00003D0B9F1000F08D011E0502080F3118802
:102E0000BFF34F8FBFF36F8FFEE7206C38B15020B8
:102E100080F31188BFF34F8FBFF36F8FFEE7022F50
:102E20000AD1E06B012807D0502080F31188BFF34E
:102E30004F8FBFF36F8FFEE7FFF7ACFC5020EFF32F
:102E4000118680F31188BFF34F8FBFF36F8FA06B94
:102E5000E16B884206D3022F04D0002086F311884C
:102E6000BDE8F08794F94550A06B3A4649462046A4
:102E7000FFF747F8681C04D06D1C84F8455001200A
:102E8000ECE7606A0028FAD004F1240000F0F8F9B9
:102E90000028F4D0B8F1000FF1D00121C8F80010DB
:102EA000EDE700002DE9F747002683B08A460400CD
:102EB00003D0BAF1000F08D011E0502080F3118840
:102EC000BFF34F8FBFF36F8FFEE7206C38B15020F8
:102ED00080F31188BFF34F8FBFF36F8FFEE700F0D1
:102EE0000FF9DFF8F4804FF000094FF0805748B930
:102EF000059838B1502080F31188BFF34F8FBFF38E
:102F00006F8FFEE7FFF7CEFBA56BC5B1514620469C
:102F1000FEF7E4FF6D1EA563206950B104F11000B7
:102F200000F0AEF928B1C8F80070BFF34F8FBFF3BF
:102F30006F8FFFF7D7FB012006B0BDE8F08705983B
:102F400008B11EB106E0FFF7CDFB27E06846FFF7AA
:102F5000F7FC0126FFF7C6FBFFF778FDFFF7A2FBA2
:102F600094F94400401C01D184F8449094F9450040
:102F7000401C01D184F84590FFF7B4FB05A96846D1
:102F800000F02CF8002820460AD0FFF779FA00F06C
:102F9000AFF92046FFF708F90028B3D00020CBE7AF
:102FA000FFF702F990B104F124000599FFF7D6FC70
:102FB0002046FFF765FA00F09BF90028A2D1C8F877
:102FC0000070BFF34F8FBFF36F8F9BE72046FFF773
:102FD00057FA00F08DF995E704ED00E02DE9F04196
:102FE0000C46050011D0C4B1FFF75CFB174BDA6843
:102FF0006E682068911B471C17D02F681B6A9F4280
:1030000019D0964217D8012410E0502080F311887F
:10301000BFF34F8FBFF36F8FFEE7502080F311880F
:10302000BFF34F8FBFF36F8FFEE70024FFF75AFB0C
:103030002046BDE8F081884205D9401A2060284624
:10304000FFF77EFCF1E700202060DCE7280000208D
:103050002DE9FF5F8346DDE90E87994616468A46CD
:103060009000FFF743FA05001CD05C20FFF73EFA02
:10307000040014D00020256384F85900CDE90240F3
:10308000CDE900874B46324651465846FEF7F2FFDF
:103090002046FEF78FFE012004B0BDE8F09F2846D1
:1030A000FFF734FB4FF0FF30F6E7F0B585B0DDE910
:1030B0000B640A9DA6B1DCB15C270097266302264B
:1030C00084F85960002604AFCDE90246CDE90057E7
:1030D000FEF7D0FF2046FEF76DFE049805B0F0BD68
:1030E000502080F31188BFF34F8FBFF36F8FFEE73F
:1030F000502080F31188BFF34F8FBFF36F8FFEE72F
:103100000548416919B1006B18B1002070470120D2
:103110007047022070470000280000200148C06866
:10312000704700002800002010B5FFF733FB01486E
:10313000C06810BD280000202DE9F0412E4C00276A
:10314000206B28B1A069401CA0613846BDE8F08121
:10315000E668761CE66013D1606B006838B15020D9
:1031600080F31188BFF34F8FBFF36F8FFEE7606B63
:10317000A16B6163A063206A401C2062FFF700F925
:10318000A06ADFF87880864209D3606B0068A0B13E
:10319000606BC068C5686868864211D2A06220680A
:1031A000C06A00EB800158F82100012800D90127EE
:1031B000E0690028C9D00127C7E74FF0FF30EDE7ED
:1031C000281DFFF713FAA86A18B105F11800FFF7D8
:1031D0000DFAE86A2169884200D9206100EB80017C
:1031E00008EB8100291DFFF751FAE86A2168C96AD6
:1031F0008842CAD30127C8E728000020D001002058
:1032000070B504004FF0000133D01B4D2868844294
:1032100007D0502080F31188BFF34F8FBFF36F8F1B
:10322000FEE7206D38B1401E2065E36CE26A9A42E9
:103230001FD040B11DE0502080F31188BFF34F8FA5
:10324000BFF36F8FFEE7201DFFF7D0F9E06CE0625F
:10325000C0F13800A061E06A2969884200D928617C
:10326000064900EB800001EB8000211DFFF70EFAFC
:103270000121084670BD000028000020D001002078
:1032800070B5C068C46854B104F118000646FFF771
:10329000ADF9144D286B50B13146134815E050205C
:1032A00080F31188BFF34F8FBFF36F8FFEE7201DB0
:1032B000FFF79CF9E06A2969884200D928610B4927
:1032C00000EB800001EB8000211DFFF7DFF9E06AD1
:1032D0002968C96A884202D90120E86170BD0020CE
:1032E00070BD00002800002058060020D0010020FA
:1032F0002DE9F0472C4D00242746286B38B1FFF705
:10330000D1F9286B401E2863286B40B146E050205D
:1033100080F31188BFF34F8FBFF36F8FFEE7A9686B
:10332000224E0120D1B3A6F5916980463068E0B104
:10333000F068C46804F11800FFF758F9201DFFF782
:1033400055F9E06A2969884200D9286100EB8001BB
:1033500009EB8100211DFFF799F9E06A2968C96A24
:103360008842E3D3C5F81C80E0E70CB1FFF708F80A
:10337000AC694CB14FEA0806FFF7DEFE00B1EE6122
:10338000641EF9D10020A861E86938B10849012715
:1033900038070860BFF34F8FBFF36F8FFFF7A2F9B5
:1033A0003846BDE8F08700002800002058060020BD
:1033B00004ED00E010B586B0FEF764FD114C206806
:1033C000B8B100200390049005AA04A903A8FFF750
:1033D0002BF9DDE9032102208DE8070000230AA173
:1033E0000B48059AFFF761FE606010B106B001203E
:1033F00010BD502080F31188BFF34F8FBFF36F8F44
:10340000FEE7000064000020546D722053766300D4
:103410005D2400082DE9FF411E46134602000A9D67
:103420004FF0000016D0144C2768002F0FD0CDE9C4
:1034300000130292062917DAFFF762FE02284FF006
:1034400000030FD0002269462068FFF71BFC04B080
:10345000BDE8F081502080F31188BFF34F8FBFF398
:103460006F8FFEE72A46EEE700233246694638466C
:10347000FFF7B8FCEBE700006400002090EA010FC2
:1034800048BF81F0004100F1AA82421A3CBF801A75
:1034900089184FEAD0524FF07F4C1CEA410FA2EB43
:1034A000D15318BF9CEA026F00F03B804FF0004CF4
:1034B0004CEA00204CEA012121FA03FC10EB0C0C31
:1034C0001ED202F1FF325FEA1C2040EBC25038BF2F
:1034D00070471CF07F0F4FEA400C18BFBCF17F4FC4
:1034E00038BF7047C3F12003994008BF20F00100A6
:1034F000BCF17F4F38BF7047A0F1C04000F031BA37
:103500004FEA3C00000A40EBC25028BF1CF0FF0FFE
:103510004FEA400CE6D018BFBCF17F4F38BF704770
:10352000EAE79CEA026F05D010EA5C0F08BF00F0E2
:103530000040704710B500F0CEF900BF64FBBE3EFE
:10354000401058BFC0F14040491058BFC1F1404140
:103550008142EFF3008070474FF47F0C1CEAD012D9
:103560001EBF1CEAD11392EA0C0F93EA0C0F00F075
:10357000858090EA010F48BF42F4807240F4000C4D
:1035800041F400002CF07F4120F07F4000B58142E3
:10359000A2EB03020FF2081CACEB504EC0F100008E
:1035A0009EF800E04FEA4E0E00FB0EFC38BF4900CB
:1035B0004FEA2C1C02F5FA020CFB0EF34FEACE1E6A
:1035C0004FEA112C4FEAC1210EEB635E42EB22421F
:1035D0000EFB0CFC4FEA1C5300FB03114FEA112CAD
:1035E0004FEA01310EFB0CFC4FEADC4C00FB0C11E6
:1035F000C14228BF09184CEB03335DF804EB10EB14
:10360000410143EBC250B2F57C0F38BF704729D55A
:1036100012F0F00F1CBF00F1C04000F000407047F6
:10362000008182838485868788898B8C8D8E8F919B
:103630009293959697999A9C9D9FA0A2A3A5A7A8BF
:10364000AAACAEB0B2B3B5B7B9BCBEC0C2C5C7C9EB
:10365000CCCED1D4D7D9DCDFE2E6E9ECF0F3F7FA4F
:10366000FE0000004FEA400C0CF1807CBCF17E4F64
:1036700028BF7047B0F1C04000F073B990EA010F65
:103680000CEAD11348BF42F48072624538BF6345EB
:1036900007D213F47F0F16D080EA010000F000403B
:1036A000704710B500F017F9097EFC3E00F005B830
:1036B00080EA010000F00040704780EA010000F05D
:1036C000004000F04EB912F47F0F04BF024870476B
:1036D00080EA010000F045B90000C07F41000B0EF8
:1036E000D3F19E0208D950F400034FEA032323FAD2
:1036F00002F048BF4042704710B500F0ECF800BF40
:1037000049922480002070476FF0004282EA200036
:103710007047000010F0004148BF4042B0FA80F30B
:1037200010FA03F2C3F19D030BD051EAC35101EB30
:103730001220530638BF704700F1010008BF20F087
:1037400001007047B0FA80F310FA03F2C3F19D0351
:103750000AD0D90501EB1220530638BF704700F19B
:10376000010008BF20F001007047000050EA010C82
:1037700000F113801CF5000F58BFBCF5000F01D4F9
:103780008842704707D710F5000F58BF11F5000F9A
:1037900015D488427047894270471CF5000F04D544
:1037A000BCF5000FF7D5814270474FF0807C1CEBD1
:1037B000400F38BF1CEB410F01D28142704710B55A
:1037C00000F089F8922449004FF000504FF08051EA
:1037D000FFF7B6BE4FF47F0C1CEAD0121EBF1CEAE6
:1037E000D11392EA0C0F93EA0C0F00F0478090EA95
:1037F000010F48BF42F480724FF0004C4CEA0020A9
:103800004CEA012102EB0302A0FB0113A2F5000226
:10381000002918BF43F001035B0028BF4FEA3303C0
:1038200042EB22425FEA132C4CEBC2502EBFBCEBA2
:10383000436FB2F57C0F70474FEA036CBCF1004F49
:1038400008BF20F00100B2F57C0F38BF70470BD5E0
:1038500082F0FF0212F5803FC8BF704700F1C04000
:10386000D8BF00F00040704700F5000C5FEA4C0C38
:1038700048BF7047B0F1C04000F073B890EA010F44
:103880000CEAD11348BF42F48072624538BF6345E9
:1038900004D280EA010000F00040704710B500F04B
:1038A0001AF800BF8900013E00F007B800F009B81F
:1038B0005FEA410C5FEA1C6C08D080EA010000F06E
:1038C00050B85FEA400C5FEA1C6CF6D14FF0004044
:1038D000A0F5800070470EF1020E2EF0030E5EF888
:1038E000044B244204D44FEA4102B2F17F4F11D875
:1038F0004FEA4003B3F17F4F0CD80ED14FEAD07C92
:10390000B2F17F4F0CEB4C0C0CF1020C08BF4CEBEE
:10391000D17C04E04FF0080C01E04FEAD17C0CEBC5
:103920004C0324FA03F404F00704B4F1040C06D2A7
:103930000EEB840CBDE810404CF0010C6047DFE852
:103940000CF0070802024FF00040A0F5800010BD07
:103950000846420018BFD2F1807288BF00F00040D4
:1039600010BDFF2141EAD050C005704751EA000C5C
:1039700000F113801CF5000F58BFBCF5000F01D4F7
:103980008142704707D711F5000F58BF10F5000F9F
:1039900015D481427047894270471CF5000F04D549
:1039A000BCF5000FF7D5884270474FF0807C1CEBC8
:1039B000410F38BF1CEB400F01D28842704780EAAC
:1039C000010081EA000180EA0100FFF7F8BE000073
:1039D00090EA010F48BF81F000413FF556AD421A11
:1039E00004D882F00042A0EB020011444FEAD0520A
:1039F0004FF07F4C1CEA410FA2EBD15318BF9CEA59
:103A0000026F4AD04FF0004C4CEA00204CEA0121F2
:103A100021FA03FCB0EB0C0C0FD412F0FE0F36D0E1
:103A20005FEA4C001DD5001240EBC25038BF704712
:103A30001CF03F0F18BF70470BE0A2F101025FEAD4
:103A40001C2040EBC25038BF70471CF07F0F18BFDE
:103A50007047C3F12003994014BF401E20F00100BD
:103A6000704780084FEA122308BF7047B0FA80FC05
:103A7000A2EB0C02CCF1280C60FA0CF093EA122FA6
:103A800004BF00EBC25070474FEAC3707047130A7F
:103A90005FEADC1008BF7047F6E79CEA026F04D0CB
:103AA00010EA5C0F08BF0020704710B5FFF713FF46
:103AB00040DFF63E81F0004070470000043B000804
:103AC00000000000000000000000000000000000F6
:103AD00000020000180000000000000000000000CC
:103AE00000000000000000000102030406070809AE
:103AF000010202030405060708090A0B0C0D0E0F4C
:103B00001010000064656661756C745461736B001D
:103B1000303B000800000020B80000002801000829
:103B2000E83B0008B8000020102000004401000815
:103B300000000000E803000000000000000000009A
:103B400000000000000070420000F0410000000092
:103B500000000000F4010000000000000000000070
:103B60000000000000000000000000000000000055
:103B70000000000000000000000000000000000045
:103B80000000000000000000000000000000000035
:103B90000000000000000000000000000000000025
:103BA0000000000000000000000000000000000015
:103BB0000000000000000000000000000000000005
:103BC00000000000000000000000000000000000F5
:103BD000AAAAAAAA0000000000127A0001000000B0
:083BE0001000000000000000CD
:04000005080000ED02
:00000001FF
